{
  "contractName": "TicketShop",
  "abi": [
    {
      "anonymous": false,
      "inputs": [
        {
          "indexed": false,
          "internalType": "address",
          "name": "buyer",
          "type": "address"
        },
        {
          "indexed": false,
          "internalType": "bool",
          "name": "status",
          "type": "bool"
        }
      ],
      "name": "BuyerRegistered",
      "type": "event"
    },
    {
      "anonymous": false,
      "inputs": [
        {
          "indexed": false,
          "internalType": "uint256",
          "name": "eventId",
          "type": "uint256"
        },
        {
          "indexed": false,
          "internalType": "address",
          "name": "seller",
          "type": "address"
        }
      ],
      "name": "EventAdded",
      "type": "event"
    },
    {
      "anonymous": false,
      "inputs": [
        {
          "indexed": false,
          "internalType": "address",
          "name": "seller",
          "type": "address"
        },
        {
          "indexed": false,
          "internalType": "bool",
          "name": "status",
          "type": "bool"
        }
      ],
      "name": "SellerRegistered",
      "type": "event"
    },
    {
      "anonymous": false,
      "inputs": [
        {
          "indexed": false,
          "internalType": "uint256",
          "name": "eventId",
          "type": "uint256"
        },
        {
          "indexed": false,
          "internalType": "address",
          "name": "buyer",
          "type": "address"
        },
        {
          "indexed": false,
          "internalType": "uint256",
          "name": "value",
          "type": "uint256"
        }
      ],
      "name": "TicketSold",
      "type": "event"
    },
    {
      "inputs": [
        {
          "internalType": "address",
          "name": "",
          "type": "address"
        }
      ],
      "name": "balances",
      "outputs": [
        {
          "internalType": "uint256",
          "name": "",
          "type": "uint256"
        }
      ],
      "stateMutability": "view",
      "type": "function",
      "constant": true
    },
    {
      "inputs": [
        {
          "internalType": "uint256",
          "name": "",
          "type": "uint256"
        }
      ],
      "name": "events",
      "outputs": [
        {
          "internalType": "uint256",
          "name": "id",
          "type": "uint256"
        },
        {
          "internalType": "string",
          "name": "name",
          "type": "string"
        },
        {
          "internalType": "address payable",
          "name": "seller",
          "type": "address"
        },
        {
          "internalType": "uint256",
          "name": "price",
          "type": "uint256"
        },
        {
          "internalType": "uint256",
          "name": "supply",
          "type": "uint256"
        },
        {
          "internalType": "uint256",
          "name": "amountSold",
          "type": "uint256"
        },
        {
          "internalType": "uint256",
          "name": "saleStart",
          "type": "uint256"
        },
        {
          "internalType": "uint256",
          "name": "saleEnd",
          "type": "uint256"
        },
        {
          "internalType": "bool",
          "name": "soldOut",
          "type": "bool"
        }
      ],
      "stateMutability": "view",
      "type": "function",
      "constant": true
    },
    {
      "inputs": [
        {
          "internalType": "address",
          "name": "",
          "type": "address"
        }
      ],
      "name": "isBuyer",
      "outputs": [
        {
          "internalType": "bool",
          "name": "",
          "type": "bool"
        }
      ],
      "stateMutability": "view",
      "type": "function",
      "constant": true
    },
    {
      "inputs": [
        {
          "internalType": "address",
          "name": "",
          "type": "address"
        }
      ],
      "name": "isSeller",
      "outputs": [
        {
          "internalType": "bool",
          "name": "",
          "type": "bool"
        }
      ],
      "stateMutability": "view",
      "type": "function",
      "constant": true
    },
    {
      "inputs": [],
      "name": "owner",
      "outputs": [
        {
          "internalType": "address",
          "name": "",
          "type": "address"
        }
      ],
      "stateMutability": "view",
      "type": "function",
      "constant": true
    },
    {
      "inputs": [
        {
          "internalType": "address",
          "name": "",
          "type": "address"
        },
        {
          "internalType": "uint256",
          "name": "",
          "type": "uint256"
        }
      ],
      "name": "ticketOwned",
      "outputs": [
        {
          "internalType": "bool",
          "name": "",
          "type": "bool"
        }
      ],
      "stateMutability": "view",
      "type": "function",
      "constant": true
    },
    {
      "inputs": [],
      "name": "registerBuyer",
      "outputs": [],
      "stateMutability": "nonpayable",
      "type": "function"
    },
    {
      "inputs": [],
      "name": "registerSeller",
      "outputs": [],
      "stateMutability": "nonpayable",
      "type": "function"
    },
    {
      "inputs": [
        {
          "internalType": "string",
          "name": "_name",
          "type": "string"
        },
        {
          "internalType": "uint256",
          "name": "_price",
          "type": "uint256"
        },
        {
          "internalType": "uint256",
          "name": "_supply",
          "type": "uint256"
        }
      ],
      "name": "createEvent",
      "outputs": [],
      "stateMutability": "nonpayable",
      "type": "function"
    },
    {
      "inputs": [
        {
          "internalType": "uint256",
          "name": "_eventId",
          "type": "uint256"
        }
      ],
      "name": "buyTicket",
      "outputs": [],
      "stateMutability": "payable",
      "type": "function",
      "payable": true
    },
    {
      "inputs": [],
      "name": "getEvents",
      "outputs": [
        {
          "components": [
            {
              "internalType": "uint256",
              "name": "id",
              "type": "uint256"
            },
            {
              "internalType": "string",
              "name": "name",
              "type": "string"
            },
            {
              "internalType": "address payable",
              "name": "seller",
              "type": "address"
            },
            {
              "internalType": "uint256",
              "name": "price",
              "type": "uint256"
            },
            {
              "internalType": "uint256",
              "name": "supply",
              "type": "uint256"
            },
            {
              "internalType": "uint256",
              "name": "amountSold",
              "type": "uint256"
            },
            {
              "internalType": "uint256",
              "name": "saleStart",
              "type": "uint256"
            },
            {
              "internalType": "uint256",
              "name": "saleEnd",
              "type": "uint256"
            },
            {
              "internalType": "bool",
              "name": "soldOut",
              "type": "bool"
            }
          ],
          "internalType": "struct TicketShop.Event[]",
          "name": "",
          "type": "tuple[]"
        }
      ],
      "stateMutability": "view",
      "type": "function",
      "constant": true
    },
    {
      "inputs": [
        {
          "internalType": "address",
          "name": "_owner",
          "type": "address"
        },
        {
          "internalType": "uint256",
          "name": "_eventId",
          "type": "uint256"
        }
      ],
      "name": "getTicketOwned",
      "outputs": [
        {
          "internalType": "bool",
          "name": "",
          "type": "bool"
        }
      ],
      "stateMutability": "view",
      "type": "function",
      "constant": true
    }
  ],
  "bytecode": "0x608060405234801561001057600080fd5b50611f34806100206000396000f3fe6080604052600436106100a75760003560e01c80638b1ed716116100645780638b1ed716146101c95780638da5cb5b146102065780639e9580f614610231578063a365a85e1461025a578063b7d15fc414610271578063ee95feaf146102ae576100a7565b80630b791430146100ac57806327e235e3146100f15780632a55feec1461012e578063404aa8f91461016b57806352c9224c1461019657806367dd74ca146101ad575b600080fd5b3480156100b857600080fd5b506100d360048036038101906100ce919061142a565b6102eb565b6040516100e8999897969594939291906119c8565b60405180910390f35b3480156100fd57600080fd5b506101186004803603810190610113919061135e565b6103fe565b604051610125919061194d565b60405180910390f35b34801561013a57600080fd5b506101556004803603810190610150919061135e565b610416565b6040516101629190611832565b60405180910390f35b34801561017757600080fd5b50610180610436565b60405161018d9190611810565b60405180910390f35b3480156101a257600080fd5b506101ab6105d5565b005b6101c760048036038101906101c2919061142a565b610748565b005b3480156101d557600080fd5b506101f060048036038101906101eb9190611387565b610da8565b6040516101fd9190611832565b60405180910390f35b34801561021257600080fd5b5061021b610e10565b60405161022891906117cc565b60405180910390f35b34801561023d57600080fd5b50610258600480360381019061025391906113c3565b610e34565b005b34801561026657600080fd5b5061026f611067565b005b34801561027d57600080fd5b5061029860048036038101906102939190611387565b6111da565b6040516102a59190611832565b60405180910390f35b3480156102ba57600080fd5b506102d560048036038101906102d0919061135e565b611209565b6040516102e29190611832565b60405180910390f35b600181815481106102fb57600080fd5b906000526020600020906009020160009150905080600001549080600101805461032490611c15565b80601f016020809104026020016040519081016040528092919081815260200182805461035090611c15565b801561039d5780601f106103725761010080835404028352916020019161039d565b820191906000526020600020905b81548152906001019060200180831161038057829003601f168201915b5050505050908060020160009054906101000a900473ffffffffffffffffffffffffffffffffffffffff16908060030154908060040154908060050154908060060154908060070154908060080160009054906101000a900460ff16905089565b60046020528060005260406000206000915090505481565b60026020528060005260406000206000915054906101000a900460ff1681565b60606001805480602002602001604051908101604052809291908181526020016000905b828210156105cc5783829060005260206000209060090201604051806101200160405290816000820154815260200160018201805461049890611c15565b80601f01602080910402602001604051908101604052809291908181526020018280546104c490611c15565b80156105115780601f106104e657610100808354040283529160200191610511565b820191906000526020600020905b8154815290600101906020018083116104f457829003601f168201915b505050505081526020016002820160009054906101000a900473ffffffffffffffffffffffffffffffffffffffff1673ffffffffffffffffffffffffffffffffffffffff1673ffffffffffffffffffffffffffffffffffffffff16815260200160038201548152602001600482015481526020016005820154815260200160068201548152602001600782015481526020016008820160009054906101000a900460ff1615151515815250508152602001906001019061045a565b50505050905090565b60011515600360003373ffffffffffffffffffffffffffffffffffffffff1673ffffffffffffffffffffffffffffffffffffffff16815260200190815260200160002060009054906101000a900460ff1615151415610669576040517f08c379a00000000000000000000000000000000000000000000000000000000081526004016106609061188d565b60405180910390fd5b6001600360003373ffffffffffffffffffffffffffffffffffffffff1673ffffffffffffffffffffffffffffffffffffffff16815260200190815260200160002060006101000a81548160ff0219169083151502179055507f3860b75e2fd87bc4bd8b62bb4c55616156cf8660108bfe650183fdf40cb2923533600360003373ffffffffffffffffffffffffffffffffffffffff1673ffffffffffffffffffffffffffffffffffffffff16815260200190815260200160002060009054906101000a900460ff1660405161073e9291906117e7565b60405180910390a1565b3360011515600260008373ffffffffffffffffffffffffffffffffffffffff1673ffffffffffffffffffffffffffffffffffffffff16815260200190815260200160002060009054906101000a900460ff161515146107dc576040517f08c379a00000000000000000000000000000000000000000000000000000000081526004016107d3906118ed565b60405180910390fd5b60001515600560003373ffffffffffffffffffffffffffffffffffffffff1673ffffffffffffffffffffffffffffffffffffffff168152602001908152602001600020600084815260200190815260200160002060009054906101000a900460ff16151514610880576040517f08c379a00000000000000000000000000000000000000000000000000000000081526004016108779061192d565b60405180910390fd5b60001515600183815481106108be577f4e487b7100000000000000000000000000000000000000000000000000000000600052603260045260246000fd5b906000526020600020906009020160080160009054906101000a900460ff1615151461091f576040517f08c379a0000000000000000000000000000000000000000000000000000000008152600401610916906118ad565b60405180910390fd5b60018281548110610959577f4e487b7100000000000000000000000000000000000000000000000000000000600052603260045260246000fd5b90600052602060002090600902016007015442106109ac576040517f08c379a00000000000000000000000000000000000000000000000000000000081526004016109a39061186d565b60405180910390fd5b600182815481106109e6577f4e487b7100000000000000000000000000000000000000000000000000000000600052603260045260246000fd5b906000526020600020906009020160030154341015610a3a576040517f08c379a0000000000000000000000000000000000000000000000000000000008152600401610a31906118cd565b60405180910390fd5b6001600560003373ffffffffffffffffffffffffffffffffffffffff1673ffffffffffffffffffffffffffffffffffffffff168152602001908152602001600020600084815260200190815260200160002060006101000a81548160ff02191690831515021790555060018281548110610add577f4e487b7100000000000000000000000000000000000000000000000000000000600052603260045260246000fd5b90600052602060002090600902016005016000815480929190610aff90611c78565b919050555060018281548110610b3e577f4e487b7100000000000000000000000000000000000000000000000000000000600052603260045260246000fd5b90600052602060002090600902016004015460018381548110610b8a577f4e487b7100000000000000000000000000000000000000000000000000000000600052603260045260246000fd5b9060005260206000209060090201600501541415610c06576001808381548110610bdd577f4e487b7100000000000000000000000000000000000000000000000000000000600052603260045260246000fd5b906000526020600020906009020160080160006101000a81548160ff0219169083151502179055505b600060018381548110610c42577f4e487b7100000000000000000000000000000000000000000000000000000000600052603260045260246000fd5b906000526020600020906009020160020160009054906101000a900473ffffffffffffffffffffffffffffffffffffffff1673ffffffffffffffffffffffffffffffffffffffff1660018481548110610cc4577f4e487b7100000000000000000000000000000000000000000000000000000000600052603260045260246000fd5b906000526020600020906009020160030154604051610ce2906117b7565b60006040518083038185875af1925050503d8060008114610d1f576040519150601f19603f3d011682016040523d82523d6000602084013e610d24565b606091505b5050905080610d68576040517f08c379a0000000000000000000000000000000000000000000000000000000008152600401610d5f9061190d565b60405180910390fd5b7fbce6612c87f6b5711225ffc4b9f920148cd399de49ba10137fe0d3c531333841833334604051610d9b93929190611991565b60405180910390a1505050565b6000600560008473ffffffffffffffffffffffffffffffffffffffff1673ffffffffffffffffffffffffffffffffffffffff168152602001908152602001600020600083815260200190815260200160002060009054906101000a900460ff16905092915050565b60008054906101000a900473ffffffffffffffffffffffffffffffffffffffff1681565b3360011515600360008373ffffffffffffffffffffffffffffffffffffffff1673ffffffffffffffffffffffffffffffffffffffff16815260200190815260200160002060009054906101000a900460ff16151514610ec8576040517f08c379a0000000000000000000000000000000000000000000000000000000008152600401610ebf9061184d565b60405180910390fd5b7f22c8faed5969a6808c4706a759d88cc07001fda4c7a81eef86f3f4499911614860018054905033604051610efe929190611968565b60405180910390a1600160405180610120016040528060018054905081526020018681526020013373ffffffffffffffffffffffffffffffffffffffff1681526020018581526020018481526020016000815260200142815260200162093a8042610f699190611b23565b8152602001600015158152509080600181540180825580915050600190039060005260206000209060090201600090919091909150600082015181600001556020820151816001019080519060200190610fc4929190611229565b5060408201518160020160006101000a81548173ffffffffffffffffffffffffffffffffffffffff021916908373ffffffffffffffffffffffffffffffffffffffff160217905550606082015181600301556080820151816004015560a0820151816005015560c0820151816006015560e082015181600701556101008201518160080160006101000a81548160ff021916908315150217905550505050505050565b60011515600260003373ffffffffffffffffffffffffffffffffffffffff1673ffffffffffffffffffffffffffffffffffffffff16815260200190815260200160002060009054906101000a900460ff16151514156110fb576040517f08c379a00000000000000000000000000000000000000000000000000000000081526004016110f29061188d565b60405180910390fd5b6001600260003373ffffffffffffffffffffffffffffffffffffffff1673ffffffffffffffffffffffffffffffffffffffff16815260200190815260200160002060006101000a81548160ff0219169083151502179055507ffe169302b6a62804a26895ffe153e47aaaf25624c334f93fc2d179d8d1530bbf33600260003373ffffffffffffffffffffffffffffffffffffffff1673ffffffffffffffffffffffffffffffffffffffff16815260200190815260200160002060009054906101000a900460ff166040516111d09291906117e7565b60405180910390a1565b60056020528160005260406000206020528060005260406000206000915091509054906101000a900460ff1681565b60036020528060005260406000206000915054906101000a900460ff1681565b82805461123590611c15565b90600052602060002090601f016020900481019282611257576000855561129e565b82601f1061127057805160ff191683800117855561129e565b8280016001018555821561129e579182015b8281111561129d578251825591602001919060010190611282565b5b5090506112ab91906112af565b5090565b5b808211156112c85760008160009055506001016112b0565b5090565b60006112df6112da84611a81565b611a5c565b9050828152602081018484840111156112f757600080fd5b611302848285611bd3565b509392505050565b60008135905061131981611ed0565b92915050565b600082601f83011261133057600080fd5b81356113408482602086016112cc565b91505092915050565b60008135905061135881611ee7565b92915050565b60006020828403121561137057600080fd5b600061137e8482850161130a565b91505092915050565b6000806040838503121561139a57600080fd5b60006113a88582860161130a565b92505060206113b985828601611349565b9150509250929050565b6000806000606084860312156113d857600080fd5b600084013567ffffffffffffffff8111156113f257600080fd5b6113fe8682870161131f565b935050602061140f86828701611349565b925050604061142086828701611349565b9150509250925092565b60006020828403121561143c57600080fd5b600061144a84828501611349565b91505092915050565b600061145f83836116d4565b905092915050565b61147081611b8b565b82525050565b61147f81611b8b565b82525050565b61148e81611b79565b82525050565b600061149f82611ac2565b6114a98185611ae5565b9350836020820285016114bb85611ab2565b8060005b858110156114f757848403895281516114d88582611453565b94506114e383611ad8565b925060208a019950506001810190506114bf565b50829750879550505050505092915050565b61151281611b9d565b82525050565b61152181611b9d565b82525050565b600061153282611acd565b61153c8185611b01565b935061154c818560208601611be2565b61155581611d4e565b840191505092915050565b600061156b82611acd565b6115758185611b12565b9350611585818560208601611be2565b61158e81611d4e565b840191505092915050565b60006115a6601a83611b12565b91506115b182611d5f565b602082019050919050565b60006115c9601483611b12565b91506115d482611d88565b602082019050919050565b60006115ec601283611b12565b91506115f782611db1565b602082019050919050565b600061160f601683611b12565b915061161a82611dda565b602082019050919050565b6000611632601e83611b12565b915061163d82611e03565b602082019050919050565b6000611655601983611b12565b915061166082611e2c565b602082019050919050565b6000611678600083611af6565b915061168382611e55565b600082019050919050565b600061169b601083611b12565b91506116a682611e58565b602082019050919050565b60006116be602183611b12565b91506116c982611e81565b604082019050919050565b6000610120830160008301516116ed6000860182611799565b50602083015184820360208601526117058282611527565b915050604083015161171a6040860182611467565b50606083015161172d6060860182611799565b5060808301516117406080860182611799565b5060a083015161175360a0860182611799565b5060c083015161176660c0860182611799565b5060e083015161177960e0860182611799565b5061010083015161178e610100860182611509565b508091505092915050565b6117a281611bc9565b82525050565b6117b181611bc9565b82525050565b60006117c28261166b565b9150819050919050565b60006020820190506117e16000830184611485565b92915050565b60006040820190506117fc6000830185611485565b6118096020830184611518565b9392505050565b6000602082019050818103600083015261182a8184611494565b905092915050565b60006020820190506118476000830184611518565b92915050565b6000602082019050818103600083015261186681611599565b9050919050565b60006020820190508181036000830152611886816115bc565b9050919050565b600060208201905081810360008301526118a6816115df565b9050919050565b600060208201905081810360008301526118c681611602565b9050919050565b600060208201905081810360008301526118e681611625565b9050919050565b6000602082019050818103600083015261190681611648565b9050919050565b600060208201905081810360008301526119268161168e565b9050919050565b60006020820190508181036000830152611946816116b1565b9050919050565b600060208201905061196260008301846117a8565b92915050565b600060408201905061197d60008301856117a8565b61198a6020830184611485565b9392505050565b60006060820190506119a660008301866117a8565b6119b36020830185611485565b6119c060408301846117a8565b949350505050565b6000610120820190506119de600083018c6117a8565b81810360208301526119f0818b611560565b90506119ff604083018a611476565b611a0c60608301896117a8565b611a1960808301886117a8565b611a2660a08301876117a8565b611a3360c08301866117a8565b611a4060e08301856117a8565b611a4e610100830184611518565b9a9950505050505050505050565b6000611a66611a77565b9050611a728282611c47565b919050565b6000604051905090565b600067ffffffffffffffff821115611a9c57611a9b611d1f565b5b611aa582611d4e565b9050602081019050919050565b6000819050602082019050919050565b600081519050919050565b600081519050919050565b6000602082019050919050565b600082825260208201905092915050565b600081905092915050565b600082825260208201905092915050565b600082825260208201905092915050565b6000611b2e82611bc9565b9150611b3983611bc9565b9250827fffffffffffffffffffffffffffffffffffffffffffffffffffffffffffffffff03821115611b6e57611b6d611cc1565b5b828201905092915050565b6000611b8482611ba9565b9050919050565b6000611b9682611ba9565b9050919050565b60008115159050919050565b600073ffffffffffffffffffffffffffffffffffffffff82169050919050565b6000819050919050565b82818337600083830152505050565b60005b83811015611c00578082015181840152602081019050611be5565b83811115611c0f576000848401525b50505050565b60006002820490506001821680611c2d57607f821691505b60208210811415611c4157611c40611cf0565b5b50919050565b611c5082611d4e565b810181811067ffffffffffffffff82111715611c6f57611c6e611d1f565b5b80604052505050565b6000611c8382611bc9565b91507fffffffffffffffffffffffffffffffffffffffffffffffffffffffffffffffff821415611cb657611cb5611cc1565b5b600182019050919050565b7f4e487b7100000000000000000000000000000000000000000000000000000000600052601160045260246000fd5b7f4e487b7100000000000000000000000000000000000000000000000000000000600052602260045260246000fd5b7f4e487b7100000000000000000000000000000000000000000000000000000000600052604160045260246000fd5b6000601f19601f8301169050919050565b7f4e6f74207265676973746572656420617320612073656c6c6572000000000000600082015250565b7f546869732073616c652068617320636c6f736564000000000000000000000000600082015250565b7f416c726561647920726567697374657265640000000000000000000000000000600082015250565b7f54686973206576656e7420697320736f6c64206f757400000000000000000000600082015250565b7f496e73756666696369656e74207472616e73616374696f6e2076616c75650000600082015250565b7f4e6f742072656769737465726564206173206120627579657200000000000000600082015250565b50565b7f5472616e73666572206661696c65642e00000000000000000000000000000000600082015250565b7f596f7527766520616c7265616479207075726368617365642061207469636b6560008201527f7400000000000000000000000000000000000000000000000000000000000000602082015250565b611ed981611b79565b8114611ee457600080fd5b50565b611ef081611bc9565b8114611efb57600080fd5b5056fea2646970667358221220086ef45fe6b9cd929948b931f24da24030cc714edf0c5112415e5b8a0360155c64736f6c63430008040033",
  "immutableReferences": {},
  "source": "// SPDX-License-Identifier: MIT\npragma solidity 0.8.4;\n\ncontract TicketShop {\n  address public owner;\n\n  // I had the idea of using an enum to add phases to the ticket sale (presale, public sale, sale over, etc)\n  // and allow the seller to set how long these phases can last, but decided to keep it simple for now\n\n  struct Event{\n    uint id;\n    string name;\n    address payable seller;\n    uint price;\n    uint supply;\n    uint amountSold;\n    uint saleStart;\n    uint saleEnd;\n    bool soldOut;\n  }\n\n  Event[] public events;\n\n  mapping (address => bool) public isBuyer;\n  mapping (address => bool) public isSeller;\n  mapping (address => uint) public balances;\n  mapping (address => mapping(uint => bool)) public ticketOwned;\n\n  event BuyerRegistered(address buyer, bool status);\n  event SellerRegistered(address seller, bool status);\n  event EventAdded(uint eventId, address seller);\n  event TicketSold(uint eventId, address buyer, uint value);\n\n  modifier onlyBuyer(address _buyer) {\n    require(isBuyer[_buyer] == true, \"Not registered as a buyer\");\n    _;\n  }\n\n  modifier onlySeller(address _seller) {\n    require(isSeller[_seller] == true, \"Not registered as a seller\");\n    _;\n  }\n\n  // Registers the user as a buyer\n  function registerBuyer() external {\n    require(isBuyer[msg.sender] != true, \"Already registered\");\n\n    isBuyer[msg.sender] = true;\n\n    emit BuyerRegistered(msg.sender, isBuyer[msg.sender]);\n  }\n\n  // Registers the user as a seller\n  function registerSeller() external {\n    require(isSeller[msg.sender] != true, \"Already registered\");\n    \n    isSeller[msg.sender] = true;\n\n    emit SellerRegistered(msg.sender, isSeller[msg.sender]);\n  }\n\n  // Allows a seller to create an event\n  function createEvent(string memory _name, uint _price, uint _supply) external onlySeller(msg.sender) {\n    emit EventAdded(events.length, msg.sender);\n\n    events.push(\n      Event(\n        events.length,\n        _name, payable(msg.sender), \n        _price, _supply, \n        0, \n        block.timestamp, \n        block.timestamp + 7 days, \n        false\n      )\n    );    \n  }\n\n  // Allows a buyer to purchase a ticket\n  // For now only allows a buyer to own 1 ticker per event\n  function buyTicket(uint _eventId) external payable onlyBuyer(msg.sender){\n    require(ticketOwned[msg.sender][_eventId] == false, \"You've already purchased a ticket\");\n    require(events[_eventId].soldOut == false, \"This event is sold out\");\n    require(block.timestamp < events[_eventId].saleEnd, \"This sale has closed\");\n    require(msg.value >= events[_eventId].price, \"Insufficient transaction value\");\n\n    ticketOwned[msg.sender][_eventId] = true;\n\n    events[_eventId].amountSold++;\n\n    if(events[_eventId].amountSold == events[_eventId].supply) {\n      events[_eventId].soldOut = true;\n    }\n\n    (bool success, ) = events[_eventId].seller.call{value: events[_eventId].price}(\"\");\n      require(success, \"Transfer failed.\");\n\n    emit TicketSold(_eventId, msg.sender, msg.value);\n  }\n\n  function getEvents() external view returns(Event[] memory) {\n    return events;\n  }\n\n  function getTicketOwned(address _owner, uint _eventId) external view returns(bool) {\n    return ticketOwned[_owner][_eventId];\n  }\n}\n\n",
  "sourcePath": "C:/Users/mkeag/Documents/consensysbootcamp/blockchain-developer-bootcamp-final-project/contracts/TicketShop.sol",
  "compiler": {
    "name": "solc",
    "version": "0.8.4+commit.c7e474f2.Emscripten.clang"
  },
  "schemaVersion": "3.4.1",
  "updatedAt": "2021-11-11T21:21:19.088Z",
  "networkType": "ethereum",
  "devdoc": {
    "kind": "dev",
    "methods": {},
    "version": 1
  },
  "userdoc": {
    "kind": "user",
    "methods": {},
    "version": 1
  }
}