{
  "contractName": "TicketShop",
  "abi": [
    {
      "anonymous": false,
      "inputs": [
        {
          "indexed": false,
          "internalType": "uint256",
          "name": "eventId",
          "type": "uint256"
        },
        {
          "indexed": false,
          "internalType": "address",
          "name": "seller",
          "type": "address"
        }
      ],
      "name": "EventAdded",
      "type": "event"
    },
    {
      "anonymous": false,
      "inputs": [
        {
          "indexed": true,
          "internalType": "address",
          "name": "previousOwner",
          "type": "address"
        },
        {
          "indexed": true,
          "internalType": "address",
          "name": "newOwner",
          "type": "address"
        }
      ],
      "name": "OwnershipTransferred",
      "type": "event"
    },
    {
      "anonymous": false,
      "inputs": [
        {
          "indexed": false,
          "internalType": "address",
          "name": "account",
          "type": "address"
        }
      ],
      "name": "Paused",
      "type": "event"
    },
    {
      "anonymous": false,
      "inputs": [
        {
          "indexed": false,
          "internalType": "address",
          "name": "seller",
          "type": "address"
        },
        {
          "indexed": false,
          "internalType": "bool",
          "name": "status",
          "type": "bool"
        }
      ],
      "name": "SellerRegistered",
      "type": "event"
    },
    {
      "anonymous": false,
      "inputs": [
        {
          "indexed": false,
          "internalType": "uint256",
          "name": "eventId",
          "type": "uint256"
        },
        {
          "indexed": false,
          "internalType": "address",
          "name": "buyer",
          "type": "address"
        },
        {
          "indexed": false,
          "internalType": "uint256",
          "name": "value",
          "type": "uint256"
        }
      ],
      "name": "TicketSold",
      "type": "event"
    },
    {
      "anonymous": false,
      "inputs": [
        {
          "indexed": false,
          "internalType": "address",
          "name": "account",
          "type": "address"
        }
      ],
      "name": "Unpaused",
      "type": "event"
    },
    {
      "inputs": [
        {
          "internalType": "address",
          "name": "",
          "type": "address"
        }
      ],
      "name": "balances",
      "outputs": [
        {
          "internalType": "uint256",
          "name": "",
          "type": "uint256"
        }
      ],
      "stateMutability": "view",
      "type": "function",
      "constant": true
    },
    {
      "inputs": [
        {
          "internalType": "uint256",
          "name": "",
          "type": "uint256"
        }
      ],
      "name": "eventList",
      "outputs": [
        {
          "internalType": "uint256",
          "name": "id",
          "type": "uint256"
        },
        {
          "internalType": "string",
          "name": "name",
          "type": "string"
        },
        {
          "internalType": "address payable",
          "name": "seller",
          "type": "address"
        },
        {
          "internalType": "uint256",
          "name": "price",
          "type": "uint256"
        },
        {
          "internalType": "uint256",
          "name": "supply",
          "type": "uint256"
        },
        {
          "internalType": "uint256",
          "name": "amountSold",
          "type": "uint256"
        },
        {
          "internalType": "uint256",
          "name": "saleStart",
          "type": "uint256"
        },
        {
          "internalType": "uint256",
          "name": "saleEnd",
          "type": "uint256"
        },
        {
          "internalType": "bool",
          "name": "soldOut",
          "type": "bool"
        }
      ],
      "stateMutability": "view",
      "type": "function",
      "constant": true
    },
    {
      "inputs": [
        {
          "internalType": "uint256",
          "name": "",
          "type": "uint256"
        }
      ],
      "name": "events",
      "outputs": [
        {
          "internalType": "uint256",
          "name": "id",
          "type": "uint256"
        },
        {
          "internalType": "string",
          "name": "name",
          "type": "string"
        },
        {
          "internalType": "address payable",
          "name": "seller",
          "type": "address"
        },
        {
          "internalType": "uint256",
          "name": "price",
          "type": "uint256"
        },
        {
          "internalType": "uint256",
          "name": "supply",
          "type": "uint256"
        },
        {
          "internalType": "uint256",
          "name": "amountSold",
          "type": "uint256"
        },
        {
          "internalType": "uint256",
          "name": "saleStart",
          "type": "uint256"
        },
        {
          "internalType": "uint256",
          "name": "saleEnd",
          "type": "uint256"
        },
        {
          "internalType": "bool",
          "name": "soldOut",
          "type": "bool"
        }
      ],
      "stateMutability": "view",
      "type": "function",
      "constant": true
    },
    {
      "inputs": [
        {
          "internalType": "address",
          "name": "",
          "type": "address"
        }
      ],
      "name": "isSeller",
      "outputs": [
        {
          "internalType": "bool",
          "name": "",
          "type": "bool"
        }
      ],
      "stateMutability": "view",
      "type": "function",
      "constant": true
    },
    {
      "inputs": [],
      "name": "owner",
      "outputs": [
        {
          "internalType": "address",
          "name": "",
          "type": "address"
        }
      ],
      "stateMutability": "view",
      "type": "function",
      "constant": true
    },
    {
      "inputs": [],
      "name": "paused",
      "outputs": [
        {
          "internalType": "bool",
          "name": "",
          "type": "bool"
        }
      ],
      "stateMutability": "view",
      "type": "function",
      "constant": true
    },
    {
      "inputs": [],
      "name": "renounceOwnership",
      "outputs": [],
      "stateMutability": "nonpayable",
      "type": "function"
    },
    {
      "inputs": [
        {
          "internalType": "address",
          "name": "",
          "type": "address"
        },
        {
          "internalType": "uint256",
          "name": "",
          "type": "uint256"
        }
      ],
      "name": "ticketOwned",
      "outputs": [
        {
          "internalType": "bool",
          "name": "",
          "type": "bool"
        }
      ],
      "stateMutability": "view",
      "type": "function",
      "constant": true
    },
    {
      "inputs": [
        {
          "internalType": "address",
          "name": "newOwner",
          "type": "address"
        }
      ],
      "name": "transferOwnership",
      "outputs": [],
      "stateMutability": "nonpayable",
      "type": "function"
    },
    {
      "inputs": [],
      "name": "pause",
      "outputs": [],
      "stateMutability": "nonpayable",
      "type": "function"
    },
    {
      "inputs": [],
      "name": "unpause",
      "outputs": [],
      "stateMutability": "nonpayable",
      "type": "function"
    },
    {
      "inputs": [],
      "name": "registerSeller",
      "outputs": [],
      "stateMutability": "nonpayable",
      "type": "function"
    },
    {
      "inputs": [
        {
          "internalType": "string",
          "name": "_name",
          "type": "string"
        },
        {
          "internalType": "uint256",
          "name": "_price",
          "type": "uint256"
        },
        {
          "internalType": "uint256",
          "name": "_supply",
          "type": "uint256"
        }
      ],
      "name": "createEvent",
      "outputs": [],
      "stateMutability": "nonpayable",
      "type": "function"
    },
    {
      "inputs": [
        {
          "internalType": "uint256",
          "name": "_eventId",
          "type": "uint256"
        }
      ],
      "name": "buyTicket",
      "outputs": [],
      "stateMutability": "payable",
      "type": "function",
      "payable": true
    },
    {
      "inputs": [],
      "name": "getEvents",
      "outputs": [
        {
          "components": [
            {
              "internalType": "uint256",
              "name": "id",
              "type": "uint256"
            },
            {
              "internalType": "string",
              "name": "name",
              "type": "string"
            },
            {
              "internalType": "address payable",
              "name": "seller",
              "type": "address"
            },
            {
              "internalType": "uint256",
              "name": "price",
              "type": "uint256"
            },
            {
              "internalType": "uint256",
              "name": "supply",
              "type": "uint256"
            },
            {
              "internalType": "uint256",
              "name": "amountSold",
              "type": "uint256"
            },
            {
              "internalType": "uint256",
              "name": "saleStart",
              "type": "uint256"
            },
            {
              "internalType": "uint256",
              "name": "saleEnd",
              "type": "uint256"
            },
            {
              "internalType": "bool",
              "name": "soldOut",
              "type": "bool"
            }
          ],
          "internalType": "struct TicketShop.Event[]",
          "name": "",
          "type": "tuple[]"
        }
      ],
      "stateMutability": "view",
      "type": "function",
      "constant": true
    },
    {
      "inputs": [
        {
          "internalType": "uint256",
          "name": "_eventId",
          "type": "uint256"
        }
      ],
      "name": "getTicketOwned",
      "outputs": [
        {
          "internalType": "bool",
          "name": "",
          "type": "bool"
        }
      ],
      "stateMutability": "view",
      "type": "function",
      "constant": true
    }
  ],
  "bytecode": "0x60806040523480156200001157600080fd5b5062000032620000266200005260201b60201c565b6200005a60201b60201c565b60008060146101000a81548160ff0219169083151502179055506200011e565b600033905090565b60008060009054906101000a900473ffffffffffffffffffffffffffffffffffffffff169050816000806101000a81548173ffffffffffffffffffffffffffffffffffffffff021916908373ffffffffffffffffffffffffffffffffffffffff1602179055508173ffffffffffffffffffffffffffffffffffffffff168173ffffffffffffffffffffffffffffffffffffffff167f8be0079c531659141344cd1fd0a4f28419497f9722a3daafe3b4186f6b6457e060405160405180910390a35050565b612539806200012e6000396000f3fe6080604052600436106100f35760003560e01c806367dd74ca1161008a5780639e9580f6116100595780639e9580f6146102f5578063b7d15fc41461031e578063ee95feaf1461035b578063f2fde38b14610398576100f3565b806367dd74ca14610280578063715018a61461029c5780638456cb59146102b35780638da5cb5b146102ca576100f3565b8063404aa8f9116100c6578063404aa8f9146101ce578063493280d2146101f957806352c9224c1461023e5780635c975abb14610255576100f3565b80630b791430146100f85780631627495c1461013d57806327e235e31461017a5780633f4ba83a146101b7575b600080fd5b34801561010457600080fd5b5061011f600480360381019061011a91906118c5565b6103c1565b60405161013499989796959493929190611f2c565b60405180910390f35b34801561014957600080fd5b50610164600480360381019061015f91906118c5565b6104c4565b6040516101719190611d36565b60405180910390f35b34801561018657600080fd5b506101a1600480360381019061019c91906117f9565b61052b565b6040516101ae9190611eb1565b60405180910390f35b3480156101c357600080fd5b506101cc610543565b005b3480156101da57600080fd5b506101e36105c9565b6040516101f09190611d14565b60405180910390f35b34801561020557600080fd5b50610220600480360381019061021b91906118c5565b610768565b60405161023599989796959493929190611f2c565b60405180910390f35b34801561024a57600080fd5b5061025361087b565b005b34801561026157600080fd5b5061026a6109ee565b6040516102779190611d36565b60405180910390f35b61029a600480360381019061029591906118c5565b610a04565b005b3480156102a857600080fd5b506102b1610e3b565b005b3480156102bf57600080fd5b506102c8610ec3565b005b3480156102d657600080fd5b506102df610f49565b6040516102ec9190611cd0565b60405180910390f35b34801561030157600080fd5b5061031c6004803603810190610317919061185e565b610f72565b005b34801561032a57600080fd5b5061034560048036038101906103409190611822565b6112e0565b6040516103529190611d36565b60405180910390f35b34801561036757600080fd5b50610382600480360381019061037d91906117f9565b61130f565b60405161038f9190611d36565b60405180910390f35b3480156103a457600080fd5b506103bf60048036038101906103ba91906117f9565b61132f565b005b60066020528060005260406000206000915090508060000154908060010180546103ea90612179565b80601f016020809104026020016040519081016040528092919081815260200182805461041690612179565b80156104635780601f1061043857610100808354040283529160200191610463565b820191906000526020600020905b81548152906001019060200180831161044657829003601f168201915b5050505050908060020160009054906101000a900473ffffffffffffffffffffffffffffffffffffffff16908060030154908060040154908060050154908060060154908060070154908060080160009054906101000a900460ff16905089565b6000600560003373ffffffffffffffffffffffffffffffffffffffff1673ffffffffffffffffffffffffffffffffffffffff168152602001908152602001600020600083815260200190815260200160002060009054906101000a900460ff169050919050565b60046020528060005260406000206000915090505481565b61054b611427565b73ffffffffffffffffffffffffffffffffffffffff16610569610f49565b73ffffffffffffffffffffffffffffffffffffffff16146105bf576040517f08c379a00000000000000000000000000000000000000000000000000000000081526004016105b690611e51565b60405180910390fd5b6105c761142f565b565b60606001805480602002602001604051908101604052809291908181526020016000905b8282101561075f5783829060005260206000209060090201604051806101200160405290816000820154815260200160018201805461062b90612179565b80601f016020809104026020016040519081016040528092919081815260200182805461065790612179565b80156106a45780601f10610679576101008083540402835291602001916106a4565b820191906000526020600020905b81548152906001019060200180831161068757829003601f168201915b505050505081526020016002820160009054906101000a900473ffffffffffffffffffffffffffffffffffffffff1673ffffffffffffffffffffffffffffffffffffffff1673ffffffffffffffffffffffffffffffffffffffff16815260200160038201548152602001600482015481526020016005820154815260200160068201548152602001600782015481526020016008820160009054906101000a900460ff161515151581525050815260200190600101906105ed565b50505050905090565b6001818154811061077857600080fd5b90600052602060002090600902016000915090508060000154908060010180546107a190612179565b80601f01602080910402602001604051908101604052809291908181526020018280546107cd90612179565b801561081a5780601f106107ef5761010080835404028352916020019161081a565b820191906000526020600020905b8154815290600101906020018083116107fd57829003601f168201915b5050505050908060020160009054906101000a900473ffffffffffffffffffffffffffffffffffffffff16908060030154908060040154908060050154908060060154908060070154908060080160009054906101000a900460ff16905089565b60011515600360003373ffffffffffffffffffffffffffffffffffffffff1673ffffffffffffffffffffffffffffffffffffffff16815260200190815260200160002060009054906101000a900460ff161515141561090f576040517f08c379a000000000000000000000000000000000000000000000000000000000815260040161090690611dd1565b60405180910390fd5b6001600360003373ffffffffffffffffffffffffffffffffffffffff1673ffffffffffffffffffffffffffffffffffffffff16815260200190815260200160002060006101000a81548160ff0219169083151502179055507f3860b75e2fd87bc4bd8b62bb4c55616156cf8660108bfe650183fdf40cb2923533600360003373ffffffffffffffffffffffffffffffffffffffff1673ffffffffffffffffffffffffffffffffffffffff16815260200190815260200160002060009054906101000a900460ff166040516109e4929190611ceb565b60405180910390a1565b60008060149054906101000a900460ff16905090565b610a0c6109ee565b15610a4c576040517f08c379a0000000000000000000000000000000000000000000000000000000008152600401610a4390611e31565b60405180910390fd5b60001515600560003373ffffffffffffffffffffffffffffffffffffffff1673ffffffffffffffffffffffffffffffffffffffff168152602001908152602001600020600083815260200190815260200160002060009054906101000a900460ff16151514610af0576040517f08c379a0000000000000000000000000000000000000000000000000000000008152600401610ae790611e91565b60405180910390fd5b600015156006600083815260200190815260200160002060080160009054906101000a900460ff16151514610b5a576040517f08c379a0000000000000000000000000000000000000000000000000000000008152600401610b5190611df1565b60405180910390fd5b60066000828152602001908152602001600020600701544210610bb2576040517f08c379a0000000000000000000000000000000000000000000000000000000008152600401610ba990611d91565b60405180910390fd5b6006600082815260200190815260200160002060030154341015610c0b576040517f08c379a0000000000000000000000000000000000000000000000000000000008152600401610c0290611e11565b60405180910390fd5b6001600560003373ffffffffffffffffffffffffffffffffffffffff1673ffffffffffffffffffffffffffffffffffffffff168152602001908152602001600020600083815260200190815260200160002060006101000a81548160ff021916908315150217905550600660008281526020019081526020016000206005016000815480929190610c9b906121dc565b9190505550600660008281526020019081526020016000206004015460066000838152602001908152602001600020600501541415610d045760016006600083815260200190815260200160002060080160006101000a81548160ff0219169083151502179055505b60006006600083815260200190815260200160002060020160009054906101000a900473ffffffffffffffffffffffffffffffffffffffff1673ffffffffffffffffffffffffffffffffffffffff166006600084815260200190815260200160002060030154604051610d7690611cbb565b60006040518083038185875af1925050503d8060008114610db3576040519150601f19603f3d011682016040523d82523d6000602084013e610db8565b606091505b5050905080610dfc576040517f08c379a0000000000000000000000000000000000000000000000000000000008152600401610df390611e71565b60405180910390fd5b7fbce6612c87f6b5711225ffc4b9f920148cd399de49ba10137fe0d3c531333841823334604051610e2f93929190611ef5565b60405180910390a15050565b610e43611427565b73ffffffffffffffffffffffffffffffffffffffff16610e61610f49565b73ffffffffffffffffffffffffffffffffffffffff1614610eb7576040517f08c379a0000000000000000000000000000000000000000000000000000000008152600401610eae90611e51565b60405180910390fd5b610ec160006114d0565b565b610ecb611427565b73ffffffffffffffffffffffffffffffffffffffff16610ee9610f49565b73ffffffffffffffffffffffffffffffffffffffff1614610f3f576040517f08c379a0000000000000000000000000000000000000000000000000000000008152600401610f3690611e51565b60405180910390fd5b610f47611594565b565b60008060009054906101000a900473ffffffffffffffffffffffffffffffffffffffff16905090565b3360011515600360008373ffffffffffffffffffffffffffffffffffffffff1673ffffffffffffffffffffffffffffffffffffffff16815260200190815260200160002060009054906101000a900460ff16151514611006576040517f08c379a0000000000000000000000000000000000000000000000000000000008152600401610ffd90611d51565b60405180910390fd5b7f22c8faed5969a6808c4706a759d88cc07001fda4c7a81eef86f3f449991161486001805490503360405161103c929190611ecc565b60405180910390a160405180610120016040528060018054905081526020018581526020013373ffffffffffffffffffffffffffffffffffffffff1681526020018481526020018381526020016000815260200142815260200162093a80426110a59190612087565b8152602001600015158152506006600060018054905081526020019081526020016000206000820151816000015560208201518160010190805190602001906110ef929190611637565b5060408201518160020160006101000a81548173ffffffffffffffffffffffffffffffffffffffff021916908373ffffffffffffffffffffffffffffffffffffffff160217905550606082015181600301556080820151816004015560a0820151816005015560c0820151816006015560e082015181600701556101008201518160080160006101000a81548160ff021916908315150217905550905050600160066000600180549050815260200190815260200160002090806001815401808255809150506001900390600052602060002090600902016000909190919091506000820154816000015560018201816001019080546111ee90612179565b6111f99291906116bd565b506002820160009054906101000a900473ffffffffffffffffffffffffffffffffffffffff168160020160006101000a81548173ffffffffffffffffffffffffffffffffffffffff021916908373ffffffffffffffffffffffffffffffffffffffff16021790555060038201548160030155600482015481600401556005820154816005015560068201548160060155600782015481600701556008820160009054906101000a900460ff168160080160006101000a81548160ff0219169083151502179055505050600260008154809291906112d5906121dc565b919050555050505050565b60056020528160005260406000206020528060005260406000206000915091509054906101000a900460ff1681565b60036020528060005260406000206000915054906101000a900460ff1681565b611337611427565b73ffffffffffffffffffffffffffffffffffffffff16611355610f49565b73ffffffffffffffffffffffffffffffffffffffff16146113ab576040517f08c379a00000000000000000000000000000000000000000000000000000000081526004016113a290611e51565b60405180910390fd5b600073ffffffffffffffffffffffffffffffffffffffff168173ffffffffffffffffffffffffffffffffffffffff16141561141b576040517f08c379a000000000000000000000000000000000000000000000000000000000815260040161141290611db1565b60405180910390fd5b611424816114d0565b50565b600033905090565b6114376109ee565b611476576040517f08c379a000000000000000000000000000000000000000000000000000000000815260040161146d90611d71565b60405180910390fd5b60008060146101000a81548160ff0219169083151502179055507f5db9ee0a495bf2e6ff9c91a7834c1ba4fdd244a5e8aa4e537bd38aeae4b073aa6114b9611427565b6040516114c69190611cd0565b60405180910390a1565b60008060009054906101000a900473ffffffffffffffffffffffffffffffffffffffff169050816000806101000a81548173ffffffffffffffffffffffffffffffffffffffff021916908373ffffffffffffffffffffffffffffffffffffffff1602179055508173ffffffffffffffffffffffffffffffffffffffff168173ffffffffffffffffffffffffffffffffffffffff167f8be0079c531659141344cd1fd0a4f28419497f9722a3daafe3b4186f6b6457e060405160405180910390a35050565b61159c6109ee565b156115dc576040517f08c379a00000000000000000000000000000000000000000000000000000000081526004016115d390611e31565b60405180910390fd5b6001600060146101000a81548160ff0219169083151502179055507f62e78cea01bee320cd4e420270b5ea74000d11b0c9f74754ebdbfc544b05a258611620611427565b60405161162d9190611cd0565b60405180910390a1565b82805461164390612179565b90600052602060002090601f01602090048101928261166557600085556116ac565b82601f1061167e57805160ff19168380011785556116ac565b828001600101855582156116ac579182015b828111156116ab578251825591602001919060010190611690565b5b5090506116b9919061174a565b5090565b8280546116c990612179565b90600052602060002090601f0160209004810192826116eb5760008555611739565b82601f106116fc5780548555611739565b8280016001018555821561173957600052602060002091601f016020900482015b8281111561173857825482559160010191906001019061171d565b5b509050611746919061174a565b5090565b5b8082111561176357600081600090555060010161174b565b5090565b600061177a61177584611fe5565b611fc0565b90508281526020810184848401111561179257600080fd5b61179d848285612137565b509392505050565b6000813590506117b4816124d5565b92915050565b600082601f8301126117cb57600080fd5b81356117db848260208601611767565b91505092915050565b6000813590506117f3816124ec565b92915050565b60006020828403121561180b57600080fd5b6000611819848285016117a5565b91505092915050565b6000806040838503121561183557600080fd5b6000611843858286016117a5565b9250506020611854858286016117e4565b9150509250929050565b60008060006060848603121561187357600080fd5b600084013567ffffffffffffffff81111561188d57600080fd5b611899868287016117ba565b93505060206118aa868287016117e4565b92505060406118bb868287016117e4565b9150509250925092565b6000602082840312156118d757600080fd5b60006118e5848285016117e4565b91505092915050565b60006118fa8383611bd8565b905092915050565b61190b816120ef565b82525050565b61191a816120ef565b82525050565b611929816120dd565b82525050565b600061193a82612026565b6119448185612049565b93508360208202850161195685612016565b8060005b85811015611992578484038952815161197385826118ee565b945061197e8361203c565b925060208a0199505060018101905061195a565b50829750879550505050505092915050565b6119ad81612101565b82525050565b6119bc81612101565b82525050565b60006119cd82612031565b6119d78185612065565b93506119e7818560208601612146565b6119f0816122b2565b840191505092915050565b6000611a0682612031565b611a108185612076565b9350611a20818560208601612146565b611a29816122b2565b840191505092915050565b6000611a41601a83612076565b9150611a4c826122c3565b602082019050919050565b6000611a64601483612076565b9150611a6f826122ec565b602082019050919050565b6000611a87601483612076565b9150611a9282612315565b602082019050919050565b6000611aaa602683612076565b9150611ab58261233e565b604082019050919050565b6000611acd601283612076565b9150611ad88261238d565b602082019050919050565b6000611af0601683612076565b9150611afb826123b6565b602082019050919050565b6000611b13601e83612076565b9150611b1e826123df565b602082019050919050565b6000611b36601083612076565b9150611b4182612408565b602082019050919050565b6000611b59602083612076565b9150611b6482612431565b602082019050919050565b6000611b7c60008361205a565b9150611b878261245a565b600082019050919050565b6000611b9f601083612076565b9150611baa8261245d565b602082019050919050565b6000611bc2602183612076565b9150611bcd82612486565b604082019050919050565b600061012083016000830151611bf16000860182611c9d565b5060208301518482036020860152611c0982826119c2565b9150506040830151611c1e6040860182611902565b506060830151611c316060860182611c9d565b506080830151611c446080860182611c9d565b5060a0830151611c5760a0860182611c9d565b5060c0830151611c6a60c0860182611c9d565b5060e0830151611c7d60e0860182611c9d565b50610100830151611c926101008601826119a4565b508091505092915050565b611ca68161212d565b82525050565b611cb58161212d565b82525050565b6000611cc682611b6f565b9150819050919050565b6000602082019050611ce56000830184611920565b92915050565b6000604082019050611d006000830185611920565b611d0d60208301846119b3565b9392505050565b60006020820190508181036000830152611d2e818461192f565b905092915050565b6000602082019050611d4b60008301846119b3565b92915050565b60006020820190508181036000830152611d6a81611a34565b9050919050565b60006020820190508181036000830152611d8a81611a57565b9050919050565b60006020820190508181036000830152611daa81611a7a565b9050919050565b60006020820190508181036000830152611dca81611a9d565b9050919050565b60006020820190508181036000830152611dea81611ac0565b9050919050565b60006020820190508181036000830152611e0a81611ae3565b9050919050565b60006020820190508181036000830152611e2a81611b06565b9050919050565b60006020820190508181036000830152611e4a81611b29565b9050919050565b60006020820190508181036000830152611e6a81611b4c565b9050919050565b60006020820190508181036000830152611e8a81611b92565b9050919050565b60006020820190508181036000830152611eaa81611bb5565b9050919050565b6000602082019050611ec66000830184611cac565b92915050565b6000604082019050611ee16000830185611cac565b611eee6020830184611920565b9392505050565b6000606082019050611f0a6000830186611cac565b611f176020830185611920565b611f246040830184611cac565b949350505050565b600061012082019050611f42600083018c611cac565b8181036020830152611f54818b6119fb565b9050611f63604083018a611911565b611f706060830189611cac565b611f7d6080830188611cac565b611f8a60a0830187611cac565b611f9760c0830186611cac565b611fa460e0830185611cac565b611fb26101008301846119b3565b9a9950505050505050505050565b6000611fca611fdb565b9050611fd682826121ab565b919050565b6000604051905090565b600067ffffffffffffffff82111561200057611fff612283565b5b612009826122b2565b9050602081019050919050565b6000819050602082019050919050565b600081519050919050565b600081519050919050565b6000602082019050919050565b600082825260208201905092915050565b600081905092915050565b600082825260208201905092915050565b600082825260208201905092915050565b60006120928261212d565b915061209d8361212d565b9250827fffffffffffffffffffffffffffffffffffffffffffffffffffffffffffffffff038211156120d2576120d1612225565b5b828201905092915050565b60006120e88261210d565b9050919050565b60006120fa8261210d565b9050919050565b60008115159050919050565b600073ffffffffffffffffffffffffffffffffffffffff82169050919050565b6000819050919050565b82818337600083830152505050565b60005b83811015612164578082015181840152602081019050612149565b83811115612173576000848401525b50505050565b6000600282049050600182168061219157607f821691505b602082108114156121a5576121a4612254565b5b50919050565b6121b4826122b2565b810181811067ffffffffffffffff821117156121d3576121d2612283565b5b80604052505050565b60006121e78261212d565b91507fffffffffffffffffffffffffffffffffffffffffffffffffffffffffffffffff82141561221a57612219612225565b5b600182019050919050565b7f4e487b7100000000000000000000000000000000000000000000000000000000600052601160045260246000fd5b7f4e487b7100000000000000000000000000000000000000000000000000000000600052602260045260246000fd5b7f4e487b7100000000000000000000000000000000000000000000000000000000600052604160045260246000fd5b6000601f19601f8301169050919050565b7f4e6f74207265676973746572656420617320612073656c6c6572000000000000600082015250565b7f5061757361626c653a206e6f7420706175736564000000000000000000000000600082015250565b7f546869732073616c652068617320636c6f736564000000000000000000000000600082015250565b7f4f776e61626c653a206e6577206f776e657220697320746865207a65726f206160008201527f6464726573730000000000000000000000000000000000000000000000000000602082015250565b7f416c726561647920726567697374657265640000000000000000000000000000600082015250565b7f54686973206576656e7420697320736f6c64206f757400000000000000000000600082015250565b7f496e73756666696369656e74207472616e73616374696f6e2076616c75650000600082015250565b7f5061757361626c653a2070617573656400000000000000000000000000000000600082015250565b7f4f776e61626c653a2063616c6c6572206973206e6f7420746865206f776e6572600082015250565b50565b7f5472616e73666572206661696c65642e00000000000000000000000000000000600082015250565b7f596f7527766520616c7265616479207075726368617365642061207469636b6560008201527f7400000000000000000000000000000000000000000000000000000000000000602082015250565b6124de816120dd565b81146124e957600080fd5b50565b6124f58161212d565b811461250057600080fd5b5056fea2646970667358221220ef5e8f35f8f534a67d99a3b6c711fdd3e6df39dd6f8e60ce2911aefd2eb7725e64736f6c63430008040033",
  "immutableReferences": {},
  "source": "// SPDX-License-Identifier: MIT\npragma solidity 0.8.4;\n\nimport '@openzeppelin/contracts/access/Ownable.sol';\nimport '@openzeppelin/contracts/security/Pausable.sol';\n\n  /// @title An event ticket marketplace\n  /** @notice This contract allows users to create events and sell tickets to other users.\n    * Ideally each ticket would be an NFT, but to keep it simple, tickets are just tracked in the Event struct\n  */\n\ncontract TicketShop is Ownable, Pausable {\n\n  /** @dev Using an enum to add phases to the ticket sale (presale, public sale, sale over, etc)\n    * and allow the seller to set how long these phases can last can give the seller more control, \n    * but decided to keep it simple for now\n  */\n  struct Event{\n    uint id;\n    string name;\n    address payable seller;\n    uint price;\n    uint supply;\n    uint amountSold;\n    uint saleStart;\n    uint saleEnd;\n    bool soldOut;\n  }\n\n  Event[] public eventList;\n  uint eventCount;\n\n  mapping (address => bool) public isSeller;\n  mapping (address => uint) public balances;\n  mapping (address => mapping(uint => bool)) public ticketOwned;\n  mapping (uint => Event) public events;\n\n  event SellerRegistered(address seller, bool status);\n  event EventAdded(uint eventId, address seller);\n  event TicketSold(uint eventId, address buyer, uint value);\n\n\n  /// @notice Only permits registered sellers to execute functions\n  /// @dev In the future this would be used for other functions specific to event organizers\n  modifier onlySeller(address _seller) {\n    require(isSeller[_seller] == true, \"Not registered as a seller\");\n    _;\n  }\n\n  function pause() external onlyOwner() {\n    _pause();\n  }\n\n  function unpause() external onlyOwner() {\n    _unpause();\n  }\n\n  /// @notice Registers the user as a seller\n  function registerSeller() external {\n    require(isSeller[msg.sender] != true, \"Already registered\");\n    \n    isSeller[msg.sender] = true;\n\n    emit SellerRegistered(msg.sender, isSeller[msg.sender]);\n  }\n\n  /// @notice Allows a seller to create an event\n  /// @dev Events are added to an array of events\n  function createEvent(string memory _name, uint _price, uint _supply) external onlySeller(msg.sender) {\n    emit EventAdded(eventList.length, msg.sender);\n\n    events[eventList.length] = Event(\n      eventList.length,\n      _name, \n      payable(msg.sender), \n      _price, \n      _supply, \n      0, \n      block.timestamp, \n      block.timestamp + 7 days, \n      false\n    );\n\n    eventList.push(events[eventList.length]);   \n\n    eventCount++; \n  }\n\n  /// @notice Allows a user to purchase a ticket\n  /**  @dev For now only allows a buyer to own 1 ticker per event\n    *  Contract must not be paused\n  */\n  function buyTicket(uint _eventId) external payable whenNotPaused() {\n    require(ticketOwned[msg.sender][_eventId] == false, \"You've already purchased a ticket\");\n    require(events[_eventId].soldOut == false, \"This event is sold out\");\n    require(block.timestamp < events[_eventId].saleEnd, \"This sale has closed\");\n    require(msg.value >= events[_eventId].price, \"Insufficient transaction value\");\n\n    ticketOwned[msg.sender][_eventId] = true;\n\n    events[_eventId].amountSold++;\n\n    if(events[_eventId].amountSold == events[_eventId].supply) {\n      events[_eventId].soldOut = true;\n    }\n\n    (bool success, ) = events[_eventId].seller.call{value: events[_eventId].price}(\"\");\n      require(success, \"Transfer failed.\");\n\n    emit TicketSold(_eventId, msg.sender, msg.value);\n  }\n\n  /// @notice Retrieve all events\n  /// @return An array of Event structs\n  function getEvents() external view returns(Event[] memory) {\n    return eventList;\n  }\n\n  /// @notice Sees if a user is an owner of a ticket for an event\n  /// @return Boolean value representing ticket ownership\n  /// unused\n  function getTicketOwned(uint _eventId) external view returns(bool) {\n    return ticketOwned[msg.sender][_eventId];\n  }\n}\n\n",
  "sourcePath": "C:/Users/mkeag/Documents/consensysbootcamp/blockchain-developer-bootcamp-final-project/contracts/TicketShop.sol",
  "compiler": {
    "name": "solc",
    "version": "0.8.4+commit.c7e474f2.Emscripten.clang"
  },
  "schemaVersion": "3.4.1",
  "updatedAt": "2021-11-19T16:51:20.310Z",
  "networkType": "ethereum",
  "devdoc": {
    "kind": "dev",
    "methods": {
      "buyTicket(uint256)": {
        "details": "For now only allows a buyer to own 1 ticker per event  Contract must not be paused"
      },
      "createEvent(string,uint256,uint256)": {
        "details": "Events are added to an array of events"
      },
      "getEvents()": {
        "returns": {
          "_0": "An array of Event structs"
        }
      },
      "getTicketOwned(uint256)": {
        "returns": {
          "_0": "Boolean value representing ticket ownership unused"
        }
      },
      "owner()": {
        "details": "Returns the address of the current owner."
      },
      "paused()": {
        "details": "Returns true if the contract is paused, and false otherwise."
      },
      "renounceOwnership()": {
        "details": "Leaves the contract without owner. It will not be possible to call `onlyOwner` functions anymore. Can only be called by the current owner. NOTE: Renouncing ownership will leave the contract without an owner, thereby removing any functionality that is only available to the owner."
      },
      "transferOwnership(address)": {
        "details": "Transfers ownership of the contract to a new account (`newOwner`). Can only be called by the current owner."
      }
    },
    "version": 1
  },
  "userdoc": {
    "kind": "user",
    "methods": {
      "createEvent(string,uint256,uint256)": {
        "notice": "Allows a seller to create an event"
      },
      "getEvents()": {
        "notice": "Retrieve all events"
      },
      "getTicketOwned(uint256)": {
        "notice": "Sees if a user is an owner of a ticket for an event"
      },
      "registerSeller()": {
        "notice": "Registers the user as a seller"
      }
    },
    "notice": "This contract allows users to create events and sell tickets to other users. Ideally each ticket would be an NFT, but to keep it simple, tickets are just tracked in the Event struct",
    "version": 1
  }
}