{
  "contractName": "TicketShop",
  "abi": [
    {
      "anonymous": false,
      "inputs": [
        {
          "indexed": false,
          "internalType": "uint256",
          "name": "eventId",
          "type": "uint256"
        },
        {
          "indexed": false,
          "internalType": "address",
          "name": "seller",
          "type": "address"
        }
      ],
      "name": "EventAdded",
      "type": "event"
    },
    {
      "anonymous": false,
      "inputs": [
        {
          "indexed": false,
          "internalType": "address",
          "name": "seller",
          "type": "address"
        },
        {
          "indexed": false,
          "internalType": "bool",
          "name": "status",
          "type": "bool"
        }
      ],
      "name": "SellerRegistered",
      "type": "event"
    },
    {
      "anonymous": false,
      "inputs": [
        {
          "indexed": false,
          "internalType": "uint256",
          "name": "eventId",
          "type": "uint256"
        },
        {
          "indexed": false,
          "internalType": "address",
          "name": "buyer",
          "type": "address"
        },
        {
          "indexed": false,
          "internalType": "uint256",
          "name": "value",
          "type": "uint256"
        }
      ],
      "name": "TicketSold",
      "type": "event"
    },
    {
      "inputs": [
        {
          "internalType": "address",
          "name": "",
          "type": "address"
        }
      ],
      "name": "balances",
      "outputs": [
        {
          "internalType": "uint256",
          "name": "",
          "type": "uint256"
        }
      ],
      "stateMutability": "view",
      "type": "function",
      "constant": true
    },
    {
      "inputs": [
        {
          "internalType": "uint256",
          "name": "",
          "type": "uint256"
        }
      ],
      "name": "eventList",
      "outputs": [
        {
          "internalType": "uint256",
          "name": "id",
          "type": "uint256"
        },
        {
          "internalType": "string",
          "name": "name",
          "type": "string"
        },
        {
          "internalType": "address payable",
          "name": "seller",
          "type": "address"
        },
        {
          "internalType": "uint256",
          "name": "price",
          "type": "uint256"
        },
        {
          "internalType": "uint256",
          "name": "supply",
          "type": "uint256"
        },
        {
          "internalType": "uint256",
          "name": "amountSold",
          "type": "uint256"
        },
        {
          "internalType": "uint256",
          "name": "saleStart",
          "type": "uint256"
        },
        {
          "internalType": "uint256",
          "name": "saleEnd",
          "type": "uint256"
        },
        {
          "internalType": "bool",
          "name": "soldOut",
          "type": "bool"
        }
      ],
      "stateMutability": "view",
      "type": "function",
      "constant": true
    },
    {
      "inputs": [
        {
          "internalType": "uint256",
          "name": "",
          "type": "uint256"
        }
      ],
      "name": "events",
      "outputs": [
        {
          "internalType": "uint256",
          "name": "id",
          "type": "uint256"
        },
        {
          "internalType": "string",
          "name": "name",
          "type": "string"
        },
        {
          "internalType": "address payable",
          "name": "seller",
          "type": "address"
        },
        {
          "internalType": "uint256",
          "name": "price",
          "type": "uint256"
        },
        {
          "internalType": "uint256",
          "name": "supply",
          "type": "uint256"
        },
        {
          "internalType": "uint256",
          "name": "amountSold",
          "type": "uint256"
        },
        {
          "internalType": "uint256",
          "name": "saleStart",
          "type": "uint256"
        },
        {
          "internalType": "uint256",
          "name": "saleEnd",
          "type": "uint256"
        },
        {
          "internalType": "bool",
          "name": "soldOut",
          "type": "bool"
        }
      ],
      "stateMutability": "view",
      "type": "function",
      "constant": true
    },
    {
      "inputs": [
        {
          "internalType": "address",
          "name": "",
          "type": "address"
        }
      ],
      "name": "isSeller",
      "outputs": [
        {
          "internalType": "bool",
          "name": "",
          "type": "bool"
        }
      ],
      "stateMutability": "view",
      "type": "function",
      "constant": true
    },
    {
      "inputs": [],
      "name": "owner",
      "outputs": [
        {
          "internalType": "address",
          "name": "",
          "type": "address"
        }
      ],
      "stateMutability": "view",
      "type": "function",
      "constant": true
    },
    {
      "inputs": [
        {
          "internalType": "address",
          "name": "",
          "type": "address"
        },
        {
          "internalType": "uint256",
          "name": "",
          "type": "uint256"
        }
      ],
      "name": "ticketOwned",
      "outputs": [
        {
          "internalType": "bool",
          "name": "",
          "type": "bool"
        }
      ],
      "stateMutability": "view",
      "type": "function",
      "constant": true
    },
    {
      "inputs": [],
      "name": "registerSeller",
      "outputs": [],
      "stateMutability": "nonpayable",
      "type": "function"
    },
    {
      "inputs": [
        {
          "internalType": "string",
          "name": "_name",
          "type": "string"
        },
        {
          "internalType": "uint256",
          "name": "_price",
          "type": "uint256"
        },
        {
          "internalType": "uint256",
          "name": "_supply",
          "type": "uint256"
        }
      ],
      "name": "createEvent",
      "outputs": [],
      "stateMutability": "nonpayable",
      "type": "function"
    },
    {
      "inputs": [
        {
          "internalType": "uint256",
          "name": "_eventId",
          "type": "uint256"
        }
      ],
      "name": "buyTicket",
      "outputs": [],
      "stateMutability": "payable",
      "type": "function",
      "payable": true
    },
    {
      "inputs": [],
      "name": "getEvents",
      "outputs": [
        {
          "components": [
            {
              "internalType": "uint256",
              "name": "id",
              "type": "uint256"
            },
            {
              "internalType": "string",
              "name": "name",
              "type": "string"
            },
            {
              "internalType": "address payable",
              "name": "seller",
              "type": "address"
            },
            {
              "internalType": "uint256",
              "name": "price",
              "type": "uint256"
            },
            {
              "internalType": "uint256",
              "name": "supply",
              "type": "uint256"
            },
            {
              "internalType": "uint256",
              "name": "amountSold",
              "type": "uint256"
            },
            {
              "internalType": "uint256",
              "name": "saleStart",
              "type": "uint256"
            },
            {
              "internalType": "uint256",
              "name": "saleEnd",
              "type": "uint256"
            },
            {
              "internalType": "bool",
              "name": "soldOut",
              "type": "bool"
            }
          ],
          "internalType": "struct TicketShop.Event[]",
          "name": "",
          "type": "tuple[]"
        }
      ],
      "stateMutability": "view",
      "type": "function",
      "constant": true
    },
    {
      "inputs": [
        {
          "internalType": "address",
          "name": "_owner",
          "type": "address"
        },
        {
          "internalType": "uint256",
          "name": "_eventId",
          "type": "uint256"
        }
      ],
      "name": "getTicketOwned",
      "outputs": [
        {
          "internalType": "bool",
          "name": "",
          "type": "bool"
        }
      ],
      "stateMutability": "view",
      "type": "function",
      "constant": true
    }
  ],
  "bytecode": "0x608060405234801561001057600080fd5b50611d5d806100206000396000f3fe60806040526004361061009c5760003560e01c806367dd74ca1161006457806367dd74ca146101aa5780638b1ed716146101c65780638da5cb5b146102035780639e9580f61461022e578063b7d15fc414610257578063ee95feaf146102945761009c565b80630b791430146100a157806327e235e3146100e6578063404aa8f914610123578063493280d21461014e57806352c9224c14610193575b600080fd5b3480156100ad57600080fd5b506100c860048036038101906100c391906112bf565b6102d1565b6040516100dd9998979695949392919061181a565b60405180910390f35b3480156100f257600080fd5b5061010d600480360381019061010891906111f3565b6103d4565b60405161011a919061179f565b60405180910390f35b34801561012f57600080fd5b506101386103ec565b6040516101459190611682565b60405180910390f35b34801561015a57600080fd5b50610175600480360381019061017091906112bf565b61058b565b60405161018a9998979695949392919061181a565b60405180910390f35b34801561019f57600080fd5b506101a861069e565b005b6101c460048036038101906101bf91906112bf565b610811565b005b3480156101d257600080fd5b506101ed60048036038101906101e8919061121c565b610c00565b6040516101fa91906116a4565b60405180910390f35b34801561020f57600080fd5b50610218610c68565b604051610225919061163e565b60405180910390f35b34801561023a57600080fd5b5061025560048036038101906102509190611258565b610c8c565b005b34801561026357600080fd5b5061027e6004803603810190610279919061121c565b610fe2565b60405161028b91906116a4565b60405180910390f35b3480156102a057600080fd5b506102bb60048036038101906102b691906111f3565b611011565b6040516102c891906116a4565b60405180910390f35b60056020528060005260406000206000915090508060000154908060010180546102fa90611a67565b80601f016020809104026020016040519081016040528092919081815260200182805461032690611a67565b80156103735780601f1061034857610100808354040283529160200191610373565b820191906000526020600020905b81548152906001019060200180831161035657829003601f168201915b5050505050908060020160009054906101000a900473ffffffffffffffffffffffffffffffffffffffff16908060030154908060040154908060050154908060060154908060070154908060080160009054906101000a900460ff16905089565b60036020528060005260406000206000915090505481565b60606001805480602002602001604051908101604052809291908181526020016000905b828210156105825783829060005260206000209060090201604051806101200160405290816000820154815260200160018201805461044e90611a67565b80601f016020809104026020016040519081016040528092919081815260200182805461047a90611a67565b80156104c75780601f1061049c576101008083540402835291602001916104c7565b820191906000526020600020905b8154815290600101906020018083116104aa57829003601f168201915b505050505081526020016002820160009054906101000a900473ffffffffffffffffffffffffffffffffffffffff1673ffffffffffffffffffffffffffffffffffffffff1673ffffffffffffffffffffffffffffffffffffffff16815260200160038201548152602001600482015481526020016005820154815260200160068201548152602001600782015481526020016008820160009054906101000a900460ff16151515158152505081526020019060010190610410565b50505050905090565b6001818154811061059b57600080fd5b90600052602060002090600902016000915090508060000154908060010180546105c490611a67565b80601f01602080910402602001604051908101604052809291908181526020018280546105f090611a67565b801561063d5780601f106106125761010080835404028352916020019161063d565b820191906000526020600020905b81548152906001019060200180831161062057829003601f168201915b5050505050908060020160009054906101000a900473ffffffffffffffffffffffffffffffffffffffff16908060030154908060040154908060050154908060060154908060070154908060080160009054906101000a900460ff16905089565b60011515600260003373ffffffffffffffffffffffffffffffffffffffff1673ffffffffffffffffffffffffffffffffffffffff16815260200190815260200160002060009054906101000a900460ff1615151415610732576040517f08c379a0000000000000000000000000000000000000000000000000000000008152600401610729906116ff565b60405180910390fd5b6001600260003373ffffffffffffffffffffffffffffffffffffffff1673ffffffffffffffffffffffffffffffffffffffff16815260200190815260200160002060006101000a81548160ff0219169083151502179055507f3860b75e2fd87bc4bd8b62bb4c55616156cf8660108bfe650183fdf40cb2923533600260003373ffffffffffffffffffffffffffffffffffffffff1673ffffffffffffffffffffffffffffffffffffffff16815260200190815260200160002060009054906101000a900460ff16604051610807929190611659565b60405180910390a1565b60001515600460003373ffffffffffffffffffffffffffffffffffffffff1673ffffffffffffffffffffffffffffffffffffffff168152602001908152602001600020600083815260200190815260200160002060009054906101000a900460ff161515146108b5576040517f08c379a00000000000000000000000000000000000000000000000000000000081526004016108ac9061177f565b60405180910390fd5b600015156005600083815260200190815260200160002060080160009054906101000a900460ff1615151461091f576040517f08c379a00000000000000000000000000000000000000000000000000000000081526004016109169061171f565b60405180910390fd5b60056000828152602001908152602001600020600701544210610977576040517f08c379a000000000000000000000000000000000000000000000000000000000815260040161096e906116df565b60405180910390fd5b60056000828152602001908152602001600020600301543410156109d0576040517f08c379a00000000000000000000000000000000000000000000000000000000081526004016109c79061173f565b60405180910390fd5b6001600460003373ffffffffffffffffffffffffffffffffffffffff1673ffffffffffffffffffffffffffffffffffffffff168152602001908152602001600020600083815260200190815260200160002060006101000a81548160ff021916908315150217905550600560008281526020019081526020016000206005016000815480929190610a6090611aca565b9190505550600560008281526020019081526020016000206004015460056000838152602001908152602001600020600501541415610ac95760016005600083815260200190815260200160002060080160006101000a81548160ff0219169083151502179055505b60006005600083815260200190815260200160002060020160009054906101000a900473ffffffffffffffffffffffffffffffffffffffff1673ffffffffffffffffffffffffffffffffffffffff166005600084815260200190815260200160002060030154604051610b3b90611629565b60006040518083038185875af1925050503d8060008114610b78576040519150601f19603f3d011682016040523d82523d6000602084013e610b7d565b606091505b5050905080610bc1576040517f08c379a0000000000000000000000000000000000000000000000000000000008152600401610bb89061175f565b60405180910390fd5b7fbce6612c87f6b5711225ffc4b9f920148cd399de49ba10137fe0d3c531333841823334604051610bf4939291906117e3565b60405180910390a15050565b6000600460008473ffffffffffffffffffffffffffffffffffffffff1673ffffffffffffffffffffffffffffffffffffffff168152602001908152602001600020600083815260200190815260200160002060009054906101000a900460ff16905092915050565b60008054906101000a900473ffffffffffffffffffffffffffffffffffffffff1681565b3360011515600260008373ffffffffffffffffffffffffffffffffffffffff1673ffffffffffffffffffffffffffffffffffffffff16815260200190815260200160002060009054906101000a900460ff16151514610d20576040517f08c379a0000000000000000000000000000000000000000000000000000000008152600401610d17906116bf565b60405180910390fd5b7f22c8faed5969a6808c4706a759d88cc07001fda4c7a81eef86f3f4499911614860018054905033604051610d569291906117ba565b60405180910390a160405180610120016040528060018054905081526020018581526020013373ffffffffffffffffffffffffffffffffffffffff1681526020018481526020018381526020016000815260200142815260200162093a8042610dbf9190611975565b815260200160001515815250600560006001805490508152602001908152602001600020600082015181600001556020820151816001019080519060200190610e09929190611031565b5060408201518160020160006101000a81548173ffffffffffffffffffffffffffffffffffffffff021916908373ffffffffffffffffffffffffffffffffffffffff160217905550606082015181600301556080820151816004015560a0820151816005015560c0820151816006015560e082015181600701556101008201518160080160006101000a81548160ff02191690831515021790555090505060016005600060018054905081526020019081526020016000209080600181540180825580915050600190039060005260206000209060090201600090919091909150600082015481600001556001820181600101908054610f0890611a67565b610f139291906110b7565b506002820160009054906101000a900473ffffffffffffffffffffffffffffffffffffffff168160020160006101000a81548173ffffffffffffffffffffffffffffffffffffffff021916908373ffffffffffffffffffffffffffffffffffffffff16021790555060038201548160030155600482015481600401556005820154816005015560068201548160060155600782015481600701556008820160009054906101000a900460ff168160080160006101000a81548160ff021916908315150217905550505050505050565b60046020528160005260406000206020528060005260406000206000915091509054906101000a900460ff1681565b60026020528060005260406000206000915054906101000a900460ff1681565b82805461103d90611a67565b90600052602060002090601f01602090048101928261105f57600085556110a6565b82601f1061107857805160ff19168380011785556110a6565b828001600101855582156110a6579182015b828111156110a557825182559160200191906001019061108a565b5b5090506110b39190611144565b5090565b8280546110c390611a67565b90600052602060002090601f0160209004810192826110e55760008555611133565b82601f106110f65780548555611133565b8280016001018555821561113357600052602060002091601f016020900482015b82811115611132578254825591600101919060010190611117565b5b5090506111409190611144565b5090565b5b8082111561115d576000816000905550600101611145565b5090565b600061117461116f846118d3565b6118ae565b90508281526020810184848401111561118c57600080fd5b611197848285611a25565b509392505050565b6000813590506111ae81611cf9565b92915050565b600082601f8301126111c557600080fd5b81356111d5848260208601611161565b91505092915050565b6000813590506111ed81611d10565b92915050565b60006020828403121561120557600080fd5b60006112138482850161119f565b91505092915050565b6000806040838503121561122f57600080fd5b600061123d8582860161119f565b925050602061124e858286016111de565b9150509250929050565b60008060006060848603121561126d57600080fd5b600084013567ffffffffffffffff81111561128757600080fd5b611293868287016111b4565b93505060206112a4868287016111de565b92505060406112b5868287016111de565b9150509250925092565b6000602082840312156112d157600080fd5b60006112df848285016111de565b91505092915050565b60006112f48383611546565b905092915050565b611305816119dd565b82525050565b611314816119dd565b82525050565b611323816119cb565b82525050565b600061133482611914565b61133e8185611937565b93508360208202850161135085611904565b8060005b8581101561138c578484038952815161136d85826112e8565b94506113788361192a565b925060208a01995050600181019050611354565b50829750879550505050505092915050565b6113a7816119ef565b82525050565b6113b6816119ef565b82525050565b60006113c78261191f565b6113d18185611953565b93506113e1818560208601611a34565b6113ea81611ba0565b840191505092915050565b60006114008261191f565b61140a8185611964565b935061141a818560208601611a34565b61142381611ba0565b840191505092915050565b600061143b601a83611964565b915061144682611bb1565b602082019050919050565b600061145e601483611964565b915061146982611bda565b602082019050919050565b6000611481601283611964565b915061148c82611c03565b602082019050919050565b60006114a4601683611964565b91506114af82611c2c565b602082019050919050565b60006114c7601e83611964565b91506114d282611c55565b602082019050919050565b60006114ea600083611948565b91506114f582611c7e565b600082019050919050565b600061150d601083611964565b915061151882611c81565b602082019050919050565b6000611530602183611964565b915061153b82611caa565b604082019050919050565b60006101208301600083015161155f600086018261160b565b506020830151848203602086015261157782826113bc565b915050604083015161158c60408601826112fc565b50606083015161159f606086018261160b565b5060808301516115b2608086018261160b565b5060a08301516115c560a086018261160b565b5060c08301516115d860c086018261160b565b5060e08301516115eb60e086018261160b565b5061010083015161160061010086018261139e565b508091505092915050565b61161481611a1b565b82525050565b61162381611a1b565b82525050565b6000611634826114dd565b9150819050919050565b6000602082019050611653600083018461131a565b92915050565b600060408201905061166e600083018561131a565b61167b60208301846113ad565b9392505050565b6000602082019050818103600083015261169c8184611329565b905092915050565b60006020820190506116b960008301846113ad565b92915050565b600060208201905081810360008301526116d88161142e565b9050919050565b600060208201905081810360008301526116f881611451565b9050919050565b6000602082019050818103600083015261171881611474565b9050919050565b6000602082019050818103600083015261173881611497565b9050919050565b60006020820190508181036000830152611758816114ba565b9050919050565b6000602082019050818103600083015261177881611500565b9050919050565b6000602082019050818103600083015261179881611523565b9050919050565b60006020820190506117b4600083018461161a565b92915050565b60006040820190506117cf600083018561161a565b6117dc602083018461131a565b9392505050565b60006060820190506117f8600083018661161a565b611805602083018561131a565b611812604083018461161a565b949350505050565b600061012082019050611830600083018c61161a565b8181036020830152611842818b6113f5565b9050611851604083018a61130b565b61185e606083018961161a565b61186b608083018861161a565b61187860a083018761161a565b61188560c083018661161a565b61189260e083018561161a565b6118a06101008301846113ad565b9a9950505050505050505050565b60006118b86118c9565b90506118c48282611a99565b919050565b6000604051905090565b600067ffffffffffffffff8211156118ee576118ed611b71565b5b6118f782611ba0565b9050602081019050919050565b6000819050602082019050919050565b600081519050919050565b600081519050919050565b6000602082019050919050565b600082825260208201905092915050565b600081905092915050565b600082825260208201905092915050565b600082825260208201905092915050565b600061198082611a1b565b915061198b83611a1b565b9250827fffffffffffffffffffffffffffffffffffffffffffffffffffffffffffffffff038211156119c0576119bf611b13565b5b828201905092915050565b60006119d6826119fb565b9050919050565b60006119e8826119fb565b9050919050565b60008115159050919050565b600073ffffffffffffffffffffffffffffffffffffffff82169050919050565b6000819050919050565b82818337600083830152505050565b60005b83811015611a52578082015181840152602081019050611a37565b83811115611a61576000848401525b50505050565b60006002820490506001821680611a7f57607f821691505b60208210811415611a9357611a92611b42565b5b50919050565b611aa282611ba0565b810181811067ffffffffffffffff82111715611ac157611ac0611b71565b5b80604052505050565b6000611ad582611a1b565b91507fffffffffffffffffffffffffffffffffffffffffffffffffffffffffffffffff821415611b0857611b07611b13565b5b600182019050919050565b7f4e487b7100000000000000000000000000000000000000000000000000000000600052601160045260246000fd5b7f4e487b7100000000000000000000000000000000000000000000000000000000600052602260045260246000fd5b7f4e487b7100000000000000000000000000000000000000000000000000000000600052604160045260246000fd5b6000601f19601f8301169050919050565b7f4e6f74207265676973746572656420617320612073656c6c6572000000000000600082015250565b7f546869732073616c652068617320636c6f736564000000000000000000000000600082015250565b7f416c726561647920726567697374657265640000000000000000000000000000600082015250565b7f54686973206576656e7420697320736f6c64206f757400000000000000000000600082015250565b7f496e73756666696369656e74207472616e73616374696f6e2076616c75650000600082015250565b50565b7f5472616e73666572206661696c65642e00000000000000000000000000000000600082015250565b7f596f7527766520616c7265616479207075726368617365642061207469636b6560008201527f7400000000000000000000000000000000000000000000000000000000000000602082015250565b611d02816119cb565b8114611d0d57600080fd5b50565b611d1981611a1b565b8114611d2457600080fd5b5056fea2646970667358221220e8b2b003152c333038e88a80480be886696501913ba3e241eaa2e9dcabdd333264736f6c63430008040033",
  "immutableReferences": {},
  "source": "// SPDX-License-Identifier: MIT\npragma solidity 0.8.4;\n\n  /// @title An event ticket marketplace\n  /** @notice This contract allows users to create events and sell tickets to other users.\n      Ideally each ticket would be an NFT, but to keep it simple, tickets are just tracked in the Event struct\n  */\n\ncontract TicketShop {\n  address public owner;\n\n  /** @dev Using an enum to add phases to the ticket sale (presale, public sale, sale over, etc)\n      and allow the seller to set how long these phases can last can give the seller more control, \n      but decided to keep it simple for now\n  */\n  struct Event{\n    uint id;\n    string name;\n    address payable seller;\n    uint price;\n    uint supply;\n    uint amountSold;\n    uint saleStart;\n    uint saleEnd;\n    bool soldOut;\n  }\n\n  Event[] public eventList;\n\n  mapping (address => bool) public isSeller;\n  mapping (address => uint) public balances;\n  mapping (address => mapping(uint => bool)) public ticketOwned;\n  mapping (uint => Event) public events;\n\n  event SellerRegistered(address seller, bool status);\n  event EventAdded(uint eventId, address seller);\n  event TicketSold(uint eventId, address buyer, uint value);\n\n\n  /// @notice Only permits registered sellers to execute functions\n  /// @dev In the future this would be used for other functions specific to event organizers\n  modifier onlySeller(address _seller) {\n    require(isSeller[_seller] == true, \"Not registered as a seller\");\n    _;\n  }\n\n  /// @notice Registers the user as a seller\n  function registerSeller() external {\n    require(isSeller[msg.sender] != true, \"Already registered\");\n    \n    isSeller[msg.sender] = true;\n\n    emit SellerRegistered(msg.sender, isSeller[msg.sender]);\n  }\n\n  /// @notice Allows a seller to create an event\n  /// @dev Events are added to an array of events\n  function createEvent(string memory _name, uint _price, uint _supply) external onlySeller(msg.sender) {\n    emit EventAdded(eventList.length, msg.sender);\n\n    events[eventList.length] = Event(\n      eventList.length,\n      _name, \n      payable(msg.sender), \n      _price, \n      _supply, \n      0, \n      block.timestamp, \n      block.timestamp + 7 days, \n      false\n    );\n\n    eventList.push(events[eventList.length]);    \n  }\n\n  /// @notice Allows a user to purchase a ticket\n  /// @dev For now only allows a buyer to own 1 ticker per event\n  function buyTicket(uint _eventId) external payable {\n    require(ticketOwned[msg.sender][_eventId] == false, \"You've already purchased a ticket\");\n    require(events[_eventId].soldOut == false, \"This event is sold out\");\n    require(block.timestamp < events[_eventId].saleEnd, \"This sale has closed\");\n    require(msg.value >= events[_eventId].price, \"Insufficient transaction value\");\n\n    ticketOwned[msg.sender][_eventId] = true;\n\n    events[_eventId].amountSold++;\n\n    if(events[_eventId].amountSold == events[_eventId].supply) {\n      events[_eventId].soldOut = true;\n    }\n\n    (bool success, ) = events[_eventId].seller.call{value: events[_eventId].price}(\"\");\n      require(success, \"Transfer failed.\");\n\n    emit TicketSold(_eventId, msg.sender, msg.value);\n  }\n\n  /// @notice Retrieve all events\n  /// @return An array of Event structs\n  function getEvents() external view returns(Event[] memory) {\n    return eventList;\n  }\n\n  /// @notice Sees if a user is an owner of a ticket for an event\n  /// @return Boolean value representing ticket ownership\n  function getTicketOwned(address _owner, uint _eventId) external view returns(bool) {\n    return ticketOwned[_owner][_eventId];\n  }\n}\n\n",
  "sourcePath": "C:/Users/mkeag/Documents/consensysbootcamp/blockchain-developer-bootcamp-final-project/contracts/TicketShop.sol",
  "compiler": {
    "name": "solc",
    "version": "0.8.4+commit.c7e474f2.Emscripten.clang"
  },
  "schemaVersion": "3.4.1",
  "updatedAt": "2021-11-13T02:54:54.495Z",
  "networkType": "ethereum",
  "devdoc": {
    "kind": "dev",
    "methods": {
      "buyTicket(uint256)": {
        "details": "For now only allows a buyer to own 1 ticker per event"
      },
      "createEvent(string,uint256,uint256)": {
        "details": "Events are added to an array of events"
      },
      "getEvents()": {
        "returns": {
          "_0": "An array of Event structs"
        }
      },
      "getTicketOwned(address,uint256)": {
        "returns": {
          "_0": "Boolean value representing ticket ownership"
        }
      }
    },
    "version": 1
  },
  "userdoc": {
    "kind": "user",
    "methods": {
      "buyTicket(uint256)": {
        "notice": "Allows a user to purchase a ticket"
      },
      "createEvent(string,uint256,uint256)": {
        "notice": "Allows a seller to create an event"
      },
      "getEvents()": {
        "notice": "Retrieve all events"
      },
      "getTicketOwned(address,uint256)": {
        "notice": "Sees if a user is an owner of a ticket for an event"
      },
      "registerSeller()": {
        "notice": "Registers the user as a seller"
      }
    },
    "notice": "This contract allows users to create events and sell tickets to other users. Ideally each ticket would be an NFT, but to keep it simple, tickets are just tracked in the Event struct",
    "version": 1
  }
}