{
  "contractName": "TicketShop",
  "abi": [
    {
      "anonymous": false,
      "inputs": [
        {
          "indexed": false,
          "internalType": "uint256",
          "name": "eventId",
          "type": "uint256"
        },
        {
          "indexed": false,
          "internalType": "address",
          "name": "seller",
          "type": "address"
        }
      ],
      "name": "EventAdded",
      "type": "event"
    },
    {
      "anonymous": false,
      "inputs": [
        {
          "indexed": true,
          "internalType": "address",
          "name": "previousOwner",
          "type": "address"
        },
        {
          "indexed": true,
          "internalType": "address",
          "name": "newOwner",
          "type": "address"
        }
      ],
      "name": "OwnershipTransferred",
      "type": "event"
    },
    {
      "anonymous": false,
      "inputs": [
        {
          "indexed": false,
          "internalType": "address",
          "name": "account",
          "type": "address"
        }
      ],
      "name": "Paused",
      "type": "event"
    },
    {
      "anonymous": false,
      "inputs": [
        {
          "indexed": false,
          "internalType": "address",
          "name": "seller",
          "type": "address"
        },
        {
          "indexed": false,
          "internalType": "bool",
          "name": "status",
          "type": "bool"
        }
      ],
      "name": "SellerRegistered",
      "type": "event"
    },
    {
      "anonymous": false,
      "inputs": [
        {
          "indexed": false,
          "internalType": "uint256",
          "name": "eventId",
          "type": "uint256"
        },
        {
          "indexed": false,
          "internalType": "address",
          "name": "buyer",
          "type": "address"
        },
        {
          "indexed": false,
          "internalType": "uint256",
          "name": "value",
          "type": "uint256"
        }
      ],
      "name": "TicketSold",
      "type": "event"
    },
    {
      "anonymous": false,
      "inputs": [
        {
          "indexed": false,
          "internalType": "address",
          "name": "account",
          "type": "address"
        }
      ],
      "name": "Unpaused",
      "type": "event"
    },
    {
      "inputs": [
        {
          "internalType": "address",
          "name": "",
          "type": "address"
        }
      ],
      "name": "balances",
      "outputs": [
        {
          "internalType": "uint256",
          "name": "",
          "type": "uint256"
        }
      ],
      "stateMutability": "view",
      "type": "function",
      "constant": true
    },
    {
      "inputs": [
        {
          "internalType": "uint256",
          "name": "",
          "type": "uint256"
        }
      ],
      "name": "eventList",
      "outputs": [
        {
          "internalType": "uint256",
          "name": "id",
          "type": "uint256"
        },
        {
          "internalType": "string",
          "name": "name",
          "type": "string"
        },
        {
          "internalType": "address payable",
          "name": "seller",
          "type": "address"
        },
        {
          "internalType": "uint256",
          "name": "price",
          "type": "uint256"
        },
        {
          "internalType": "uint256",
          "name": "supply",
          "type": "uint256"
        },
        {
          "internalType": "uint256",
          "name": "amountSold",
          "type": "uint256"
        },
        {
          "internalType": "uint256",
          "name": "saleStart",
          "type": "uint256"
        },
        {
          "internalType": "uint256",
          "name": "saleEnd",
          "type": "uint256"
        },
        {
          "internalType": "bool",
          "name": "soldOut",
          "type": "bool"
        }
      ],
      "stateMutability": "view",
      "type": "function",
      "constant": true
    },
    {
      "inputs": [
        {
          "internalType": "uint256",
          "name": "",
          "type": "uint256"
        }
      ],
      "name": "events",
      "outputs": [
        {
          "internalType": "uint256",
          "name": "id",
          "type": "uint256"
        },
        {
          "internalType": "string",
          "name": "name",
          "type": "string"
        },
        {
          "internalType": "address payable",
          "name": "seller",
          "type": "address"
        },
        {
          "internalType": "uint256",
          "name": "price",
          "type": "uint256"
        },
        {
          "internalType": "uint256",
          "name": "supply",
          "type": "uint256"
        },
        {
          "internalType": "uint256",
          "name": "amountSold",
          "type": "uint256"
        },
        {
          "internalType": "uint256",
          "name": "saleStart",
          "type": "uint256"
        },
        {
          "internalType": "uint256",
          "name": "saleEnd",
          "type": "uint256"
        },
        {
          "internalType": "bool",
          "name": "soldOut",
          "type": "bool"
        }
      ],
      "stateMutability": "view",
      "type": "function",
      "constant": true
    },
    {
      "inputs": [
        {
          "internalType": "address",
          "name": "",
          "type": "address"
        }
      ],
      "name": "isSeller",
      "outputs": [
        {
          "internalType": "bool",
          "name": "",
          "type": "bool"
        }
      ],
      "stateMutability": "view",
      "type": "function",
      "constant": true
    },
    {
      "inputs": [],
      "name": "owner",
      "outputs": [
        {
          "internalType": "address",
          "name": "",
          "type": "address"
        }
      ],
      "stateMutability": "view",
      "type": "function",
      "constant": true
    },
    {
      "inputs": [],
      "name": "paused",
      "outputs": [
        {
          "internalType": "bool",
          "name": "",
          "type": "bool"
        }
      ],
      "stateMutability": "view",
      "type": "function",
      "constant": true
    },
    {
      "inputs": [],
      "name": "renounceOwnership",
      "outputs": [],
      "stateMutability": "nonpayable",
      "type": "function"
    },
    {
      "inputs": [
        {
          "internalType": "address",
          "name": "",
          "type": "address"
        },
        {
          "internalType": "uint256",
          "name": "",
          "type": "uint256"
        }
      ],
      "name": "ticketOwned",
      "outputs": [
        {
          "internalType": "bool",
          "name": "",
          "type": "bool"
        }
      ],
      "stateMutability": "view",
      "type": "function",
      "constant": true
    },
    {
      "inputs": [
        {
          "internalType": "address",
          "name": "newOwner",
          "type": "address"
        }
      ],
      "name": "transferOwnership",
      "outputs": [],
      "stateMutability": "nonpayable",
      "type": "function"
    },
    {
      "inputs": [],
      "name": "pause",
      "outputs": [],
      "stateMutability": "nonpayable",
      "type": "function"
    },
    {
      "inputs": [],
      "name": "unpause",
      "outputs": [],
      "stateMutability": "nonpayable",
      "type": "function"
    },
    {
      "inputs": [],
      "name": "registerSeller",
      "outputs": [],
      "stateMutability": "nonpayable",
      "type": "function"
    },
    {
      "inputs": [
        {
          "internalType": "string",
          "name": "_name",
          "type": "string"
        },
        {
          "internalType": "uint256",
          "name": "_price",
          "type": "uint256"
        },
        {
          "internalType": "uint256",
          "name": "_supply",
          "type": "uint256"
        }
      ],
      "name": "createEvent",
      "outputs": [],
      "stateMutability": "nonpayable",
      "type": "function"
    },
    {
      "inputs": [
        {
          "internalType": "uint256",
          "name": "_eventId",
          "type": "uint256"
        }
      ],
      "name": "buyTicket",
      "outputs": [],
      "stateMutability": "payable",
      "type": "function",
      "payable": true
    },
    {
      "inputs": [],
      "name": "getEvents",
      "outputs": [
        {
          "components": [
            {
              "internalType": "uint256",
              "name": "id",
              "type": "uint256"
            },
            {
              "internalType": "string",
              "name": "name",
              "type": "string"
            },
            {
              "internalType": "address payable",
              "name": "seller",
              "type": "address"
            },
            {
              "internalType": "uint256",
              "name": "price",
              "type": "uint256"
            },
            {
              "internalType": "uint256",
              "name": "supply",
              "type": "uint256"
            },
            {
              "internalType": "uint256",
              "name": "amountSold",
              "type": "uint256"
            },
            {
              "internalType": "uint256",
              "name": "saleStart",
              "type": "uint256"
            },
            {
              "internalType": "uint256",
              "name": "saleEnd",
              "type": "uint256"
            },
            {
              "internalType": "bool",
              "name": "soldOut",
              "type": "bool"
            }
          ],
          "internalType": "struct TicketShop.Event[]",
          "name": "",
          "type": "tuple[]"
        }
      ],
      "stateMutability": "view",
      "type": "function",
      "constant": true
    },
    {
      "inputs": [
        {
          "internalType": "address",
          "name": "_owner",
          "type": "address"
        },
        {
          "internalType": "uint256",
          "name": "_eventId",
          "type": "uint256"
        }
      ],
      "name": "getTicketOwned",
      "outputs": [
        {
          "internalType": "bool",
          "name": "",
          "type": "bool"
        }
      ],
      "stateMutability": "view",
      "type": "function",
      "constant": true
    }
  ],
  "bytecode": "0x60806040523480156200001157600080fd5b5062000032620000266200005260201b60201c565b6200005a60201b60201c565b60008060146101000a81548160ff0219169083151502179055506200011e565b600033905090565b60008060009054906101000a900473ffffffffffffffffffffffffffffffffffffffff169050816000806101000a81548173ffffffffffffffffffffffffffffffffffffffff021916908373ffffffffffffffffffffffffffffffffffffffff1602179055508173ffffffffffffffffffffffffffffffffffffffff168173ffffffffffffffffffffffffffffffffffffffff167f8be0079c531659141344cd1fd0a4f28419497f9722a3daafe3b4186f6b6457e060405160405180910390a35050565b612522806200012e6000396000f3fe6080604052600436106100f35760003560e01c8063715018a61161008a5780639e9580f6116100595780639e9580f6146102f5578063b7d15fc41461031e578063ee95feaf1461035b578063f2fde38b14610398576100f3565b8063715018a61461025f5780638456cb59146102765780638b1ed7161461028d5780638da5cb5b146102ca576100f3565b8063493280d2116100c6578063493280d2146101bc57806352c9224c146102015780635c975abb1461021857806367dd74ca14610243576100f3565b80630b791430146100f857806327e235e31461013d5780633f4ba83a1461017a578063404aa8f914610191575b600080fd5b34801561010457600080fd5b5061011f600480360381019061011a91906118ae565b6103c1565b60405161013499989796959493929190611f15565b60405180910390f35b34801561014957600080fd5b50610164600480360381019061015f91906117e2565b6104c4565b6040516101719190611e9a565b60405180910390f35b34801561018657600080fd5b5061018f6104dc565b005b34801561019d57600080fd5b506101a6610562565b6040516101b39190611cfd565b60405180910390f35b3480156101c857600080fd5b506101e360048036038101906101de91906118ae565b610701565b6040516101f899989796959493929190611f15565b60405180910390f35b34801561020d57600080fd5b50610216610814565b005b34801561022457600080fd5b5061022d610987565b60405161023a9190611d1f565b60405180910390f35b61025d600480360381019061025891906118ae565b61099d565b005b34801561026b57600080fd5b50610274610dd4565b005b34801561028257600080fd5b5061028b610e5c565b005b34801561029957600080fd5b506102b460048036038101906102af919061180b565b610ee2565b6040516102c19190611d1f565b60405180910390f35b3480156102d657600080fd5b506102df610f4a565b6040516102ec9190611cb9565b60405180910390f35b34801561030157600080fd5b5061031c60048036038101906103179190611847565b610f73565b005b34801561032a57600080fd5b506103456004803603810190610340919061180b565b6112c9565b6040516103529190611d1f565b60405180910390f35b34801561036757600080fd5b50610382600480360381019061037d91906117e2565b6112f8565b60405161038f9190611d1f565b60405180910390f35b3480156103a457600080fd5b506103bf60048036038101906103ba91906117e2565b611318565b005b60056020528060005260406000206000915090508060000154908060010180546103ea90612162565b80601f016020809104026020016040519081016040528092919081815260200182805461041690612162565b80156104635780601f1061043857610100808354040283529160200191610463565b820191906000526020600020905b81548152906001019060200180831161044657829003601f168201915b5050505050908060020160009054906101000a900473ffffffffffffffffffffffffffffffffffffffff16908060030154908060040154908060050154908060060154908060070154908060080160009054906101000a900460ff16905089565b60036020528060005260406000206000915090505481565b6104e4611410565b73ffffffffffffffffffffffffffffffffffffffff16610502610f4a565b73ffffffffffffffffffffffffffffffffffffffff1614610558576040517f08c379a000000000000000000000000000000000000000000000000000000000815260040161054f90611e3a565b60405180910390fd5b610560611418565b565b60606001805480602002602001604051908101604052809291908181526020016000905b828210156106f8578382906000526020600020906009020160405180610120016040529081600082015481526020016001820180546105c490612162565b80601f01602080910402602001604051908101604052809291908181526020018280546105f090612162565b801561063d5780601f106106125761010080835404028352916020019161063d565b820191906000526020600020905b81548152906001019060200180831161062057829003601f168201915b505050505081526020016002820160009054906101000a900473ffffffffffffffffffffffffffffffffffffffff1673ffffffffffffffffffffffffffffffffffffffff1673ffffffffffffffffffffffffffffffffffffffff16815260200160038201548152602001600482015481526020016005820154815260200160068201548152602001600782015481526020016008820160009054906101000a900460ff16151515158152505081526020019060010190610586565b50505050905090565b6001818154811061071157600080fd5b906000526020600020906009020160009150905080600001549080600101805461073a90612162565b80601f016020809104026020016040519081016040528092919081815260200182805461076690612162565b80156107b35780601f10610788576101008083540402835291602001916107b3565b820191906000526020600020905b81548152906001019060200180831161079657829003601f168201915b5050505050908060020160009054906101000a900473ffffffffffffffffffffffffffffffffffffffff16908060030154908060040154908060050154908060060154908060070154908060080160009054906101000a900460ff16905089565b60011515600260003373ffffffffffffffffffffffffffffffffffffffff1673ffffffffffffffffffffffffffffffffffffffff16815260200190815260200160002060009054906101000a900460ff16151514156108a8576040517f08c379a000000000000000000000000000000000000000000000000000000000815260040161089f90611dba565b60405180910390fd5b6001600260003373ffffffffffffffffffffffffffffffffffffffff1673ffffffffffffffffffffffffffffffffffffffff16815260200190815260200160002060006101000a81548160ff0219169083151502179055507f3860b75e2fd87bc4bd8b62bb4c55616156cf8660108bfe650183fdf40cb2923533600260003373ffffffffffffffffffffffffffffffffffffffff1673ffffffffffffffffffffffffffffffffffffffff16815260200190815260200160002060009054906101000a900460ff1660405161097d929190611cd4565b60405180910390a1565b60008060149054906101000a900460ff16905090565b6109a5610987565b156109e5576040517f08c379a00000000000000000000000000000000000000000000000000000000081526004016109dc90611e1a565b60405180910390fd5b60001515600460003373ffffffffffffffffffffffffffffffffffffffff1673ffffffffffffffffffffffffffffffffffffffff168152602001908152602001600020600083815260200190815260200160002060009054906101000a900460ff16151514610a89576040517f08c379a0000000000000000000000000000000000000000000000000000000008152600401610a8090611e7a565b60405180910390fd5b600015156005600083815260200190815260200160002060080160009054906101000a900460ff16151514610af3576040517f08c379a0000000000000000000000000000000000000000000000000000000008152600401610aea90611dda565b60405180910390fd5b60056000828152602001908152602001600020600701544210610b4b576040517f08c379a0000000000000000000000000000000000000000000000000000000008152600401610b4290611d7a565b60405180910390fd5b6005600082815260200190815260200160002060030154341015610ba4576040517f08c379a0000000000000000000000000000000000000000000000000000000008152600401610b9b90611dfa565b60405180910390fd5b6001600460003373ffffffffffffffffffffffffffffffffffffffff1673ffffffffffffffffffffffffffffffffffffffff168152602001908152602001600020600083815260200190815260200160002060006101000a81548160ff021916908315150217905550600560008281526020019081526020016000206005016000815480929190610c34906121c5565b9190505550600560008281526020019081526020016000206004015460056000838152602001908152602001600020600501541415610c9d5760016005600083815260200190815260200160002060080160006101000a81548160ff0219169083151502179055505b60006005600083815260200190815260200160002060020160009054906101000a900473ffffffffffffffffffffffffffffffffffffffff1673ffffffffffffffffffffffffffffffffffffffff166005600084815260200190815260200160002060030154604051610d0f90611ca4565b60006040518083038185875af1925050503d8060008114610d4c576040519150601f19603f3d011682016040523d82523d6000602084013e610d51565b606091505b5050905080610d95576040517f08c379a0000000000000000000000000000000000000000000000000000000008152600401610d8c90611e5a565b60405180910390fd5b7fbce6612c87f6b5711225ffc4b9f920148cd399de49ba10137fe0d3c531333841823334604051610dc893929190611ede565b60405180910390a15050565b610ddc611410565b73ffffffffffffffffffffffffffffffffffffffff16610dfa610f4a565b73ffffffffffffffffffffffffffffffffffffffff1614610e50576040517f08c379a0000000000000000000000000000000000000000000000000000000008152600401610e4790611e3a565b60405180910390fd5b610e5a60006114b9565b565b610e64611410565b73ffffffffffffffffffffffffffffffffffffffff16610e82610f4a565b73ffffffffffffffffffffffffffffffffffffffff1614610ed8576040517f08c379a0000000000000000000000000000000000000000000000000000000008152600401610ecf90611e3a565b60405180910390fd5b610ee061157d565b565b6000600460008473ffffffffffffffffffffffffffffffffffffffff1673ffffffffffffffffffffffffffffffffffffffff168152602001908152602001600020600083815260200190815260200160002060009054906101000a900460ff16905092915050565b60008060009054906101000a900473ffffffffffffffffffffffffffffffffffffffff16905090565b3360011515600260008373ffffffffffffffffffffffffffffffffffffffff1673ffffffffffffffffffffffffffffffffffffffff16815260200190815260200160002060009054906101000a900460ff16151514611007576040517f08c379a0000000000000000000000000000000000000000000000000000000008152600401610ffe90611d3a565b60405180910390fd5b7f22c8faed5969a6808c4706a759d88cc07001fda4c7a81eef86f3f449991161486001805490503360405161103d929190611eb5565b60405180910390a160405180610120016040528060018054905081526020018581526020013373ffffffffffffffffffffffffffffffffffffffff1681526020018481526020018381526020016000815260200142815260200162093a80426110a69190612070565b8152602001600015158152506005600060018054905081526020019081526020016000206000820151816000015560208201518160010190805190602001906110f0929190611620565b5060408201518160020160006101000a81548173ffffffffffffffffffffffffffffffffffffffff021916908373ffffffffffffffffffffffffffffffffffffffff160217905550606082015181600301556080820151816004015560a0820151816005015560c0820151816006015560e082015181600701556101008201518160080160006101000a81548160ff021916908315150217905550905050600160056000600180549050815260200190815260200160002090806001815401808255809150506001900390600052602060002090600902016000909190919091506000820154816000015560018201816001019080546111ef90612162565b6111fa9291906116a6565b506002820160009054906101000a900473ffffffffffffffffffffffffffffffffffffffff168160020160006101000a81548173ffffffffffffffffffffffffffffffffffffffff021916908373ffffffffffffffffffffffffffffffffffffffff16021790555060038201548160030155600482015481600401556005820154816005015560068201548160060155600782015481600701556008820160009054906101000a900460ff168160080160006101000a81548160ff021916908315150217905550505050505050565b60046020528160005260406000206020528060005260406000206000915091509054906101000a900460ff1681565b60026020528060005260406000206000915054906101000a900460ff1681565b611320611410565b73ffffffffffffffffffffffffffffffffffffffff1661133e610f4a565b73ffffffffffffffffffffffffffffffffffffffff1614611394576040517f08c379a000000000000000000000000000000000000000000000000000000000815260040161138b90611e3a565b60405180910390fd5b600073ffffffffffffffffffffffffffffffffffffffff168173ffffffffffffffffffffffffffffffffffffffff161415611404576040517f08c379a00000000000000000000000000000000000000000000000000000000081526004016113fb90611d9a565b60405180910390fd5b61140d816114b9565b50565b600033905090565b611420610987565b61145f576040517f08c379a000000000000000000000000000000000000000000000000000000000815260040161145690611d5a565b60405180910390fd5b60008060146101000a81548160ff0219169083151502179055507f5db9ee0a495bf2e6ff9c91a7834c1ba4fdd244a5e8aa4e537bd38aeae4b073aa6114a2611410565b6040516114af9190611cb9565b60405180910390a1565b60008060009054906101000a900473ffffffffffffffffffffffffffffffffffffffff169050816000806101000a81548173ffffffffffffffffffffffffffffffffffffffff021916908373ffffffffffffffffffffffffffffffffffffffff1602179055508173ffffffffffffffffffffffffffffffffffffffff168173ffffffffffffffffffffffffffffffffffffffff167f8be0079c531659141344cd1fd0a4f28419497f9722a3daafe3b4186f6b6457e060405160405180910390a35050565b611585610987565b156115c5576040517f08c379a00000000000000000000000000000000000000000000000000000000081526004016115bc90611e1a565b60405180910390fd5b6001600060146101000a81548160ff0219169083151502179055507f62e78cea01bee320cd4e420270b5ea74000d11b0c9f74754ebdbfc544b05a258611609611410565b6040516116169190611cb9565b60405180910390a1565b82805461162c90612162565b90600052602060002090601f01602090048101928261164e5760008555611695565b82601f1061166757805160ff1916838001178555611695565b82800160010185558215611695579182015b82811115611694578251825591602001919060010190611679565b5b5090506116a29190611733565b5090565b8280546116b290612162565b90600052602060002090601f0160209004810192826116d45760008555611722565b82601f106116e55780548555611722565b8280016001018555821561172257600052602060002091601f016020900482015b82811115611721578254825591600101919060010190611706565b5b50905061172f9190611733565b5090565b5b8082111561174c576000816000905550600101611734565b5090565b600061176361175e84611fce565b611fa9565b90508281526020810184848401111561177b57600080fd5b611786848285612120565b509392505050565b60008135905061179d816124be565b92915050565b600082601f8301126117b457600080fd5b81356117c4848260208601611750565b91505092915050565b6000813590506117dc816124d5565b92915050565b6000602082840312156117f457600080fd5b60006118028482850161178e565b91505092915050565b6000806040838503121561181e57600080fd5b600061182c8582860161178e565b925050602061183d858286016117cd565b9150509250929050565b60008060006060848603121561185c57600080fd5b600084013567ffffffffffffffff81111561187657600080fd5b611882868287016117a3565b9350506020611893868287016117cd565b92505060406118a4868287016117cd565b9150509250925092565b6000602082840312156118c057600080fd5b60006118ce848285016117cd565b91505092915050565b60006118e38383611bc1565b905092915050565b6118f4816120d8565b82525050565b611903816120d8565b82525050565b611912816120c6565b82525050565b60006119238261200f565b61192d8185612032565b93508360208202850161193f85611fff565b8060005b8581101561197b578484038952815161195c85826118d7565b945061196783612025565b925060208a01995050600181019050611943565b50829750879550505050505092915050565b611996816120ea565b82525050565b6119a5816120ea565b82525050565b60006119b68261201a565b6119c0818561204e565b93506119d081856020860161212f565b6119d98161229b565b840191505092915050565b60006119ef8261201a565b6119f9818561205f565b9350611a0981856020860161212f565b611a128161229b565b840191505092915050565b6000611a2a601a8361205f565b9150611a35826122ac565b602082019050919050565b6000611a4d60148361205f565b9150611a58826122d5565b602082019050919050565b6000611a7060148361205f565b9150611a7b826122fe565b602082019050919050565b6000611a9360268361205f565b9150611a9e82612327565b604082019050919050565b6000611ab660128361205f565b9150611ac182612376565b602082019050919050565b6000611ad960168361205f565b9150611ae48261239f565b602082019050919050565b6000611afc601e8361205f565b9150611b07826123c8565b602082019050919050565b6000611b1f60108361205f565b9150611b2a826123f1565b602082019050919050565b6000611b4260208361205f565b9150611b4d8261241a565b602082019050919050565b6000611b65600083612043565b9150611b7082612443565b600082019050919050565b6000611b8860108361205f565b9150611b9382612446565b602082019050919050565b6000611bab60218361205f565b9150611bb68261246f565b604082019050919050565b600061012083016000830151611bda6000860182611c86565b5060208301518482036020860152611bf282826119ab565b9150506040830151611c0760408601826118eb565b506060830151611c1a6060860182611c86565b506080830151611c2d6080860182611c86565b5060a0830151611c4060a0860182611c86565b5060c0830151611c5360c0860182611c86565b5060e0830151611c6660e0860182611c86565b50610100830151611c7b61010086018261198d565b508091505092915050565b611c8f81612116565b82525050565b611c9e81612116565b82525050565b6000611caf82611b58565b9150819050919050565b6000602082019050611cce6000830184611909565b92915050565b6000604082019050611ce96000830185611909565b611cf6602083018461199c565b9392505050565b60006020820190508181036000830152611d178184611918565b905092915050565b6000602082019050611d34600083018461199c565b92915050565b60006020820190508181036000830152611d5381611a1d565b9050919050565b60006020820190508181036000830152611d7381611a40565b9050919050565b60006020820190508181036000830152611d9381611a63565b9050919050565b60006020820190508181036000830152611db381611a86565b9050919050565b60006020820190508181036000830152611dd381611aa9565b9050919050565b60006020820190508181036000830152611df381611acc565b9050919050565b60006020820190508181036000830152611e1381611aef565b9050919050565b60006020820190508181036000830152611e3381611b12565b9050919050565b60006020820190508181036000830152611e5381611b35565b9050919050565b60006020820190508181036000830152611e7381611b7b565b9050919050565b60006020820190508181036000830152611e9381611b9e565b9050919050565b6000602082019050611eaf6000830184611c95565b92915050565b6000604082019050611eca6000830185611c95565b611ed76020830184611909565b9392505050565b6000606082019050611ef36000830186611c95565b611f006020830185611909565b611f0d6040830184611c95565b949350505050565b600061012082019050611f2b600083018c611c95565b8181036020830152611f3d818b6119e4565b9050611f4c604083018a6118fa565b611f596060830189611c95565b611f666080830188611c95565b611f7360a0830187611c95565b611f8060c0830186611c95565b611f8d60e0830185611c95565b611f9b61010083018461199c565b9a9950505050505050505050565b6000611fb3611fc4565b9050611fbf8282612194565b919050565b6000604051905090565b600067ffffffffffffffff821115611fe957611fe861226c565b5b611ff28261229b565b9050602081019050919050565b6000819050602082019050919050565b600081519050919050565b600081519050919050565b6000602082019050919050565b600082825260208201905092915050565b600081905092915050565b600082825260208201905092915050565b600082825260208201905092915050565b600061207b82612116565b915061208683612116565b9250827fffffffffffffffffffffffffffffffffffffffffffffffffffffffffffffffff038211156120bb576120ba61220e565b5b828201905092915050565b60006120d1826120f6565b9050919050565b60006120e3826120f6565b9050919050565b60008115159050919050565b600073ffffffffffffffffffffffffffffffffffffffff82169050919050565b6000819050919050565b82818337600083830152505050565b60005b8381101561214d578082015181840152602081019050612132565b8381111561215c576000848401525b50505050565b6000600282049050600182168061217a57607f821691505b6020821081141561218e5761218d61223d565b5b50919050565b61219d8261229b565b810181811067ffffffffffffffff821117156121bc576121bb61226c565b5b80604052505050565b60006121d082612116565b91507fffffffffffffffffffffffffffffffffffffffffffffffffffffffffffffffff8214156122035761220261220e565b5b600182019050919050565b7f4e487b7100000000000000000000000000000000000000000000000000000000600052601160045260246000fd5b7f4e487b7100000000000000000000000000000000000000000000000000000000600052602260045260246000fd5b7f4e487b7100000000000000000000000000000000000000000000000000000000600052604160045260246000fd5b6000601f19601f8301169050919050565b7f4e6f74207265676973746572656420617320612073656c6c6572000000000000600082015250565b7f5061757361626c653a206e6f7420706175736564000000000000000000000000600082015250565b7f546869732073616c652068617320636c6f736564000000000000000000000000600082015250565b7f4f776e61626c653a206e6577206f776e657220697320746865207a65726f206160008201527f6464726573730000000000000000000000000000000000000000000000000000602082015250565b7f416c726561647920726567697374657265640000000000000000000000000000600082015250565b7f54686973206576656e7420697320736f6c64206f757400000000000000000000600082015250565b7f496e73756666696369656e74207472616e73616374696f6e2076616c75650000600082015250565b7f5061757361626c653a2070617573656400000000000000000000000000000000600082015250565b7f4f776e61626c653a2063616c6c6572206973206e6f7420746865206f776e6572600082015250565b50565b7f5472616e73666572206661696c65642e00000000000000000000000000000000600082015250565b7f596f7527766520616c7265616479207075726368617365642061207469636b6560008201527f7400000000000000000000000000000000000000000000000000000000000000602082015250565b6124c7816120c6565b81146124d257600080fd5b50565b6124de81612116565b81146124e957600080fd5b5056fea2646970667358221220f0a51cf9563b03478fb94668a6dccf4969215a0bc019fa8751110ba70addff7f64736f6c63430008040033",
  "immutableReferences": {},
  "source": "// SPDX-License-Identifier: MIT\npragma solidity 0.8.4;\n\nimport '@openzeppelin/contracts/access/Ownable.sol';\nimport '@openzeppelin/contracts/security/Pausable.sol';\n\n  /// @title An event ticket marketplace\n  /** @notice This contract allows users to create events and sell tickets to other users.\n    * Ideally each ticket would be an NFT, but to keep it simple, tickets are just tracked in the Event struct\n  */\n\ncontract TicketShop is Ownable, Pausable {\n\n  /** @dev Using an enum to add phases to the ticket sale (presale, public sale, sale over, etc)\n    * and allow the seller to set how long these phases can last can give the seller more control, \n    * but decided to keep it simple for now\n  */\n  struct Event{\n    uint id;\n    string name;\n    address payable seller;\n    uint price;\n    uint supply;\n    uint amountSold;\n    uint saleStart;\n    uint saleEnd;\n    bool soldOut;\n  }\n\n  Event[] public eventList;\n\n  mapping (address => bool) public isSeller;\n  mapping (address => uint) public balances;\n  mapping (address => mapping(uint => bool)) public ticketOwned;\n  mapping (uint => Event) public events;\n\n  event SellerRegistered(address seller, bool status);\n  event EventAdded(uint eventId, address seller);\n  event TicketSold(uint eventId, address buyer, uint value);\n\n\n  /// @notice Only permits registered sellers to execute functions\n  /// @dev In the future this would be used for other functions specific to event organizers\n  modifier onlySeller(address _seller) {\n    require(isSeller[_seller] == true, \"Not registered as a seller\");\n    _;\n  }\n\n  function pause() external onlyOwner() {\n    _pause();\n  }\n\n  function unpause() external onlyOwner() {\n    _unpause();\n  }\n\n  /// @notice Registers the user as a seller\n  function registerSeller() external {\n    require(isSeller[msg.sender] != true, \"Already registered\");\n    \n    isSeller[msg.sender] = true;\n\n    emit SellerRegistered(msg.sender, isSeller[msg.sender]);\n  }\n\n  /// @notice Allows a seller to create an event\n  /// @dev Events are added to an array of events\n  function createEvent(string memory _name, uint _price, uint _supply) external onlySeller(msg.sender) {\n    emit EventAdded(eventList.length, msg.sender);\n\n    events[eventList.length] = Event(\n      eventList.length,\n      _name, \n      payable(msg.sender), \n      _price, \n      _supply, \n      0, \n      block.timestamp, \n      block.timestamp + 7 days, \n      false\n    );\n\n    eventList.push(events[eventList.length]);    \n  }\n\n  /// @notice Allows a user to purchase a ticket\n  /**  @dev For now only allows a buyer to own 1 ticker per event\n    *  Contract must not be paused\n  */\n  function buyTicket(uint _eventId) external payable whenNotPaused() {\n    require(ticketOwned[msg.sender][_eventId] == false, \"You've already purchased a ticket\");\n    require(events[_eventId].soldOut == false, \"This event is sold out\");\n    require(block.timestamp < events[_eventId].saleEnd, \"This sale has closed\");\n    require(msg.value >= events[_eventId].price, \"Insufficient transaction value\");\n\n    ticketOwned[msg.sender][_eventId] = true;\n\n    events[_eventId].amountSold++;\n\n    if(events[_eventId].amountSold == events[_eventId].supply) {\n      events[_eventId].soldOut = true;\n    }\n\n    (bool success, ) = events[_eventId].seller.call{value: events[_eventId].price}(\"\");\n      require(success, \"Transfer failed.\");\n\n    emit TicketSold(_eventId, msg.sender, msg.value);\n  }\n\n  /// @notice Retrieve all events\n  /// @return An array of Event structs\n  function getEvents() external view returns(Event[] memory) {\n    return eventList;\n  }\n\n  /// @notice Sees if a user is an owner of a ticket for an event\n  /// @return Boolean value representing ticket ownership\n  function getTicketOwned(address _owner, uint _eventId) external view returns(bool) {\n    return ticketOwned[_owner][_eventId];\n  }\n}\n\n",
  "sourcePath": "C:/Users/mkeag/Documents/consensysbootcamp/blockchain-developer-bootcamp-final-project/contracts/TicketShop.sol",
  "compiler": {
    "name": "solc",
    "version": "0.8.4+commit.c7e474f2.Emscripten.clang"
  },
  "schemaVersion": "3.4.1",
  "updatedAt": "2021-11-13T16:42:29.035Z",
  "networkType": "ethereum",
  "devdoc": {
    "kind": "dev",
    "methods": {
      "buyTicket(uint256)": {
        "details": "For now only allows a buyer to own 1 ticker per event  Contract must not be paused"
      },
      "createEvent(string,uint256,uint256)": {
        "details": "Events are added to an array of events"
      },
      "getEvents()": {
        "returns": {
          "_0": "An array of Event structs"
        }
      },
      "getTicketOwned(address,uint256)": {
        "returns": {
          "_0": "Boolean value representing ticket ownership"
        }
      },
      "owner()": {
        "details": "Returns the address of the current owner."
      },
      "paused()": {
        "details": "Returns true if the contract is paused, and false otherwise."
      },
      "renounceOwnership()": {
        "details": "Leaves the contract without owner. It will not be possible to call `onlyOwner` functions anymore. Can only be called by the current owner. NOTE: Renouncing ownership will leave the contract without an owner, thereby removing any functionality that is only available to the owner."
      },
      "transferOwnership(address)": {
        "details": "Transfers ownership of the contract to a new account (`newOwner`). Can only be called by the current owner."
      }
    },
    "version": 1
  },
  "userdoc": {
    "kind": "user",
    "methods": {
      "createEvent(string,uint256,uint256)": {
        "notice": "Allows a seller to create an event"
      },
      "getEvents()": {
        "notice": "Retrieve all events"
      },
      "getTicketOwned(address,uint256)": {
        "notice": "Sees if a user is an owner of a ticket for an event"
      },
      "registerSeller()": {
        "notice": "Registers the user as a seller"
      }
    },
    "notice": "This contract allows users to create events and sell tickets to other users. Ideally each ticket would be an NFT, but to keep it simple, tickets are just tracked in the Event struct",
    "version": 1
  }
}