{
  "contractName": "TicketShop",
  "abi": [
    {
      "anonymous": false,
      "inputs": [
        {
          "indexed": false,
          "internalType": "uint256",
          "name": "eventId",
          "type": "uint256"
        },
        {
          "indexed": false,
          "internalType": "address",
          "name": "seller",
          "type": "address"
        }
      ],
      "name": "EventAdded",
      "type": "event"
    },
    {
      "anonymous": false,
      "inputs": [
        {
          "indexed": true,
          "internalType": "address",
          "name": "previousOwner",
          "type": "address"
        },
        {
          "indexed": true,
          "internalType": "address",
          "name": "newOwner",
          "type": "address"
        }
      ],
      "name": "OwnershipTransferred",
      "type": "event"
    },
    {
      "anonymous": false,
      "inputs": [
        {
          "indexed": false,
          "internalType": "address",
          "name": "account",
          "type": "address"
        }
      ],
      "name": "Paused",
      "type": "event"
    },
    {
      "anonymous": false,
      "inputs": [
        {
          "indexed": false,
          "internalType": "address",
          "name": "seller",
          "type": "address"
        },
        {
          "indexed": false,
          "internalType": "bool",
          "name": "status",
          "type": "bool"
        }
      ],
      "name": "SellerRegistered",
      "type": "event"
    },
    {
      "anonymous": false,
      "inputs": [
        {
          "indexed": false,
          "internalType": "uint256",
          "name": "eventId",
          "type": "uint256"
        },
        {
          "indexed": false,
          "internalType": "address",
          "name": "buyer",
          "type": "address"
        },
        {
          "indexed": false,
          "internalType": "uint256",
          "name": "value",
          "type": "uint256"
        }
      ],
      "name": "TicketSold",
      "type": "event"
    },
    {
      "anonymous": false,
      "inputs": [
        {
          "indexed": false,
          "internalType": "address",
          "name": "account",
          "type": "address"
        }
      ],
      "name": "Unpaused",
      "type": "event"
    },
    {
      "inputs": [
        {
          "internalType": "address",
          "name": "",
          "type": "address"
        }
      ],
      "name": "balances",
      "outputs": [
        {
          "internalType": "uint256",
          "name": "",
          "type": "uint256"
        }
      ],
      "stateMutability": "view",
      "type": "function",
      "constant": true
    },
    {
      "inputs": [
        {
          "internalType": "uint256",
          "name": "",
          "type": "uint256"
        }
      ],
      "name": "eventList",
      "outputs": [
        {
          "internalType": "uint256",
          "name": "id",
          "type": "uint256"
        },
        {
          "internalType": "string",
          "name": "name",
          "type": "string"
        },
        {
          "internalType": "address payable",
          "name": "seller",
          "type": "address"
        },
        {
          "internalType": "uint256",
          "name": "price",
          "type": "uint256"
        },
        {
          "internalType": "uint256",
          "name": "supply",
          "type": "uint256"
        },
        {
          "internalType": "uint256",
          "name": "amountSold",
          "type": "uint256"
        },
        {
          "internalType": "uint256",
          "name": "saleStart",
          "type": "uint256"
        },
        {
          "internalType": "uint256",
          "name": "saleEnd",
          "type": "uint256"
        },
        {
          "internalType": "bool",
          "name": "soldOut",
          "type": "bool"
        }
      ],
      "stateMutability": "view",
      "type": "function",
      "constant": true
    },
    {
      "inputs": [
        {
          "internalType": "uint256",
          "name": "",
          "type": "uint256"
        }
      ],
      "name": "events",
      "outputs": [
        {
          "internalType": "uint256",
          "name": "id",
          "type": "uint256"
        },
        {
          "internalType": "string",
          "name": "name",
          "type": "string"
        },
        {
          "internalType": "address payable",
          "name": "seller",
          "type": "address"
        },
        {
          "internalType": "uint256",
          "name": "price",
          "type": "uint256"
        },
        {
          "internalType": "uint256",
          "name": "supply",
          "type": "uint256"
        },
        {
          "internalType": "uint256",
          "name": "amountSold",
          "type": "uint256"
        },
        {
          "internalType": "uint256",
          "name": "saleStart",
          "type": "uint256"
        },
        {
          "internalType": "uint256",
          "name": "saleEnd",
          "type": "uint256"
        },
        {
          "internalType": "bool",
          "name": "soldOut",
          "type": "bool"
        }
      ],
      "stateMutability": "view",
      "type": "function",
      "constant": true
    },
    {
      "inputs": [
        {
          "internalType": "address",
          "name": "",
          "type": "address"
        }
      ],
      "name": "isSeller",
      "outputs": [
        {
          "internalType": "bool",
          "name": "",
          "type": "bool"
        }
      ],
      "stateMutability": "view",
      "type": "function",
      "constant": true
    },
    {
      "inputs": [],
      "name": "owner",
      "outputs": [
        {
          "internalType": "address",
          "name": "",
          "type": "address"
        }
      ],
      "stateMutability": "view",
      "type": "function",
      "constant": true
    },
    {
      "inputs": [],
      "name": "paused",
      "outputs": [
        {
          "internalType": "bool",
          "name": "",
          "type": "bool"
        }
      ],
      "stateMutability": "view",
      "type": "function",
      "constant": true
    },
    {
      "inputs": [],
      "name": "renounceOwnership",
      "outputs": [],
      "stateMutability": "nonpayable",
      "type": "function"
    },
    {
      "inputs": [
        {
          "internalType": "address",
          "name": "",
          "type": "address"
        },
        {
          "internalType": "uint256",
          "name": "",
          "type": "uint256"
        }
      ],
      "name": "ticketOwned",
      "outputs": [
        {
          "internalType": "bool",
          "name": "",
          "type": "bool"
        }
      ],
      "stateMutability": "view",
      "type": "function",
      "constant": true
    },
    {
      "inputs": [
        {
          "internalType": "address",
          "name": "newOwner",
          "type": "address"
        }
      ],
      "name": "transferOwnership",
      "outputs": [],
      "stateMutability": "nonpayable",
      "type": "function"
    },
    {
      "inputs": [],
      "name": "pause",
      "outputs": [],
      "stateMutability": "nonpayable",
      "type": "function"
    },
    {
      "inputs": [],
      "name": "unpause",
      "outputs": [],
      "stateMutability": "nonpayable",
      "type": "function"
    },
    {
      "inputs": [],
      "name": "registerSeller",
      "outputs": [],
      "stateMutability": "nonpayable",
      "type": "function"
    },
    {
      "inputs": [
        {
          "internalType": "string",
          "name": "_name",
          "type": "string"
        },
        {
          "internalType": "uint256",
          "name": "_price",
          "type": "uint256"
        },
        {
          "internalType": "uint256",
          "name": "_supply",
          "type": "uint256"
        }
      ],
      "name": "createEvent",
      "outputs": [],
      "stateMutability": "nonpayable",
      "type": "function"
    },
    {
      "inputs": [
        {
          "internalType": "uint256",
          "name": "_eventId",
          "type": "uint256"
        }
      ],
      "name": "buyTicket",
      "outputs": [],
      "stateMutability": "payable",
      "type": "function",
      "payable": true
    },
    {
      "inputs": [],
      "name": "getEvents",
      "outputs": [
        {
          "components": [
            {
              "internalType": "uint256",
              "name": "id",
              "type": "uint256"
            },
            {
              "internalType": "string",
              "name": "name",
              "type": "string"
            },
            {
              "internalType": "address payable",
              "name": "seller",
              "type": "address"
            },
            {
              "internalType": "uint256",
              "name": "price",
              "type": "uint256"
            },
            {
              "internalType": "uint256",
              "name": "supply",
              "type": "uint256"
            },
            {
              "internalType": "uint256",
              "name": "amountSold",
              "type": "uint256"
            },
            {
              "internalType": "uint256",
              "name": "saleStart",
              "type": "uint256"
            },
            {
              "internalType": "uint256",
              "name": "saleEnd",
              "type": "uint256"
            },
            {
              "internalType": "bool",
              "name": "soldOut",
              "type": "bool"
            }
          ],
          "internalType": "struct TicketShop.Event[]",
          "name": "",
          "type": "tuple[]"
        }
      ],
      "stateMutability": "view",
      "type": "function",
      "constant": true
    },
    {
      "inputs": [
        {
          "internalType": "uint256",
          "name": "_eventId",
          "type": "uint256"
        }
      ],
      "name": "getTicketOwned",
      "outputs": [
        {
          "internalType": "bool",
          "name": "",
          "type": "bool"
        }
      ],
      "stateMutability": "view",
      "type": "function",
      "constant": true
    }
  ],
  "bytecode": "0x60806040523480156200001157600080fd5b5062000032620000266200005260201b60201c565b6200005a60201b60201c565b60008060146101000a81548160ff0219169083151502179055506200011e565b600033905090565b60008060009054906101000a900473ffffffffffffffffffffffffffffffffffffffff169050816000806101000a81548173ffffffffffffffffffffffffffffffffffffffff021916908373ffffffffffffffffffffffffffffffffffffffff1602179055508173ffffffffffffffffffffffffffffffffffffffff168173ffffffffffffffffffffffffffffffffffffffff167f8be0079c531659141344cd1fd0a4f28419497f9722a3daafe3b4186f6b6457e060405160405180910390a35050565b6124f4806200012e6000396000f3fe6080604052600436106100f35760003560e01c806367dd74ca1161008a5780639e9580f6116100595780639e9580f6146102f5578063b7d15fc41461031e578063ee95feaf1461035b578063f2fde38b14610398576100f3565b806367dd74ca14610280578063715018a61461029c5780638456cb59146102b35780638da5cb5b146102ca576100f3565b8063404aa8f9116100c6578063404aa8f9146101ce578063493280d2146101f957806352c9224c1461023e5780635c975abb14610255576100f3565b80630b791430146100f85780631627495c1461013d57806327e235e31461017a5780633f4ba83a146101b7575b600080fd5b34801561010457600080fd5b5061011f600480360381019061011a91906118c9565b6103c1565b60405161013499989796959493929190611f30565b60405180910390f35b34801561014957600080fd5b50610164600480360381019061015f91906118c9565b6104c4565b6040516101719190611d3a565b60405180910390f35b34801561018657600080fd5b506101a1600480360381019061019c91906117fd565b61052b565b6040516101ae9190611eb5565b60405180910390f35b3480156101c357600080fd5b506101cc610543565b005b3480156101da57600080fd5b506101e36105c9565b6040516101f09190611d18565b60405180910390f35b34801561020557600080fd5b50610220600480360381019061021b91906118c9565b610768565b60405161023599989796959493929190611f30565b60405180910390f35b34801561024a57600080fd5b5061025361087b565b005b34801561026157600080fd5b5061026a6109ee565b6040516102779190611d3a565b60405180910390f35b61029a600480360381019061029591906118c9565b610a04565b005b3480156102a857600080fd5b506102b1610e3d565b005b3480156102bf57600080fd5b506102c8610ec5565b005b3480156102d657600080fd5b506102df610f4b565b6040516102ec9190611cd4565b60405180910390f35b34801561030157600080fd5b5061031c60048036038101906103179190611862565b610f74565b005b34801561032a57600080fd5b5061034560048036038101906103409190611826565b6112e4565b6040516103529190611d3a565b60405180910390f35b34801561036757600080fd5b50610382600480360381019061037d91906117fd565b611313565b60405161038f9190611d3a565b60405180910390f35b3480156103a457600080fd5b506103bf60048036038101906103ba91906117fd565b611333565b005b60066020528060005260406000206000915090508060000154908060010180546103ea9061217d565b80601f01602080910402602001604051908101604052809291908181526020018280546104169061217d565b80156104635780601f1061043857610100808354040283529160200191610463565b820191906000526020600020905b81548152906001019060200180831161044657829003601f168201915b5050505050908060020160009054906101000a900473ffffffffffffffffffffffffffffffffffffffff16908060030154908060040154908060050154908060060154908060070154908060080160009054906101000a900460ff16905089565b6000600560003373ffffffffffffffffffffffffffffffffffffffff1673ffffffffffffffffffffffffffffffffffffffff168152602001908152602001600020600083815260200190815260200160002060009054906101000a900460ff169050919050565b60046020528060005260406000206000915090505481565b61054b61142b565b73ffffffffffffffffffffffffffffffffffffffff16610569610f4b565b73ffffffffffffffffffffffffffffffffffffffff16146105bf576040517f08c379a00000000000000000000000000000000000000000000000000000000081526004016105b690611e55565b60405180910390fd5b6105c7611433565b565b60606001805480602002602001604051908101604052809291908181526020016000905b8282101561075f5783829060005260206000209060090201604051806101200160405290816000820154815260200160018201805461062b9061217d565b80601f01602080910402602001604051908101604052809291908181526020018280546106579061217d565b80156106a45780601f10610679576101008083540402835291602001916106a4565b820191906000526020600020905b81548152906001019060200180831161068757829003601f168201915b505050505081526020016002820160009054906101000a900473ffffffffffffffffffffffffffffffffffffffff1673ffffffffffffffffffffffffffffffffffffffff1673ffffffffffffffffffffffffffffffffffffffff16815260200160038201548152602001600482015481526020016005820154815260200160068201548152602001600782015481526020016008820160009054906101000a900460ff161515151581525050815260200190600101906105ed565b50505050905090565b6001818154811061077857600080fd5b90600052602060002090600902016000915090508060000154908060010180546107a19061217d565b80601f01602080910402602001604051908101604052809291908181526020018280546107cd9061217d565b801561081a5780601f106107ef5761010080835404028352916020019161081a565b820191906000526020600020905b8154815290600101906020018083116107fd57829003601f168201915b5050505050908060020160009054906101000a900473ffffffffffffffffffffffffffffffffffffffff16908060030154908060040154908060050154908060060154908060070154908060080160009054906101000a900460ff16905089565b60011515600360003373ffffffffffffffffffffffffffffffffffffffff1673ffffffffffffffffffffffffffffffffffffffff16815260200190815260200160002060009054906101000a900460ff161515141561090f576040517f08c379a000000000000000000000000000000000000000000000000000000000815260040161090690611dd5565b60405180910390fd5b6001600360003373ffffffffffffffffffffffffffffffffffffffff1673ffffffffffffffffffffffffffffffffffffffff16815260200190815260200160002060006101000a81548160ff0219169083151502179055507f3860b75e2fd87bc4bd8b62bb4c55616156cf8660108bfe650183fdf40cb2923533600360003373ffffffffffffffffffffffffffffffffffffffff1673ffffffffffffffffffffffffffffffffffffffff16815260200190815260200160002060009054906101000a900460ff166040516109e4929190611cef565b60405180910390a1565b60008060149054906101000a900460ff16905090565b610a0c6109ee565b15610a4c576040517f08c379a0000000000000000000000000000000000000000000000000000000008152600401610a4390611e35565b60405180910390fd5b60001515600560003373ffffffffffffffffffffffffffffffffffffffff1673ffffffffffffffffffffffffffffffffffffffff168152602001908152602001600020600083815260200190815260200160002060009054906101000a900460ff16151514610af0576040517f08c379a0000000000000000000000000000000000000000000000000000000008152600401610ae790611e95565b60405180910390fd5b600015156006600083815260200190815260200160002060080160009054906101000a900460ff16151514610b5a576040517f08c379a0000000000000000000000000000000000000000000000000000000008152600401610b5190611df5565b60405180910390fd5b60066000828152602001908152602001600020600701544210610bb2576040517f08c379a0000000000000000000000000000000000000000000000000000000008152600401610ba990611d95565b60405180910390fd5b6006600082815260200190815260200160002060030154341015610c0b576040517f08c379a0000000000000000000000000000000000000000000000000000000008152600401610c0290611e15565b60405180910390fd5b6001600560003373ffffffffffffffffffffffffffffffffffffffff1673ffffffffffffffffffffffffffffffffffffffff168152602001908152602001600020600083815260200190815260200160002060006101000a81548160ff0219169083151502179055506001600660008381526020019081526020016000206005016000828254610c9b919061208b565b92505081905550600660008281526020019081526020016000206004015460066000838152602001908152602001600020600501541415610d065760016006600083815260200190815260200160002060080160006101000a81548160ff0219169083151502179055505b60006006600083815260200190815260200160002060020160009054906101000a900473ffffffffffffffffffffffffffffffffffffffff1673ffffffffffffffffffffffffffffffffffffffff166006600084815260200190815260200160002060030154604051610d7890611cbf565b60006040518083038185875af1925050503d8060008114610db5576040519150601f19603f3d011682016040523d82523d6000602084013e610dba565b606091505b5050905080610dfe576040517f08c379a0000000000000000000000000000000000000000000000000000000008152600401610df590611e75565b60405180910390fd5b7fbce6612c87f6b5711225ffc4b9f920148cd399de49ba10137fe0d3c531333841823334604051610e3193929190611ef9565b60405180910390a15050565b610e4561142b565b73ffffffffffffffffffffffffffffffffffffffff16610e63610f4b565b73ffffffffffffffffffffffffffffffffffffffff1614610eb9576040517f08c379a0000000000000000000000000000000000000000000000000000000008152600401610eb090611e55565b60405180910390fd5b610ec360006114d4565b565b610ecd61142b565b73ffffffffffffffffffffffffffffffffffffffff16610eeb610f4b565b73ffffffffffffffffffffffffffffffffffffffff1614610f41576040517f08c379a0000000000000000000000000000000000000000000000000000000008152600401610f3890611e55565b60405180910390fd5b610f49611598565b565b60008060009054906101000a900473ffffffffffffffffffffffffffffffffffffffff16905090565b3360011515600360008373ffffffffffffffffffffffffffffffffffffffff1673ffffffffffffffffffffffffffffffffffffffff16815260200190815260200160002060009054906101000a900460ff16151514611008576040517f08c379a0000000000000000000000000000000000000000000000000000000008152600401610fff90611d55565b60405180910390fd5b7f22c8faed5969a6808c4706a759d88cc07001fda4c7a81eef86f3f449991161486001805490503360405161103e929190611ed0565b60405180910390a160405180610120016040528060018054905081526020018581526020013373ffffffffffffffffffffffffffffffffffffffff1681526020018481526020018381526020016000815260200142815260200162093a80426110a7919061208b565b8152602001600015158152506006600060018054905081526020019081526020016000206000820151816000015560208201518160010190805190602001906110f192919061163b565b5060408201518160020160006101000a81548173ffffffffffffffffffffffffffffffffffffffff021916908373ffffffffffffffffffffffffffffffffffffffff160217905550606082015181600301556080820151816004015560a0820151816005015560c0820151816006015560e082015181600701556101008201518160080160006101000a81548160ff021916908315150217905550905050600160066000600180549050815260200190815260200160002090806001815401808255809150506001900390600052602060002090600902016000909190919091506000820154816000015560018201816001019080546111f09061217d565b6111fb9291906116c1565b506002820160009054906101000a900473ffffffffffffffffffffffffffffffffffffffff168160020160006101000a81548173ffffffffffffffffffffffffffffffffffffffff021916908373ffffffffffffffffffffffffffffffffffffffff16021790555060038201548160030155600482015481600401556005820154816005015560068201548160060155600782015481600701556008820160009054906101000a900460ff168160080160006101000a81548160ff02191690831515021790555050506001600260008282546112d7919061208b565b9250508190555050505050565b60056020528160005260406000206020528060005260406000206000915091509054906101000a900460ff1681565b60036020528060005260406000206000915054906101000a900460ff1681565b61133b61142b565b73ffffffffffffffffffffffffffffffffffffffff16611359610f4b565b73ffffffffffffffffffffffffffffffffffffffff16146113af576040517f08c379a00000000000000000000000000000000000000000000000000000000081526004016113a690611e55565b60405180910390fd5b600073ffffffffffffffffffffffffffffffffffffffff168173ffffffffffffffffffffffffffffffffffffffff16141561141f576040517f08c379a000000000000000000000000000000000000000000000000000000000815260040161141690611db5565b60405180910390fd5b611428816114d4565b50565b600033905090565b61143b6109ee565b61147a576040517f08c379a000000000000000000000000000000000000000000000000000000000815260040161147190611d75565b60405180910390fd5b60008060146101000a81548160ff0219169083151502179055507f5db9ee0a495bf2e6ff9c91a7834c1ba4fdd244a5e8aa4e537bd38aeae4b073aa6114bd61142b565b6040516114ca9190611cd4565b60405180910390a1565b60008060009054906101000a900473ffffffffffffffffffffffffffffffffffffffff169050816000806101000a81548173ffffffffffffffffffffffffffffffffffffffff021916908373ffffffffffffffffffffffffffffffffffffffff1602179055508173ffffffffffffffffffffffffffffffffffffffff168173ffffffffffffffffffffffffffffffffffffffff167f8be0079c531659141344cd1fd0a4f28419497f9722a3daafe3b4186f6b6457e060405160405180910390a35050565b6115a06109ee565b156115e0576040517f08c379a00000000000000000000000000000000000000000000000000000000081526004016115d790611e35565b60405180910390fd5b6001600060146101000a81548160ff0219169083151502179055507f62e78cea01bee320cd4e420270b5ea74000d11b0c9f74754ebdbfc544b05a25861162461142b565b6040516116319190611cd4565b60405180910390a1565b8280546116479061217d565b90600052602060002090601f01602090048101928261166957600085556116b0565b82601f1061168257805160ff19168380011785556116b0565b828001600101855582156116b0579182015b828111156116af578251825591602001919060010190611694565b5b5090506116bd919061174e565b5090565b8280546116cd9061217d565b90600052602060002090601f0160209004810192826116ef576000855561173d565b82601f10611700578054855561173d565b8280016001018555821561173d57600052602060002091601f016020900482015b8281111561173c578254825591600101919060010190611721565b5b50905061174a919061174e565b5090565b5b8082111561176757600081600090555060010161174f565b5090565b600061177e61177984611fe9565b611fc4565b90508281526020810184848401111561179657600080fd5b6117a184828561213b565b509392505050565b6000813590506117b881612490565b92915050565b600082601f8301126117cf57600080fd5b81356117df84826020860161176b565b91505092915050565b6000813590506117f7816124a7565b92915050565b60006020828403121561180f57600080fd5b600061181d848285016117a9565b91505092915050565b6000806040838503121561183957600080fd5b6000611847858286016117a9565b9250506020611858858286016117e8565b9150509250929050565b60008060006060848603121561187757600080fd5b600084013567ffffffffffffffff81111561189157600080fd5b61189d868287016117be565b93505060206118ae868287016117e8565b92505060406118bf868287016117e8565b9150509250925092565b6000602082840312156118db57600080fd5b60006118e9848285016117e8565b91505092915050565b60006118fe8383611bdc565b905092915050565b61190f816120f3565b82525050565b61191e816120f3565b82525050565b61192d816120e1565b82525050565b600061193e8261202a565b611948818561204d565b93508360208202850161195a8561201a565b8060005b85811015611996578484038952815161197785826118f2565b945061198283612040565b925060208a0199505060018101905061195e565b50829750879550505050505092915050565b6119b181612105565b82525050565b6119c081612105565b82525050565b60006119d182612035565b6119db8185612069565b93506119eb81856020860161214a565b6119f48161226d565b840191505092915050565b6000611a0a82612035565b611a14818561207a565b9350611a2481856020860161214a565b611a2d8161226d565b840191505092915050565b6000611a45601a8361207a565b9150611a508261227e565b602082019050919050565b6000611a6860148361207a565b9150611a73826122a7565b602082019050919050565b6000611a8b60148361207a565b9150611a96826122d0565b602082019050919050565b6000611aae60268361207a565b9150611ab9826122f9565b604082019050919050565b6000611ad160128361207a565b9150611adc82612348565b602082019050919050565b6000611af460168361207a565b9150611aff82612371565b602082019050919050565b6000611b17601e8361207a565b9150611b228261239a565b602082019050919050565b6000611b3a60108361207a565b9150611b45826123c3565b602082019050919050565b6000611b5d60208361207a565b9150611b68826123ec565b602082019050919050565b6000611b8060008361205e565b9150611b8b82612415565b600082019050919050565b6000611ba360108361207a565b9150611bae82612418565b602082019050919050565b6000611bc660218361207a565b9150611bd182612441565b604082019050919050565b600061012083016000830151611bf56000860182611ca1565b5060208301518482036020860152611c0d82826119c6565b9150506040830151611c226040860182611906565b506060830151611c356060860182611ca1565b506080830151611c486080860182611ca1565b5060a0830151611c5b60a0860182611ca1565b5060c0830151611c6e60c0860182611ca1565b5060e0830151611c8160e0860182611ca1565b50610100830151611c966101008601826119a8565b508091505092915050565b611caa81612131565b82525050565b611cb981612131565b82525050565b6000611cca82611b73565b9150819050919050565b6000602082019050611ce96000830184611924565b92915050565b6000604082019050611d046000830185611924565b611d1160208301846119b7565b9392505050565b60006020820190508181036000830152611d328184611933565b905092915050565b6000602082019050611d4f60008301846119b7565b92915050565b60006020820190508181036000830152611d6e81611a38565b9050919050565b60006020820190508181036000830152611d8e81611a5b565b9050919050565b60006020820190508181036000830152611dae81611a7e565b9050919050565b60006020820190508181036000830152611dce81611aa1565b9050919050565b60006020820190508181036000830152611dee81611ac4565b9050919050565b60006020820190508181036000830152611e0e81611ae7565b9050919050565b60006020820190508181036000830152611e2e81611b0a565b9050919050565b60006020820190508181036000830152611e4e81611b2d565b9050919050565b60006020820190508181036000830152611e6e81611b50565b9050919050565b60006020820190508181036000830152611e8e81611b96565b9050919050565b60006020820190508181036000830152611eae81611bb9565b9050919050565b6000602082019050611eca6000830184611cb0565b92915050565b6000604082019050611ee56000830185611cb0565b611ef26020830184611924565b9392505050565b6000606082019050611f0e6000830186611cb0565b611f1b6020830185611924565b611f286040830184611cb0565b949350505050565b600061012082019050611f46600083018c611cb0565b8181036020830152611f58818b6119ff565b9050611f67604083018a611915565b611f746060830189611cb0565b611f816080830188611cb0565b611f8e60a0830187611cb0565b611f9b60c0830186611cb0565b611fa860e0830185611cb0565b611fb66101008301846119b7565b9a9950505050505050505050565b6000611fce611fdf565b9050611fda82826121af565b919050565b6000604051905090565b600067ffffffffffffffff8211156120045761200361223e565b5b61200d8261226d565b9050602081019050919050565b6000819050602082019050919050565b600081519050919050565b600081519050919050565b6000602082019050919050565b600082825260208201905092915050565b600081905092915050565b600082825260208201905092915050565b600082825260208201905092915050565b600061209682612131565b91506120a183612131565b9250827fffffffffffffffffffffffffffffffffffffffffffffffffffffffffffffffff038211156120d6576120d56121e0565b5b828201905092915050565b60006120ec82612111565b9050919050565b60006120fe82612111565b9050919050565b60008115159050919050565b600073ffffffffffffffffffffffffffffffffffffffff82169050919050565b6000819050919050565b82818337600083830152505050565b60005b8381101561216857808201518184015260208101905061214d565b83811115612177576000848401525b50505050565b6000600282049050600182168061219557607f821691505b602082108114156121a9576121a861220f565b5b50919050565b6121b88261226d565b810181811067ffffffffffffffff821117156121d7576121d661223e565b5b80604052505050565b7f4e487b7100000000000000000000000000000000000000000000000000000000600052601160045260246000fd5b7f4e487b7100000000000000000000000000000000000000000000000000000000600052602260045260246000fd5b7f4e487b7100000000000000000000000000000000000000000000000000000000600052604160045260246000fd5b6000601f19601f8301169050919050565b7f4e6f74207265676973746572656420617320612073656c6c6572000000000000600082015250565b7f5061757361626c653a206e6f7420706175736564000000000000000000000000600082015250565b7f546869732073616c652068617320636c6f736564000000000000000000000000600082015250565b7f4f776e61626c653a206e6577206f776e657220697320746865207a65726f206160008201527f6464726573730000000000000000000000000000000000000000000000000000602082015250565b7f416c726561647920726567697374657265640000000000000000000000000000600082015250565b7f54686973206576656e7420697320736f6c64206f757400000000000000000000600082015250565b7f496e73756666696369656e74207472616e73616374696f6e2076616c75650000600082015250565b7f5061757361626c653a2070617573656400000000000000000000000000000000600082015250565b7f4f776e61626c653a2063616c6c6572206973206e6f7420746865206f776e6572600082015250565b50565b7f5472616e73666572206661696c65642e00000000000000000000000000000000600082015250565b7f596f7527766520616c7265616479207075726368617365642061207469636b6560008201527f7400000000000000000000000000000000000000000000000000000000000000602082015250565b612499816120e1565b81146124a457600080fd5b50565b6124b081612131565b81146124bb57600080fd5b5056fea2646970667358221220e1253ec06cd0cf853773cb3a3c9fa0a8a58f09b2702819e5dd8bd11f470d399864736f6c63430008040033",
  "immutableReferences": {},
  "source": "// SPDX-License-Identifier: MIT\npragma solidity 0.8.4;\n\nimport '@openzeppelin/contracts/access/Ownable.sol';\nimport '@openzeppelin/contracts/security/Pausable.sol';\n\n  /// @title An event ticket marketplace\n  /** @notice This contract allows users to create events and sell tickets to other users.\n    * Ideally each ticket would be an NFT, but to keep it simple, tickets are just tracked in the Event struct\n  */\n\ncontract TicketShop is Ownable, Pausable {\n\n  /** @dev Using an enum to add phases to the ticket sale (presale, public sale, sale over, etc)\n    * and allow the seller to set how long these phases can last can give the seller more control, \n    * but decided to keep it simple for now\n  */\n  struct Event{\n    uint id;\n    string name;\n    address payable seller;\n    uint price;\n    uint supply;\n    uint amountSold;\n    uint saleStart;\n    uint saleEnd;\n    bool soldOut;\n  }\n\n  Event[] public eventList;\n  uint eventCount;\n\n  mapping (address => bool) public isSeller;\n  mapping (address => uint) public balances;\n  mapping (address => mapping(uint => bool)) public ticketOwned;\n  mapping (uint => Event) public events;\n\n  event SellerRegistered(address seller, bool status);\n  event EventAdded(uint eventId, address seller);\n  event TicketSold(uint eventId, address buyer, uint value);\n\n\n  /// @notice Only permits registered sellers to execute functions\n  /// @dev In the future this would be used for other functions specific to event organizers\n  modifier onlySeller(address _seller) {\n    require(isSeller[_seller] == true, \"Not registered as a seller\");\n    _;\n  }\n\n  function pause() external onlyOwner() {\n    _pause();\n  }\n\n  function unpause() external onlyOwner() {\n    _unpause();\n  }\n\n  /// @notice Registers the user as a seller\n  function registerSeller() external {\n    require(isSeller[msg.sender] != true, \"Already registered\");\n    \n    isSeller[msg.sender] = true;\n\n    emit SellerRegistered(msg.sender, isSeller[msg.sender]);\n  }\n\n  /// @notice Allows a seller to create an event\n  /// @dev Events are added to an array of events\n  function createEvent(string memory _name, uint _price, uint _supply) external onlySeller(msg.sender) {\n    emit EventAdded(eventList.length, msg.sender);\n\n    events[eventList.length] = Event(\n      eventList.length,\n      _name, \n      payable(msg.sender), \n      _price, \n      _supply, \n      0, \n      block.timestamp, \n      block.timestamp + 7 days, \n      false\n    );\n\n    eventList.push(events[eventList.length]);   \n\n    eventCount += 1; \n  }\n\n  /// @notice Allows a user to purchase a ticket\n  /**  @dev For now only allows a buyer to own 1 ticker per event\n    *  Contract must not be paused\n  */\n  function buyTicket(uint _eventId) external payable whenNotPaused() {\n    require(ticketOwned[msg.sender][_eventId] == false, \"You've already purchased a ticket\");\n    require(events[_eventId].soldOut == false, \"This event is sold out\");\n    require(block.timestamp < events[_eventId].saleEnd, \"This sale has closed\");\n    require(msg.value >= events[_eventId].price, \"Insufficient transaction value\");\n\n    ticketOwned[msg.sender][_eventId] = true;\n\n    events[_eventId].amountSold += 1;\n\n    if(events[_eventId].amountSold == events[_eventId].supply) {\n      events[_eventId].soldOut = true;\n    }\n\n    (bool success, ) = events[_eventId].seller.call{value: events[_eventId].price}(\"\");\n      require(success, \"Transfer failed.\");\n\n    emit TicketSold(_eventId, msg.sender, msg.value);\n  }\n\n  /// @notice Retrieve all events\n  /// @return An array of Event structs\n  function getEvents() external view returns(Event[] memory) {\n    return eventList;\n  }\n\n  /// @notice Sees if a user is an owner of a ticket for an event\n  /// @return Boolean value representing ticket ownership\n  /// unused\n  function getTicketOwned(uint _eventId) external view returns(bool) {\n    return ticketOwned[msg.sender][_eventId];\n  }\n}\n\n",
  "sourcePath": "C:/Users/mkeag/Documents/consensysbootcamp/blockchain-developer-bootcamp-final-project/contracts/TicketShop.sol",
  "compiler": {
    "name": "solc",
    "version": "0.8.4+commit.c7e474f2.Emscripten.clang"
  },
  "schemaVersion": "3.4.1",
  "updatedAt": "2021-12-05T22:58:52.896Z",
  "networkType": "ethereum",
  "devdoc": {
    "kind": "dev",
    "methods": {
      "buyTicket(uint256)": {
        "details": "For now only allows a buyer to own 1 ticker per event  Contract must not be paused"
      },
      "createEvent(string,uint256,uint256)": {
        "details": "Events are added to an array of events"
      },
      "getEvents()": {
        "returns": {
          "_0": "An array of Event structs"
        }
      },
      "getTicketOwned(uint256)": {
        "returns": {
          "_0": "Boolean value representing ticket ownership unused"
        }
      },
      "owner()": {
        "details": "Returns the address of the current owner."
      },
      "paused()": {
        "details": "Returns true if the contract is paused, and false otherwise."
      },
      "renounceOwnership()": {
        "details": "Leaves the contract without owner. It will not be possible to call `onlyOwner` functions anymore. Can only be called by the current owner. NOTE: Renouncing ownership will leave the contract without an owner, thereby removing any functionality that is only available to the owner."
      },
      "transferOwnership(address)": {
        "details": "Transfers ownership of the contract to a new account (`newOwner`). Can only be called by the current owner."
      }
    },
    "version": 1
  },
  "userdoc": {
    "kind": "user",
    "methods": {
      "createEvent(string,uint256,uint256)": {
        "notice": "Allows a seller to create an event"
      },
      "getEvents()": {
        "notice": "Retrieve all events"
      },
      "getTicketOwned(uint256)": {
        "notice": "Sees if a user is an owner of a ticket for an event"
      },
      "registerSeller()": {
        "notice": "Registers the user as a seller"
      }
    },
    "notice": "This contract allows users to create events and sell tickets to other users. Ideally each ticket would be an NFT, but to keep it simple, tickets are just tracked in the Event struct",
    "version": 1
  }
}