{
  "contractName": "TicketShop",
  "abi": [
    {
      "anonymous": false,
      "inputs": [
        {
          "indexed": false,
          "internalType": "uint256",
          "name": "eventId",
          "type": "uint256"
        },
        {
          "indexed": false,
          "internalType": "address",
          "name": "seller",
          "type": "address"
        }
      ],
      "name": "EventAdded",
      "type": "event"
    },
    {
      "anonymous": false,
      "inputs": [
        {
          "indexed": false,
          "internalType": "address",
          "name": "seller",
          "type": "address"
        },
        {
          "indexed": false,
          "internalType": "bool",
          "name": "status",
          "type": "bool"
        }
      ],
      "name": "SellerRegistered",
      "type": "event"
    },
    {
      "anonymous": false,
      "inputs": [
        {
          "indexed": false,
          "internalType": "uint256",
          "name": "eventId",
          "type": "uint256"
        },
        {
          "indexed": false,
          "internalType": "address",
          "name": "buyer",
          "type": "address"
        },
        {
          "indexed": false,
          "internalType": "uint256",
          "name": "value",
          "type": "uint256"
        }
      ],
      "name": "TicketSold",
      "type": "event"
    },
    {
      "inputs": [
        {
          "internalType": "address",
          "name": "",
          "type": "address"
        }
      ],
      "name": "balances",
      "outputs": [
        {
          "internalType": "uint256",
          "name": "",
          "type": "uint256"
        }
      ],
      "stateMutability": "view",
      "type": "function",
      "constant": true
    },
    {
      "inputs": [
        {
          "internalType": "uint256",
          "name": "",
          "type": "uint256"
        }
      ],
      "name": "events",
      "outputs": [
        {
          "internalType": "uint256",
          "name": "id",
          "type": "uint256"
        },
        {
          "internalType": "string",
          "name": "name",
          "type": "string"
        },
        {
          "internalType": "address payable",
          "name": "seller",
          "type": "address"
        },
        {
          "internalType": "uint256",
          "name": "price",
          "type": "uint256"
        },
        {
          "internalType": "uint256",
          "name": "supply",
          "type": "uint256"
        },
        {
          "internalType": "uint256",
          "name": "amountSold",
          "type": "uint256"
        },
        {
          "internalType": "uint256",
          "name": "saleStart",
          "type": "uint256"
        },
        {
          "internalType": "uint256",
          "name": "saleEnd",
          "type": "uint256"
        },
        {
          "internalType": "bool",
          "name": "soldOut",
          "type": "bool"
        }
      ],
      "stateMutability": "view",
      "type": "function",
      "constant": true
    },
    {
      "inputs": [
        {
          "internalType": "address",
          "name": "",
          "type": "address"
        }
      ],
      "name": "isSeller",
      "outputs": [
        {
          "internalType": "bool",
          "name": "",
          "type": "bool"
        }
      ],
      "stateMutability": "view",
      "type": "function",
      "constant": true
    },
    {
      "inputs": [],
      "name": "owner",
      "outputs": [
        {
          "internalType": "address",
          "name": "",
          "type": "address"
        }
      ],
      "stateMutability": "view",
      "type": "function",
      "constant": true
    },
    {
      "inputs": [
        {
          "internalType": "address",
          "name": "",
          "type": "address"
        },
        {
          "internalType": "uint256",
          "name": "",
          "type": "uint256"
        }
      ],
      "name": "ticketOwned",
      "outputs": [
        {
          "internalType": "bool",
          "name": "",
          "type": "bool"
        }
      ],
      "stateMutability": "view",
      "type": "function",
      "constant": true
    },
    {
      "inputs": [],
      "name": "registerSeller",
      "outputs": [],
      "stateMutability": "nonpayable",
      "type": "function"
    },
    {
      "inputs": [
        {
          "internalType": "string",
          "name": "_name",
          "type": "string"
        },
        {
          "internalType": "uint256",
          "name": "_price",
          "type": "uint256"
        },
        {
          "internalType": "uint256",
          "name": "_supply",
          "type": "uint256"
        }
      ],
      "name": "createEvent",
      "outputs": [],
      "stateMutability": "nonpayable",
      "type": "function"
    },
    {
      "inputs": [
        {
          "internalType": "uint256",
          "name": "_eventId",
          "type": "uint256"
        }
      ],
      "name": "buyTicket",
      "outputs": [],
      "stateMutability": "payable",
      "type": "function",
      "payable": true
    },
    {
      "inputs": [],
      "name": "getEvents",
      "outputs": [
        {
          "components": [
            {
              "internalType": "uint256",
              "name": "id",
              "type": "uint256"
            },
            {
              "internalType": "string",
              "name": "name",
              "type": "string"
            },
            {
              "internalType": "address payable",
              "name": "seller",
              "type": "address"
            },
            {
              "internalType": "uint256",
              "name": "price",
              "type": "uint256"
            },
            {
              "internalType": "uint256",
              "name": "supply",
              "type": "uint256"
            },
            {
              "internalType": "uint256",
              "name": "amountSold",
              "type": "uint256"
            },
            {
              "internalType": "uint256",
              "name": "saleStart",
              "type": "uint256"
            },
            {
              "internalType": "uint256",
              "name": "saleEnd",
              "type": "uint256"
            },
            {
              "internalType": "bool",
              "name": "soldOut",
              "type": "bool"
            }
          ],
          "internalType": "struct TicketShop.Event[]",
          "name": "",
          "type": "tuple[]"
        }
      ],
      "stateMutability": "view",
      "type": "function",
      "constant": true
    },
    {
      "inputs": [
        {
          "internalType": "address",
          "name": "_owner",
          "type": "address"
        },
        {
          "internalType": "uint256",
          "name": "_eventId",
          "type": "uint256"
        }
      ],
      "name": "getTicketOwned",
      "outputs": [
        {
          "internalType": "bool",
          "name": "",
          "type": "bool"
        }
      ],
      "stateMutability": "view",
      "type": "function",
      "constant": true
    }
  ],
  "bytecode": "0x608060405234801561001057600080fd5b50611c36806100206000396000f3fe6080604052600436106100915760003560e01c80638b1ed716116100595780638b1ed716146101765780638da5cb5b146101b35780639e9580f6146101de578063b7d15fc414610207578063ee95feaf1461024457610091565b80630b7914301461009657806327e235e3146100db578063404aa8f91461011857806352c9224c1461014357806367dd74ca1461015a575b600080fd5b3480156100a257600080fd5b506100bd60048036038101906100b89190611198565b610281565b6040516100d2999897969594939291906116f3565b60405180910390f35b3480156100e757600080fd5b5061010260048036038101906100fd91906110cc565b610394565b60405161010f9190611678565b60405180910390f35b34801561012457600080fd5b5061012d6103ac565b60405161013a919061155b565b60405180910390f35b34801561014f57600080fd5b5061015861054b565b005b610174600480360381019061016f9190611198565b6106be565b005b34801561018257600080fd5b5061019d600480360381019061019891906110f5565b610c89565b6040516101aa919061157d565b60405180910390f35b3480156101bf57600080fd5b506101c8610cf1565b6040516101d59190611517565b60405180910390f35b3480156101ea57600080fd5b5061020560048036038101906102009190611131565b610d15565b005b34801561021357600080fd5b5061022e600480360381019061022991906110f5565b610f48565b60405161023b919061157d565b60405180910390f35b34801561025057600080fd5b5061026b600480360381019061026691906110cc565b610f77565b604051610278919061157d565b60405180910390f35b6001818154811061029157600080fd5b90600052602060002090600902016000915090508060000154908060010180546102ba90611940565b80601f01602080910402602001604051908101604052809291908181526020018280546102e690611940565b80156103335780601f1061030857610100808354040283529160200191610333565b820191906000526020600020905b81548152906001019060200180831161031657829003601f168201915b5050505050908060020160009054906101000a900473ffffffffffffffffffffffffffffffffffffffff16908060030154908060040154908060050154908060060154908060070154908060080160009054906101000a900460ff16905089565b60036020528060005260406000206000915090505481565b60606001805480602002602001604051908101604052809291908181526020016000905b828210156105425783829060005260206000209060090201604051806101200160405290816000820154815260200160018201805461040e90611940565b80601f016020809104026020016040519081016040528092919081815260200182805461043a90611940565b80156104875780601f1061045c57610100808354040283529160200191610487565b820191906000526020600020905b81548152906001019060200180831161046a57829003601f168201915b505050505081526020016002820160009054906101000a900473ffffffffffffffffffffffffffffffffffffffff1673ffffffffffffffffffffffffffffffffffffffff1673ffffffffffffffffffffffffffffffffffffffff16815260200160038201548152602001600482015481526020016005820154815260200160068201548152602001600782015481526020016008820160009054906101000a900460ff161515151581525050815260200190600101906103d0565b50505050905090565b60011515600260003373ffffffffffffffffffffffffffffffffffffffff1673ffffffffffffffffffffffffffffffffffffffff16815260200190815260200160002060009054906101000a900460ff16151514156105df576040517f08c379a00000000000000000000000000000000000000000000000000000000081526004016105d6906115d8565b60405180910390fd5b6001600260003373ffffffffffffffffffffffffffffffffffffffff1673ffffffffffffffffffffffffffffffffffffffff16815260200190815260200160002060006101000a81548160ff0219169083151502179055507f3860b75e2fd87bc4bd8b62bb4c55616156cf8660108bfe650183fdf40cb2923533600260003373ffffffffffffffffffffffffffffffffffffffff1673ffffffffffffffffffffffffffffffffffffffff16815260200190815260200160002060009054906101000a900460ff166040516106b4929190611532565b60405180910390a1565b60001515600460003373ffffffffffffffffffffffffffffffffffffffff1673ffffffffffffffffffffffffffffffffffffffff168152602001908152602001600020600083815260200190815260200160002060009054906101000a900460ff16151514610762576040517f08c379a000000000000000000000000000000000000000000000000000000000815260040161075990611658565b60405180910390fd5b60001515600182815481106107a0577f4e487b7100000000000000000000000000000000000000000000000000000000600052603260045260246000fd5b906000526020600020906009020160080160009054906101000a900460ff16151514610801576040517f08c379a00000000000000000000000000000000000000000000000000000000081526004016107f8906115f8565b60405180910390fd5b6001818154811061083b577f4e487b7100000000000000000000000000000000000000000000000000000000600052603260045260246000fd5b906000526020600020906009020160070154421061088e576040517f08c379a0000000000000000000000000000000000000000000000000000000008152600401610885906115b8565b60405180910390fd5b600181815481106108c8577f4e487b7100000000000000000000000000000000000000000000000000000000600052603260045260246000fd5b90600052602060002090600902016003015434101561091c576040517f08c379a000000000000000000000000000000000000000000000000000000000815260040161091390611618565b60405180910390fd5b6001600460003373ffffffffffffffffffffffffffffffffffffffff1673ffffffffffffffffffffffffffffffffffffffff168152602001908152602001600020600083815260200190815260200160002060006101000a81548160ff021916908315150217905550600181815481106109bf577f4e487b7100000000000000000000000000000000000000000000000000000000600052603260045260246000fd5b906000526020600020906009020160050160008154809291906109e1906119a3565b919050555060018181548110610a20577f4e487b7100000000000000000000000000000000000000000000000000000000600052603260045260246000fd5b90600052602060002090600902016004015460018281548110610a6c577f4e487b7100000000000000000000000000000000000000000000000000000000600052603260045260246000fd5b9060005260206000209060090201600501541415610ae8576001808281548110610abf577f4e487b7100000000000000000000000000000000000000000000000000000000600052603260045260246000fd5b906000526020600020906009020160080160006101000a81548160ff0219169083151502179055505b600060018281548110610b24577f4e487b7100000000000000000000000000000000000000000000000000000000600052603260045260246000fd5b906000526020600020906009020160020160009054906101000a900473ffffffffffffffffffffffffffffffffffffffff1673ffffffffffffffffffffffffffffffffffffffff1660018381548110610ba6577f4e487b7100000000000000000000000000000000000000000000000000000000600052603260045260246000fd5b906000526020600020906009020160030154604051610bc490611502565b60006040518083038185875af1925050503d8060008114610c01576040519150601f19603f3d011682016040523d82523d6000602084013e610c06565b606091505b5050905080610c4a576040517f08c379a0000000000000000000000000000000000000000000000000000000008152600401610c4190611638565b60405180910390fd5b7fbce6612c87f6b5711225ffc4b9f920148cd399de49ba10137fe0d3c531333841823334604051610c7d939291906116bc565b60405180910390a15050565b6000600460008473ffffffffffffffffffffffffffffffffffffffff1673ffffffffffffffffffffffffffffffffffffffff168152602001908152602001600020600083815260200190815260200160002060009054906101000a900460ff16905092915050565b60008054906101000a900473ffffffffffffffffffffffffffffffffffffffff1681565b3360011515600260008373ffffffffffffffffffffffffffffffffffffffff1673ffffffffffffffffffffffffffffffffffffffff16815260200190815260200160002060009054906101000a900460ff16151514610da9576040517f08c379a0000000000000000000000000000000000000000000000000000000008152600401610da090611598565b60405180910390fd5b7f22c8faed5969a6808c4706a759d88cc07001fda4c7a81eef86f3f4499911614860018054905033604051610ddf929190611693565b60405180910390a1600160405180610120016040528060018054905081526020018681526020013373ffffffffffffffffffffffffffffffffffffffff1681526020018581526020018481526020016000815260200142815260200162093a8042610e4a919061184e565b8152602001600015158152509080600181540180825580915050600190039060005260206000209060090201600090919091909150600082015181600001556020820151816001019080519060200190610ea5929190610f97565b5060408201518160020160006101000a81548173ffffffffffffffffffffffffffffffffffffffff021916908373ffffffffffffffffffffffffffffffffffffffff160217905550606082015181600301556080820151816004015560a0820151816005015560c0820151816006015560e082015181600701556101008201518160080160006101000a81548160ff021916908315150217905550505050505050565b60046020528160005260406000206020528060005260406000206000915091509054906101000a900460ff1681565b60026020528060005260406000206000915054906101000a900460ff1681565b828054610fa390611940565b90600052602060002090601f016020900481019282610fc5576000855561100c565b82601f10610fde57805160ff191683800117855561100c565b8280016001018555821561100c579182015b8281111561100b578251825591602001919060010190610ff0565b5b509050611019919061101d565b5090565b5b8082111561103657600081600090555060010161101e565b5090565b600061104d611048846117ac565b611787565b90508281526020810184848401111561106557600080fd5b6110708482856118fe565b509392505050565b60008135905061108781611bd2565b92915050565b600082601f83011261109e57600080fd5b81356110ae84826020860161103a565b91505092915050565b6000813590506110c681611be9565b92915050565b6000602082840312156110de57600080fd5b60006110ec84828501611078565b91505092915050565b6000806040838503121561110857600080fd5b600061111685828601611078565b9250506020611127858286016110b7565b9150509250929050565b60008060006060848603121561114657600080fd5b600084013567ffffffffffffffff81111561116057600080fd5b61116c8682870161108d565b935050602061117d868287016110b7565b925050604061118e868287016110b7565b9150509250925092565b6000602082840312156111aa57600080fd5b60006111b8848285016110b7565b91505092915050565b60006111cd838361141f565b905092915050565b6111de816118b6565b82525050565b6111ed816118b6565b82525050565b6111fc816118a4565b82525050565b600061120d826117ed565b6112178185611810565b935083602082028501611229856117dd565b8060005b85811015611265578484038952815161124685826111c1565b945061125183611803565b925060208a0199505060018101905061122d565b50829750879550505050505092915050565b611280816118c8565b82525050565b61128f816118c8565b82525050565b60006112a0826117f8565b6112aa818561182c565b93506112ba81856020860161190d565b6112c381611a79565b840191505092915050565b60006112d9826117f8565b6112e3818561183d565b93506112f381856020860161190d565b6112fc81611a79565b840191505092915050565b6000611314601a8361183d565b915061131f82611a8a565b602082019050919050565b600061133760148361183d565b915061134282611ab3565b602082019050919050565b600061135a60128361183d565b915061136582611adc565b602082019050919050565b600061137d60168361183d565b915061138882611b05565b602082019050919050565b60006113a0601e8361183d565b91506113ab82611b2e565b602082019050919050565b60006113c3600083611821565b91506113ce82611b57565b600082019050919050565b60006113e660108361183d565b91506113f182611b5a565b602082019050919050565b600061140960218361183d565b915061141482611b83565b604082019050919050565b60006101208301600083015161143860008601826114e4565b50602083015184820360208601526114508282611295565b915050604083015161146560408601826111d5565b50606083015161147860608601826114e4565b50608083015161148b60808601826114e4565b5060a083015161149e60a08601826114e4565b5060c08301516114b160c08601826114e4565b5060e08301516114c460e08601826114e4565b506101008301516114d9610100860182611277565b508091505092915050565b6114ed816118f4565b82525050565b6114fc816118f4565b82525050565b600061150d826113b6565b9150819050919050565b600060208201905061152c60008301846111f3565b92915050565b600060408201905061154760008301856111f3565b6115546020830184611286565b9392505050565b600060208201905081810360008301526115758184611202565b905092915050565b60006020820190506115926000830184611286565b92915050565b600060208201905081810360008301526115b181611307565b9050919050565b600060208201905081810360008301526115d18161132a565b9050919050565b600060208201905081810360008301526115f18161134d565b9050919050565b6000602082019050818103600083015261161181611370565b9050919050565b6000602082019050818103600083015261163181611393565b9050919050565b60006020820190508181036000830152611651816113d9565b9050919050565b60006020820190508181036000830152611671816113fc565b9050919050565b600060208201905061168d60008301846114f3565b92915050565b60006040820190506116a860008301856114f3565b6116b560208301846111f3565b9392505050565b60006060820190506116d160008301866114f3565b6116de60208301856111f3565b6116eb60408301846114f3565b949350505050565b600061012082019050611709600083018c6114f3565b818103602083015261171b818b6112ce565b905061172a604083018a6111e4565b61173760608301896114f3565b61174460808301886114f3565b61175160a08301876114f3565b61175e60c08301866114f3565b61176b60e08301856114f3565b611779610100830184611286565b9a9950505050505050505050565b60006117916117a2565b905061179d8282611972565b919050565b6000604051905090565b600067ffffffffffffffff8211156117c7576117c6611a4a565b5b6117d082611a79565b9050602081019050919050565b6000819050602082019050919050565b600081519050919050565b600081519050919050565b6000602082019050919050565b600082825260208201905092915050565b600081905092915050565b600082825260208201905092915050565b600082825260208201905092915050565b6000611859826118f4565b9150611864836118f4565b9250827fffffffffffffffffffffffffffffffffffffffffffffffffffffffffffffffff03821115611899576118986119ec565b5b828201905092915050565b60006118af826118d4565b9050919050565b60006118c1826118d4565b9050919050565b60008115159050919050565b600073ffffffffffffffffffffffffffffffffffffffff82169050919050565b6000819050919050565b82818337600083830152505050565b60005b8381101561192b578082015181840152602081019050611910565b8381111561193a576000848401525b50505050565b6000600282049050600182168061195857607f821691505b6020821081141561196c5761196b611a1b565b5b50919050565b61197b82611a79565b810181811067ffffffffffffffff8211171561199a57611999611a4a565b5b80604052505050565b60006119ae826118f4565b91507fffffffffffffffffffffffffffffffffffffffffffffffffffffffffffffffff8214156119e1576119e06119ec565b5b600182019050919050565b7f4e487b7100000000000000000000000000000000000000000000000000000000600052601160045260246000fd5b7f4e487b7100000000000000000000000000000000000000000000000000000000600052602260045260246000fd5b7f4e487b7100000000000000000000000000000000000000000000000000000000600052604160045260246000fd5b6000601f19601f8301169050919050565b7f4e6f74207265676973746572656420617320612073656c6c6572000000000000600082015250565b7f546869732073616c652068617320636c6f736564000000000000000000000000600082015250565b7f416c726561647920726567697374657265640000000000000000000000000000600082015250565b7f54686973206576656e7420697320736f6c64206f757400000000000000000000600082015250565b7f496e73756666696369656e74207472616e73616374696f6e2076616c75650000600082015250565b50565b7f5472616e73666572206661696c65642e00000000000000000000000000000000600082015250565b7f596f7527766520616c7265616479207075726368617365642061207469636b6560008201527f7400000000000000000000000000000000000000000000000000000000000000602082015250565b611bdb816118a4565b8114611be657600080fd5b50565b611bf2816118f4565b8114611bfd57600080fd5b5056fea2646970667358221220f0e0d1dc4e408f3a1b8d956155373ff706713233d4f840770bbb50fcc618165364736f6c63430008040033",
  "immutableReferences": {},
  "source": "// SPDX-License-Identifier: MIT\npragma solidity 0.8.4;\n\ncontract TicketShop {\n  address public owner;\n\n  // I had the idea of using an enum to add phases to the ticket sale (presale, public sale, sale over, etc)\n  // and allow the seller to set how long these phases can last, but decided to keep it simple for now\n\n  struct Event{\n    uint id;\n    string name;\n    address payable seller;\n    uint price;\n    uint supply;\n    uint amountSold;\n    uint saleStart;\n    uint saleEnd;\n    bool soldOut;\n  }\n\n  Event[] public events;\n\n  mapping (address => bool) public isSeller;\n  mapping (address => uint) public balances;\n  mapping (address => mapping(uint => bool)) public ticketOwned;\n\n  event SellerRegistered(address seller, bool status);\n  event EventAdded(uint eventId, address seller);\n  event TicketSold(uint eventId, address buyer, uint value);\n\n  modifier onlySeller(address _seller) {\n    require(isSeller[_seller] == true, \"Not registered as a seller\");\n    _;\n  }\n\n  // Registers the user as a seller\n  function registerSeller() external {\n    require(isSeller[msg.sender] != true, \"Already registered\");\n    \n    isSeller[msg.sender] = true;\n\n    emit SellerRegistered(msg.sender, isSeller[msg.sender]);\n  }\n\n  // Allows a seller to create an event\n  function createEvent(string memory _name, uint _price, uint _supply) external onlySeller(msg.sender) {\n    emit EventAdded(events.length, msg.sender);\n\n    events.push(\n      Event(\n        events.length,\n        _name, payable(msg.sender), \n        _price, _supply, \n        0, \n        block.timestamp, \n        block.timestamp + 7 days, \n        false\n      )\n    );    \n  }\n\n  // Allows a buyer to purchase a ticket\n  // For now only allows a buyer to own 1 ticker per event\n  function buyTicket(uint _eventId) external payable {\n    require(ticketOwned[msg.sender][_eventId] == false, \"You've already purchased a ticket\");\n    require(events[_eventId].soldOut == false, \"This event is sold out\");\n    require(block.timestamp < events[_eventId].saleEnd, \"This sale has closed\");\n    require(msg.value >= events[_eventId].price, \"Insufficient transaction value\");\n\n    ticketOwned[msg.sender][_eventId] = true;\n\n    events[_eventId].amountSold++;\n\n    if(events[_eventId].amountSold == events[_eventId].supply) {\n      events[_eventId].soldOut = true;\n    }\n\n    (bool success, ) = events[_eventId].seller.call{value: events[_eventId].price}(\"\");\n      require(success, \"Transfer failed.\");\n\n    emit TicketSold(_eventId, msg.sender, msg.value);\n  }\n\n  function getEvents() external view returns(Event[] memory) {\n    return events;\n  }\n\n  function getTicketOwned(address _owner, uint _eventId) external view returns(bool) {\n    return ticketOwned[_owner][_eventId];\n  }\n}\n\n",
  "sourcePath": "C:/Users/mkeag/Documents/consensysbootcamp/blockchain-developer-bootcamp-final-project/contracts/TicketShop.sol",
  "compiler": {
    "name": "solc",
    "version": "0.8.4+commit.c7e474f2.Emscripten.clang"
  },
  "schemaVersion": "3.4.1",
  "updatedAt": "2021-11-12T19:01:02.724Z",
  "networkType": "ethereum",
  "devdoc": {
    "kind": "dev",
    "methods": {},
    "version": 1
  },
  "userdoc": {
    "kind": "user",
    "methods": {},
    "version": 1
  }
}