{
  "contractName": "TicketShop",
  "abi": [
    {
      "anonymous": false,
      "inputs": [
        {
          "indexed": false,
          "internalType": "address",
          "name": "buyer",
          "type": "address"
        },
        {
          "indexed": false,
          "internalType": "bool",
          "name": "status",
          "type": "bool"
        }
      ],
      "name": "BuyerRegistered",
      "type": "event"
    },
    {
      "anonymous": false,
      "inputs": [
        {
          "indexed": false,
          "internalType": "uint256",
          "name": "eventId",
          "type": "uint256"
        },
        {
          "indexed": false,
          "internalType": "address",
          "name": "seller",
          "type": "address"
        }
      ],
      "name": "EventAdded",
      "type": "event"
    },
    {
      "anonymous": false,
      "inputs": [
        {
          "indexed": false,
          "internalType": "address",
          "name": "seller",
          "type": "address"
        },
        {
          "indexed": false,
          "internalType": "bool",
          "name": "status",
          "type": "bool"
        }
      ],
      "name": "SellerRegistered",
      "type": "event"
    },
    {
      "anonymous": false,
      "inputs": [
        {
          "indexed": false,
          "internalType": "uint256",
          "name": "eventId",
          "type": "uint256"
        },
        {
          "indexed": false,
          "internalType": "address",
          "name": "buyer",
          "type": "address"
        },
        {
          "indexed": false,
          "internalType": "uint256",
          "name": "value",
          "type": "uint256"
        }
      ],
      "name": "TicketSold",
      "type": "event"
    },
    {
      "inputs": [
        {
          "internalType": "address",
          "name": "",
          "type": "address"
        }
      ],
      "name": "balances",
      "outputs": [
        {
          "internalType": "uint256",
          "name": "",
          "type": "uint256"
        }
      ],
      "stateMutability": "view",
      "type": "function",
      "constant": true
    },
    {
      "inputs": [],
      "name": "eventCount",
      "outputs": [
        {
          "internalType": "uint256",
          "name": "",
          "type": "uint256"
        }
      ],
      "stateMutability": "view",
      "type": "function",
      "constant": true
    },
    {
      "inputs": [
        {
          "internalType": "uint256",
          "name": "",
          "type": "uint256"
        }
      ],
      "name": "events",
      "outputs": [
        {
          "internalType": "string",
          "name": "name",
          "type": "string"
        },
        {
          "internalType": "address payable",
          "name": "seller",
          "type": "address"
        },
        {
          "internalType": "uint256",
          "name": "price",
          "type": "uint256"
        },
        {
          "internalType": "uint256",
          "name": "supply",
          "type": "uint256"
        },
        {
          "internalType": "uint256",
          "name": "amountSold",
          "type": "uint256"
        },
        {
          "internalType": "uint256",
          "name": "saleStart",
          "type": "uint256"
        },
        {
          "internalType": "uint256",
          "name": "saleEnd",
          "type": "uint256"
        },
        {
          "internalType": "bool",
          "name": "soldOut",
          "type": "bool"
        }
      ],
      "stateMutability": "view",
      "type": "function",
      "constant": true
    },
    {
      "inputs": [
        {
          "internalType": "address",
          "name": "",
          "type": "address"
        }
      ],
      "name": "isBuyer",
      "outputs": [
        {
          "internalType": "bool",
          "name": "",
          "type": "bool"
        }
      ],
      "stateMutability": "view",
      "type": "function",
      "constant": true
    },
    {
      "inputs": [
        {
          "internalType": "address",
          "name": "",
          "type": "address"
        }
      ],
      "name": "isSeller",
      "outputs": [
        {
          "internalType": "bool",
          "name": "",
          "type": "bool"
        }
      ],
      "stateMutability": "view",
      "type": "function",
      "constant": true
    },
    {
      "inputs": [],
      "name": "owner",
      "outputs": [
        {
          "internalType": "address",
          "name": "",
          "type": "address"
        }
      ],
      "stateMutability": "view",
      "type": "function",
      "constant": true
    },
    {
      "inputs": [
        {
          "internalType": "address",
          "name": "",
          "type": "address"
        },
        {
          "internalType": "uint256",
          "name": "",
          "type": "uint256"
        }
      ],
      "name": "tickets",
      "outputs": [
        {
          "internalType": "uint256",
          "name": "",
          "type": "uint256"
        }
      ],
      "stateMutability": "view",
      "type": "function",
      "constant": true
    },
    {
      "inputs": [],
      "name": "registerBuyer",
      "outputs": [],
      "stateMutability": "nonpayable",
      "type": "function"
    },
    {
      "inputs": [],
      "name": "registerSeller",
      "outputs": [],
      "stateMutability": "nonpayable",
      "type": "function"
    },
    {
      "inputs": [
        {
          "internalType": "string",
          "name": "_name",
          "type": "string"
        },
        {
          "internalType": "uint256",
          "name": "_price",
          "type": "uint256"
        },
        {
          "internalType": "uint256",
          "name": "_supply",
          "type": "uint256"
        }
      ],
      "name": "createEvent",
      "outputs": [],
      "stateMutability": "nonpayable",
      "type": "function"
    },
    {
      "inputs": [
        {
          "internalType": "uint256",
          "name": "_eventId",
          "type": "uint256"
        }
      ],
      "name": "buyTicket",
      "outputs": [],
      "stateMutability": "payable",
      "type": "function",
      "payable": true
    }
  ],
  "bytecode": "0x608060405234801561001057600080fd5b506118b5806100206000396000f3fe60806040526004361061009c5760003560e01c806371be2e4a1161006457806371be2e4a146101925780638da5cb5b146101bd5780639e9580f6146101e8578063a365a85e14610211578063dae7a13c14610228578063ee95feaf146102655761009c565b80630b791430146100a157806327e235e3146100e55780632a55feec1461012257806352c9224c1461015f57806367dd74ca14610176575b600080fd5b3480156100ad57600080fd5b506100c860048036038101906100c39190610e96565b6102a2565b6040516100dc989796959493929190610fc7565b60405180910390f35b3480156100f157600080fd5b5061010c6004803603810190610107919061108a565b61039f565b60405161011991906110b7565b60405180910390f35b34801561012e57600080fd5b506101496004803603810190610144919061108a565b6103b7565b60405161015691906110d2565b60405180910390f35b34801561016b57600080fd5b506101746103d7565b005b610190600480360381019061018b9190610e96565b61054a565b005b34801561019e57600080fd5b506101a76109aa565b6040516101b491906110b7565b60405180910390f35b3480156101c957600080fd5b506101d26109b0565b6040516101df91906110fc565b60405180910390f35b3480156101f457600080fd5b5061020f600480360381019061020a919061124c565b6109d4565b005b34801561021d57600080fd5b50610226610bf1565b005b34801561023457600080fd5b5061024f600480360381019061024a91906112bb565b610d64565b60405161025c91906110b7565b60405180910390f35b34801561027157600080fd5b5061028c6004803603810190610287919061108a565b610d89565b60405161029991906110d2565b60405180910390f35b60056020528060005260406000206000915090508060000180546102c59061132a565b80601f01602080910402602001604051908101604052809291908181526020018280546102f19061132a565b801561033e5780601f106103135761010080835404028352916020019161033e565b820191906000526020600020905b81548152906001019060200180831161032157829003601f168201915b5050505050908060010160009054906101000a900473ffffffffffffffffffffffffffffffffffffffff16908060020154908060030154908060040154908060050154908060060154908060070160009054906101000a900460ff16905088565b60046020528060005260406000206000915090505481565b60026020528060005260406000206000915054906101000a900460ff1681565b60011515600360003373ffffffffffffffffffffffffffffffffffffffff1673ffffffffffffffffffffffffffffffffffffffff16815260200190815260200160002060009054906101000a900460ff161515141561046b576040517f08c379a0000000000000000000000000000000000000000000000000000000008152600401610462906113a8565b60405180910390fd5b6001600360003373ffffffffffffffffffffffffffffffffffffffff1673ffffffffffffffffffffffffffffffffffffffff16815260200190815260200160002060006101000a81548160ff0219169083151502179055507f3860b75e2fd87bc4bd8b62bb4c55616156cf8660108bfe650183fdf40cb2923533600360003373ffffffffffffffffffffffffffffffffffffffff1673ffffffffffffffffffffffffffffffffffffffff16815260200190815260200160002060009054906101000a900460ff166040516105409291906113c8565b60405180910390a1565b3360011515600260008373ffffffffffffffffffffffffffffffffffffffff1673ffffffffffffffffffffffffffffffffffffffff16815260200190815260200160002060009054906101000a900460ff161515146105de576040517f08c379a00000000000000000000000000000000000000000000000000000000081526004016105d59061143d565b60405180910390fd5b6001600660003373ffffffffffffffffffffffffffffffffffffffff1673ffffffffffffffffffffffffffffffffffffffff16815260200190815260200160002060008481526020019081526020016000205410610671576040517f08c379a0000000000000000000000000000000000000000000000000000000008152600401610668906114cf565b60405180910390fd5b600015156005600084815260200190815260200160002060070160009054906101000a900460ff161515146106db576040517f08c379a00000000000000000000000000000000000000000000000000000000081526004016106d29061153b565b60405180910390fd5b60056000838152602001908152602001600020600601544210610733576040517f08c379a000000000000000000000000000000000000000000000000000000000815260040161072a906115a7565b60405180910390fd5b600560008381526020019081526020016000206002015434101561078c576040517f08c379a000000000000000000000000000000000000000000000000000000000815260040161078390611613565b60405180910390fd5b6001600660003373ffffffffffffffffffffffffffffffffffffffff1673ffffffffffffffffffffffffffffffffffffffff16815260200190815260200160002060008481526020019081526020016000208190555060056000838152602001908152602001600020600401600081548092919061080990611662565b91905055506005600083815260200190815260200160002060030154600560008481526020019081526020016000206004015414156108725760016005600084815260200190815260200160002060070160006101000a81548160ff0219169083151502179055505b60006005600084815260200190815260200160002060010160009054906101000a900473ffffffffffffffffffffffffffffffffffffffff1673ffffffffffffffffffffffffffffffffffffffff1660056000858152602001908152602001600020600201546040516108e4906116dc565b60006040518083038185875af1925050503d8060008114610921576040519150601f19603f3d011682016040523d82523d6000602084013e610926565b606091505b505090508061096a576040517f08c379a00000000000000000000000000000000000000000000000000000000081526004016109619061173d565b60405180910390fd5b7fbce6612c87f6b5711225ffc4b9f920148cd399de49ba10137fe0d3c53133384183333460405161099d9392919061175d565b60405180910390a1505050565b60015481565b60008054906101000a900473ffffffffffffffffffffffffffffffffffffffff1681565b3360011515600360008373ffffffffffffffffffffffffffffffffffffffff1673ffffffffffffffffffffffffffffffffffffffff16815260200190815260200160002060009054906101000a900460ff16151514610a68576040517f08c379a0000000000000000000000000000000000000000000000000000000008152600401610a5f906117e0565b60405180910390fd5b6040518061010001604052808581526020013373ffffffffffffffffffffffffffffffffffffffff1681526020018481526020018381526020016000815260200142815260200162093a8042610abe9190611800565b8152602001600015158152506005600060015481526020019081526020016000206000820151816000019080519060200190610afb929190610da9565b5060208201518160010160006101000a81548173ffffffffffffffffffffffffffffffffffffffff021916908373ffffffffffffffffffffffffffffffffffffffff16021790555060408201518160020155606082015181600301556080820151816004015560a0820151816005015560c0820151816006015560e08201518160070160006101000a81548160ff0219169083151502179055509050507f22c8faed5969a6808c4706a759d88cc07001fda4c7a81eef86f3f4499911614860015433604051610bcb929190611856565b60405180910390a160016000815480929190610be690611662565b919050555050505050565b60011515600260003373ffffffffffffffffffffffffffffffffffffffff1673ffffffffffffffffffffffffffffffffffffffff16815260200190815260200160002060009054906101000a900460ff1615151415610c85576040517f08c379a0000000000000000000000000000000000000000000000000000000008152600401610c7c906113a8565b60405180910390fd5b6001600260003373ffffffffffffffffffffffffffffffffffffffff1673ffffffffffffffffffffffffffffffffffffffff16815260200190815260200160002060006101000a81548160ff0219169083151502179055507ffe169302b6a62804a26895ffe153e47aaaf25624c334f93fc2d179d8d1530bbf33600260003373ffffffffffffffffffffffffffffffffffffffff1673ffffffffffffffffffffffffffffffffffffffff16815260200190815260200160002060009054906101000a900460ff16604051610d5a9291906113c8565b60405180910390a1565b6006602052816000526040600020602052806000526040600020600091509150505481565b60036020528060005260406000206000915054906101000a900460ff1681565b828054610db59061132a565b90600052602060002090601f016020900481019282610dd75760008555610e1e565b82601f10610df057805160ff1916838001178555610e1e565b82800160010185558215610e1e579182015b82811115610e1d578251825591602001919060010190610e02565b5b509050610e2b9190610e2f565b5090565b5b80821115610e48576000816000905550600101610e30565b5090565b6000604051905090565b600080fd5b600080fd5b6000819050919050565b610e7381610e60565b8114610e7e57600080fd5b50565b600081359050610e9081610e6a565b92915050565b600060208284031215610eac57610eab610e56565b5b6000610eba84828501610e81565b91505092915050565b600081519050919050565b600082825260208201905092915050565b60005b83811015610efd578082015181840152602081019050610ee2565b83811115610f0c576000848401525b50505050565b6000601f19601f8301169050919050565b6000610f2e82610ec3565b610f388185610ece565b9350610f48818560208601610edf565b610f5181610f12565b840191505092915050565b600073ffffffffffffffffffffffffffffffffffffffff82169050919050565b6000610f8782610f5c565b9050919050565b610f9781610f7c565b82525050565b610fa681610e60565b82525050565b60008115159050919050565b610fc181610fac565b82525050565b6000610100820190508181036000830152610fe2818b610f23565b9050610ff1602083018a610f8e565b610ffe6040830189610f9d565b61100b6060830188610f9d565b6110186080830187610f9d565b61102560a0830186610f9d565b61103260c0830185610f9d565b61103f60e0830184610fb8565b9998505050505050505050565b600061105782610f5c565b9050919050565b6110678161104c565b811461107257600080fd5b50565b6000813590506110848161105e565b92915050565b6000602082840312156110a05761109f610e56565b5b60006110ae84828501611075565b91505092915050565b60006020820190506110cc6000830184610f9d565b92915050565b60006020820190506110e76000830184610fb8565b92915050565b6110f68161104c565b82525050565b600060208201905061111160008301846110ed565b92915050565b600080fd5b600080fd5b7f4e487b7100000000000000000000000000000000000000000000000000000000600052604160045260246000fd5b61115982610f12565b810181811067ffffffffffffffff8211171561117857611177611121565b5b80604052505050565b600061118b610e4c565b90506111978282611150565b919050565b600067ffffffffffffffff8211156111b7576111b6611121565b5b6111c082610f12565b9050602081019050919050565b82818337600083830152505050565b60006111ef6111ea8461119c565b611181565b90508281526020810184848401111561120b5761120a61111c565b5b6112168482856111cd565b509392505050565b600082601f83011261123357611232611117565b5b81356112438482602086016111dc565b91505092915050565b60008060006060848603121561126557611264610e56565b5b600084013567ffffffffffffffff81111561128357611282610e5b565b5b61128f8682870161121e565b93505060206112a086828701610e81565b92505060406112b186828701610e81565b9150509250925092565b600080604083850312156112d2576112d1610e56565b5b60006112e085828601611075565b92505060206112f185828601610e81565b9150509250929050565b7f4e487b7100000000000000000000000000000000000000000000000000000000600052602260045260246000fd5b6000600282049050600182168061134257607f821691505b60208210811415611356576113556112fb565b5b50919050565b7f416c726561647920726567697374657265640000000000000000000000000000600082015250565b6000611392601283610ece565b915061139d8261135c565b602082019050919050565b600060208201905081810360008301526113c181611385565b9050919050565b60006040820190506113dd60008301856110ed565b6113ea6020830184610fb8565b9392505050565b7f4e6f742072656769737465726564206173206120627579657200000000000000600082015250565b6000611427601983610ece565b9150611432826113f1565b602082019050919050565b600060208201905081810360008301526114568161141a565b9050919050565b7f596f7527766520616c7265616479207075726368617365642061207469636b6560008201527f7400000000000000000000000000000000000000000000000000000000000000602082015250565b60006114b9602183610ece565b91506114c48261145d565b604082019050919050565b600060208201905081810360008301526114e8816114ac565b9050919050565b7f54686973206576656e7420697320736f6c64206f757400000000000000000000600082015250565b6000611525601683610ece565b9150611530826114ef565b602082019050919050565b6000602082019050818103600083015261155481611518565b9050919050565b7f546869732073616c652068617320636c6f736564000000000000000000000000600082015250565b6000611591601483610ece565b915061159c8261155b565b602082019050919050565b600060208201905081810360008301526115c081611584565b9050919050565b7f496e73756666696369656e74207472616e73616374696f6e2076616c75650000600082015250565b60006115fd601e83610ece565b9150611608826115c7565b602082019050919050565b6000602082019050818103600083015261162c816115f0565b9050919050565b7f4e487b7100000000000000000000000000000000000000000000000000000000600052601160045260246000fd5b600061166d82610e60565b91507fffffffffffffffffffffffffffffffffffffffffffffffffffffffffffffffff8214156116a05761169f611633565b5b600182019050919050565b600081905092915050565b50565b60006116c66000836116ab565b91506116d1826116b6565b600082019050919050565b60006116e7826116b9565b9150819050919050565b7f5472616e73666572206661696c65642e00000000000000000000000000000000600082015250565b6000611727601083610ece565b9150611732826116f1565b602082019050919050565b600060208201905081810360008301526117568161171a565b9050919050565b60006060820190506117726000830186610f9d565b61177f60208301856110ed565b61178c6040830184610f9d565b949350505050565b7f4e6f74207265676973746572656420617320612073656c6c6572000000000000600082015250565b60006117ca601a83610ece565b91506117d582611794565b602082019050919050565b600060208201905081810360008301526117f9816117bd565b9050919050565b600061180b82610e60565b915061181683610e60565b9250827fffffffffffffffffffffffffffffffffffffffffffffffffffffffffffffffff0382111561184b5761184a611633565b5b828201905092915050565b600060408201905061186b6000830185610f9d565b61187860208301846110ed565b939250505056fea264697066735822122052c3f53447b636de8314d921b5bb33a9061a8cc93319fb3ea5b0b8743be2c48c64736f6c63430008090033",
  "immutableReferences": {},
  "source": "// SPDX-License-Identifier: MIT\npragma solidity ^0.8.0;\n\ncontract TicketShop {\n  address public owner;\n\n  // I had the idea of using an enum to add phases to the ticket sale (presale, public sale, sale over, etc)\n  // and allow the seller to set how long these phases can last, but decided to keep it simple for now\n\n  struct Event{\n    string name;\n    address payable seller;\n    uint price;\n    uint supply;\n    uint amountSold;\n    uint saleStart;\n    uint saleEnd;\n    bool soldOut;\n  }\n\n  uint public eventCount;\n\n  mapping (address => bool) public isBuyer;\n  mapping (address => bool) public isSeller;\n  mapping (address => uint) public balances;\n  mapping (uint => Event) public events;\n  mapping (address => mapping(uint => uint)) public tickets;\n\n  event BuyerRegistered(address buyer, bool status);\n  event SellerRegistered(address seller, bool status);\n  event EventAdded(uint eventId, address seller);\n  event TicketSold(uint eventId, address buyer, uint value);\n\n  modifier onlyBuyer(address _buyer) {\n    require(isBuyer[_buyer] == true, \"Not registered as a buyer\");\n    _;\n  }\n\n  modifier onlySeller(address _seller) {\n    require(isSeller[_seller] == true, \"Not registered as a seller\");\n    _;\n  }\n\n  // Registers the user as a buyer\n  function registerBuyer() external {\n    require(isBuyer[msg.sender] != true, \"Already registered\");\n\n    isBuyer[msg.sender] = true;\n\n    emit BuyerRegistered(msg.sender, isBuyer[msg.sender]);\n  }\n\n  // Registers the user as a seller\n  function registerSeller() external {\n    require(isSeller[msg.sender] != true, \"Already registered\");\n    \n    isSeller[msg.sender] = true;\n\n    emit SellerRegistered(msg.sender, isSeller[msg.sender]);\n  }\n\n  // Allows a seller to create an event\n  function createEvent(string memory _name, uint _price, uint _supply) external onlySeller(msg.sender) {\n    events[eventCount] = Event({\n      name: _name,\n      seller: payable(msg.sender),\n      price: _price,\n      supply: _supply,\n      amountSold: 0,\n      saleStart: block.timestamp,\n      saleEnd: block.timestamp + 7 days,\n      soldOut: false\n    });\n\n    emit EventAdded(eventCount, msg.sender);\n\n    eventCount++;\n  }\n\n  // Allows a buyer to purchase a ticket\n  // For now only allows a buyer to own 1 ticker per event\n  function buyTicket(uint _eventId) external payable onlyBuyer(msg.sender){\n    require(tickets[msg.sender][_eventId] < 1, \"You've already purchased a ticket\");\n    require(events[_eventId].soldOut == false, \"This event is sold out\");\n    require(block.timestamp < events[_eventId].saleEnd, \"This sale has closed\");\n    require(msg.value >= events[_eventId].price, \"Insufficient transaction value\");\n\n    tickets[msg.sender][_eventId] = 1;\n\n    events[_eventId].amountSold++;\n\n    if(events[_eventId].amountSold == events[_eventId].supply) {\n      events[_eventId].soldOut = true;\n    }\n\n    (bool success, ) = events[_eventId].seller.call{value: events[_eventId].price}(\"\");\n      require(success, \"Transfer failed.\");\n\n    emit TicketSold(_eventId, msg.sender, msg.value);\n  }\n}\n\n",
  "sourcePath": "/mnt/c/Users/mkeag/Documents/consensysbootcamp/blockchain-developer-bootcamp-final-project/contracts/TicketShop.sol",
  "compiler": {
    "name": "solc",
    "version": "0.8.9+commit.e5eed63a.Emscripten.clang"
  },
  "schemaVersion": "3.4.3",
  "updatedAt": "2021-10-27T20:01:36.970Z",
  "networkType": "ethereum",
  "devdoc": {
    "kind": "dev",
    "methods": {},
    "version": 1
  },
  "userdoc": {
    "kind": "user",
    "methods": {},
    "version": 1
  }
}